:100000000C943D030C945A030C945A030C945A0319
:100010000C945A030C945A030C945A030C945A03EC
:100020000C945A030C945A030C94970C0C94D90B0F
:100030000C94501F0C945A030C945A030C945A03BA
:100040000C945A030C945A030C945A030C945A03BC
:100050000C945A030C940F1F0C945A030C945A03DB
:100060000C945A030C945A030C945A030C945A039C
:100070000C945A030C945A030C945A030C945A038C
:100080000C945A030C945A030C945A030C945A037C
:100090000C945A030C945A030C945A030C945A036C
:1000A0000C945A030C945A030C945A03EC09130A47
:1000B000C10B130AC10B5F0A820AC10B770B870BB6
:1000C0005D15641569156E15731578157D15821506
:1000D00087158C159115E21498159B159E15A11581
:1000E000A415A715A915AC15AE158D168D16BC1641
:1000F000BC1637175517571857185A17CE17DF174A
:10010000DF17571A5C1A661A5A1A5F1A641A621AAB
:10011000F91BFC1BFF1B021C051C081C0B1C1E0FE3
:100120000500047F3F1F643214643214783C1E1EA5
:10013000140A0505010980A101850319012AB700E8
:10014000150126B700950175108100C0050C090145
:10015000A101850419012AA002150126A00295011A
:1001600075108100C005010906A101850605071962
:10017000E029E71500250195087501810205071999
:100180000029EF1500250195F07501810205081978
:10019000012905950575019102950175039101C02D
:1001A00005010902A1010901A10005091901290898
:1001B00015002501950875018102050109300931F5
:1001C0001581257F95027508810609381581257FDF
:1001D000950175088106050C0A38021581257F9561
:1001E0000175088106C0C00660FF0961A1010962AE
:1001F000150026FF00952075088102096315002669
:10020000FF00952075089102C005010906A10105AE
:100210000719E029E7150025019508750181029568
:1002200001750881010507190029FF150026FF0047
:100230009506750881000508190129051500250195
:10024000950575019102950175039101C00902742C
:1002500000040100A0FA09040000010301010009E3
:100260002111010001224400070581030800010952
:1002700004010002030000000921110100012222F3
:10028000000705830320000107050403200001097E
:1002900004020001030102000921110100012247AB
:1002A00000070582030800010904030001030000A0
:1002B00000092111010001226D00070585032000BE
:1002C0000112010002000000089732754901000187
:1002D00002000122034500720067006F0044006FB6
:1002E000007800200045005A002000530068006993
:1002F000006E006500000028035A005300410020F2
:100300000054006500630068006E006F006C006FB1
:10031000006700790020004C00610062007300005B
:10032000000403090429002B00E000E100A90000FB
:10033000001E00140004001D00AA00E2001F001AA5
:100340000016001B00BD00E30020000800070006A7
:1003500000BE002C00210015000900190090004D7E
:1003600000220017000A0005000000C1522D002FD6
:10037000000000005700004A002E0030000000A8D6
:100380000000004B0023001C000B0011000000C106
:1003900052240018000D00100091004E0025000CA2
:1003A000000E003600037E2A00260012000F0037E0
:1003B00000047E280027001300330038000100E607
:1003C00000350031003400E500C152000029000171
:1003D0000001000100010000003A00D100CF00013F
:1003E00000010001003B00CD00CE00D30001000160
:1003F000003C00D200D0000100010001003D00D906
:1004000000DA000100010001003E0001003500019A
:100410000000000100440001000000010000000194
:10042000004500010000000100000001003F000144
:1004300000500001000000010040000100510001D7
:1004400000010001004100490052000100010001CB
:1004500000420046004F000100010001004300017E
:100460000001000100010001000100010001000184
:1004700000010000002223252628292A2C2D2F30B8
:1004800032333536383A3B3D3E4042434547494A90
:100490004C4E5051535557595A5C5E6062646668C1
:1004A000696B6D6F71737577797B7D7F81838587CC
:1004B000898A8C8E90929496989A9C9E9FA1A3A5CF
:1004C000A7A8AAACAEAFB1B3B4B6B8B9BBBCBEBFF7
:1004D000C1C2C3C5C6C7C9CACBCCCDCED0D1D2D27A
:1004E000D3D4D5D6D7D7D8D9D9DADADBDBDBDCDC85
:1004F000DCDCDCDDDDDDDDDCDCDCDCDCDBDBDBDA3D
:10050000DAD9D9D8D7D7D6D5D4D3D2D2D1D0CECDA7
:10051000CCCBCAC9C7C6C5C3C2C1BFBEBCBBB9B8B4
:10052000B6B4B3B1AFAEACAAA8A7A5A3A19F9E9C39
:100530009A98969492908E8C8A89878583817F7D04
:100540007B79777573716F6D6B6968666462605EE5
:100550005C5A5957555351504E4C4A4947454342AE
:10056000403E3D3B3A3836353332302F2D2C2A2948
:1005700028262523220001010101010101010102B8
:100580000202020202020202030303030303030343
:10059000040404040404040505050505060606060E
:1005A00006070707070708080808090909090A0ACA
:1005B0000A0B0B0B0C0C0C0D0D0D0E0E0E0F0F0F6E
:1005C00010101111111212131314141515161617F9
:1005D00017181819191A1A1B1B1C1D1D1E1E1F2067
:1005E00020212222232424252626272829292A2BB4
:1005F0002C2D2D2E2F3031323233343536373839D9
:100600003A3B3C3D3E3F40414243444546474849D2
:100610004A4C4D4E4F50515354555658595A5B5DA4
:100620005E5F616264656668696B6C6D6F70727342
:100630007577787A7B7D7E8082838587888A8C8EA9
:100640008F91939596989A9C9EA0A2A3A5A7A9ABDB
:10065000ADAFB1B3B5B7BABCBEC0C2C4C6C9CBCDCD
:10066000CFD1D4D6D8DBDDDFE2E4E7E9EBEEF0F37F
:10067000F5F8FAFDFFFFAA7F554011241FBECFEF0A
:10068000DAE0DEBFCDBF11E0A0E0B1E0E0EEF6E5DC
:1006900002C005900D92A83BB107D9F723E0A8EB63
:1006A000B1E001C01D92A039B207E1F70E945C03DE
:1006B0000C946E2B0C940000A6E4B0E0E2E6F3E0AC
:1006C0000C946F2885B7806885BF85B7806885BF23
:1006D00084B7877F84BF0FB6F894A8958091600097
:1006E000886180936000109260000FBE90E080E807
:1006F0000FB6F89480936100909361000FBE84EF71
:100700009DE09093B9018093B8010E941D0C0E9456
:100710003C0C8091E20084608093E20078948091A8
:1007200025028823A1F01091E9001F709091EC0040
:10073000892F817090FD80E8182B1092E90080913C
:10074000E80083FD0E9407091F701093E90082E012
:1007500084BD93E095BD9AEF97BD80936E000E9493
:10076000D41A90E090932801809327010E940F1CD7
:100770000E94551CE0ECF1E0A2EDB1E011921D9257
:1007800021E0EE3CF207D1F78EE090E00E94332AA0
:100790008093BA019093BB01FC010E9611928E17C3
:1007A0009F07E1F789EA8093800089E080938100C8
:1007B00024982C983F988AB18F7C8AB96E98479A72
:1007C0008BB180638BB9769A8FE090E00E94062906
:1007D0006093BC017093BD018093BE019093BF01F3
:1007E00067708FEF689FB0011124759567957595B7
:1007F00067957727709389006093880070938B00CA
:1008000060938A0070938D0060938C000E944B1B54
:1008100080E090E00E940C29863E9E4F11F00E94DD
:100820003B1082E090E00E94FE288093E00184E08B
:1008300090E00E940C299093F3018093F20183E0F1
:1008400090E00E94FE280E9413258091CF010E9413
:10085000371A8091CE01811176C080E090E00E942D
:100860000C29863E9E4F21F00E943B100E94C5211C
:1008700088E090E00E9406294B015C0184E290E050
:100880000E94FE28282F30E040E050E060E070E059
:1008900080E090E000E20E94FC29282939294A29B9
:1008A0005B292093400330934103409342035093CC
:1008B00043036093440370934503809346039093EE
:1008C00047032E7F89F50E94C52188E090E00E94B1
:1008D00006296B017C0184E290E00E94FE28282F0B
:1008E00030E040E050E060E070E080E090E00E94A6
:1008F000FC29B22FA32FF42FE52F5B01970186016E
:10090000BC29A12BF22BE32BB0934003A09341030E
:10091000F0934203E093430360934403B092450392
:1009200080934603909347030E94452110926A03E7
:100930008091400380FF04C060E086950E94AA2356
:1009400081E08093CE018091CF010E94371A8AE026
:1009500091E090934E0380934D0388E1E82EF12CB3
:1009600080912502853009F07EC000E4D02ECC2491
:10097000C39400E112E180912502853009F05CC04A
:1009800080912502843009F434C010926A0380916A
:10099000D10181110DC0C092D10180914003982FE7
:1009A00091709093D0018E7F809340030E94A1208C
:1009B000109251030FB6F894A895E09260000FBE14
:1009C000D092600083B7817F846083BF83B78160EA
:1009D00083BF7894889583B78E7F83BF0FB6F894D2
:1009E000A8958091600088618093600010926000FB
:1009F0000FBE80911902882309F4BDCF0E94D41A3A
:100A000090E090932801809327010E940F1C0E9480
:100A1000551CE2EDF1E0119221E0E03EF207D9F73A
:100A20000E943213E2EDF1E081918111E2C281E096
:100A3000E03EF807C9F79FCF1092F5010E943925D3
:100A40000E9420201092D1018091D001882349F08A
:100A50008091400381608093400360E086950E940E
:100A6000AA230E9494230E94321311EEC12E11E09A
:100A7000D12E2FEE31E0A2EDB1E0F60191918D91F2
:100A800089272E173F0719F08823C1F305C081116C
:100A900003C00E940E1454C0B2ED8B2EB1E09B2E09
:100AA00010E0F40171904F01F601A080A724B1F18C
:100AB00000E0BB24B394662463948A2D8B2141F11A
:100AC00022960FAF229723961FAF23970E94441FB1
:100AD00025969FAF8EAF259726966FAE269791E00D
:100AE000872D8B2109F490E027969FAF27972296B8
:100AF0004FAD229723965FAD239724966FAD249731
:100B000025967FAD259726968FAD26970E940619CC
:100B10000F5FBB0C063089F6F60170821F5FFFEF96
:100B2000CF1ADF0A1E3009F0BCCF8FB7F89440917E
:100B300052035091530360915403709155038FBF3A
:100B40008091490390914A03892BE9F08091EF014C
:100B50009091F0010E94351F893C9105A0F0809191
:100B6000490390914A039927A4E0880F991FAA95F9
:100B7000E1F7FC01E95EFE4F208122FD04C08E5E9C
:100B80009E4F0E944C2080916A03882309F4A5C0DF
:100B900080916903E0914003E695E81BE0936503CB
:100BA000823059F4F0E0E15DFE4FE4910E2F10E049
:100BB000F7EDCF2EFEE1DF2E6BC0863059F4F0E06A
:100BC000E45DFE4FE4910E2F10E0E7ECCE2EEEE157
:100BD000DE2E5EC0893061F4E695F0E0E75DFE4F01
:100BE000E4910E2F10E073E6C72E7EE1D72E50C0A1
:100BF0008F3061F4E695F0E0EA5DFE4FE4910E2F50
:100C000010E06DEFC62E6DE1D62E42C0853159F44D
:100C1000F0E0ED5DFE4FE4910E2F10E05DEAC52E91
:100C20005DE1D52E35C08831F9F0833249F4E1E237
:100C3000F1E0059114914DE8C42E4EE1D42E28C068
:100C40008432C9F08532F1F48E2F63E00E94B92915
:100C5000E92FF0E0E25EFE4FE4910E2F10E036E661
:100C6000C32E3CE1D32E14C008E210E022E3C22ED2
:100C70002DE1D22E0DC004EF11E09AEFC92E9CE1B8
:100C8000D92E06C000ED17E085E6C82E8CE1D82EDF
:100C900080916603882361F0109266030E94441FCE
:100CA0009093640380936303109268031092670328
:100CB0000E94441FE0916303F09164038E1B9F0B1D
:100CC0008F3F9F4750F40E0F1F1F10936403009334
:100CD000630383E693E0F6010995B0905D03C0904D
:100CE0005E0310915F03D090600300916103109246
:100CF0005E0310925F031092600310926103C110B3
:100D000003C0112309F447C080915B0390915C03F9
:100D10000E94351F9C0190915603992309F481C1CB
:100D200025313105C0F19F3F19F09F5F9093560325
:100D3000CC2061F00E9463231C1414F491E001C0E4
:100D40009FEF899F802D112480935E03112361F012
:100D50000E946323111614F09FEF01C091E0899F58
:100D6000802D112480935F0380915E03882399F086
:100D7000A0905F03AA2079F00E948623811101C010
:100D800081E080935E038A2D0E948623811101C039
:100D900081E080935F03D11003C0002309F447C0B2
:100DA0008091590390915A030E94351F9C019091A4
:100DB0005703992309F439C125313105C0F19F3F0B
:100DC00019F09F5F90935703DD2061F00E94432349
:100DD0001D1414F491E001C09FEF899F802D112410
:100DE00080936003002361F00E944323101614F0E7
:100DF0009FEF01C091E0899F802D112480936103B2
:100E000080916003882399F0A0906103AA2079F073
:100E10000E948623811101C081E0809360038A2DA6
:100E20000E948623811101C081E08093610380913B
:100E30005D038B111AC080915E03882311F08C1121
:100E400014C080915F03882311F018130EC08091A5
:100E50006103882311F0081308C09091600399235F
:100E600031F081E0D91204C002C081E001C080E00D
:100E700080FD15C080915E0381110FC080915F03DA
:100E800081110BC080916003811107C081E09091B6
:100E90006103911103C080E001C081E080FD0E94E8
:100EA0000624B0925D03C0925E0310935F03D0925C
:100EB0006003009361030E9420209091F101891743
:100EC00069F08093F1018FB7F894409152035091EB
:100ED000530360915403709155038FBF8091250295
:100EE000843009F03DCD8093E9008091E80082FFD5
:100EF00037CD8091E80085FF22C00E946E0D8111E0
:100F00001CC000E210E06E01F1E2CF0ED11C08C05F
:100F10008091F100F60181936F010150110969F090
:100F20008091E80085FDF4CF8091E8008B77809375
:100F3000E8000E946E0D882399F391E001C090E0D3
:100F40008091E8008B778093E800992309F408CD1D
:100F500089A1853009F447C048F4813001F190F04F
:100F6000823009F4FDCC843029F13FC08730C9F1CB
:100F7000D0F18830C1F18E3FC1F5898393E09A8327
:100F80008B8313C019828CE0E4E3F1E0DE0112965A
:100F900001900D928A95E1F78EEF8D8706C08093C0
:100FA000230284E089838EEF8A83CE0101960E941A
:100FB000CB0DD6CC80912302882309F4D1CC8AA111
:100FC000811104C08BA10E94FA24CACC81E090E078
:100FD0000BA002C0880F991F0A94E2F70E94D22446
:100FE000BFCC85E003C084E001C08FEF0E94762073
:100FF000B7CC09BD19BD09B400FEFDCF8091D80062
:101000008F7D8093D8008091E00082608093E00023
:101010008091E00081FDFCCF1092F5010E943925FE
:10102000AACC232B09F081CEB6CE2139314008F06D
:10103000C8CEFDCE80911B0287FF11C08091E800D1
:1010400082FD05C0809125028111F8CF11C08091E9
:10105000E8008B770BC080912502882349F08091AE
:10106000E80080FFF8CF8091E8008E778093E80059
:101070000895982F973068F59093E900981739F004
:101080007091EC002091ED005091F00003C0242FEE
:10109000762F50E021FD02C09F5FECCF3091EB0036
:1010A0003E7F3093EB003091ED003D7F3093ED00BB
:1010B0003091EB0031603093EB007093EC002093A3
:1010C000ED005093F0002091EE0027FDE5CF80E089
:1010D00008958F708093E90081E0089520912102A6
:1010E000309122022617370748F06115710539F44F
:1010F0002091E8002E772093E80001C0B901FC019F
:1011000020E06115710579F1809125028823F1F1C4
:101110008530F1F18091E80083FD3CC08091E800CA
:1011200082FD2EC08091E80080FFEBCF2091F3007C
:101130008091F20090E0922B6115710551F088309A
:10114000910538F421912093F100615071090196C5
:10115000F3CF21E0089709F020E08091E8008E7736
:101160008093E800CECF2111CFCF0AC08091250215
:10117000882361F0853061F08091E80083FD0AC02A
:101180008091E80082FFF2CF80E0089582E0089528
:1011900083E0089581E0089543E050E0BC0185E0DC
:1011A0000E94EB1E089545E050E0BC0182E00E94E1
:1011B000EB1E0895CF93DF93EC0180912201811102
:1011C00005C048E050E0BE0181E00BC08091F20113
:1011D00087FF03C040E285E002C048E081E050E0C4
:1011E000BE010E94EB1E80E2FE01A8EFB1E001907B
:1011F0000D928A95E1F7DF91CF9108958EEA90E004
:101200000E94F1198EEA90E00E94BE190895AAE2A8
:10121000B0E0EDE0F9E00C947A28EBE1F2E083E253
:1012200092E02091F10021938E179F07D1F78091D2
:101230001C02833009F463C030F4813071F08230D5
:1012400009F49FC0B6C08A3009F48BC08B3009F412
:101250006EC0893009F0ADC020C080911B02813A78
:1012600009F0A7C08091E800877F8093E800809113
:101270001F0290912002892B21F460E288EF91E017
:1012800003C060E080E090E070E00E946E08809112
:10129000E8008B778093E8008CC080911B0281323C
:1012A00009F087C080911F0290912002009719F0E9
:1012B000039709F07EC08091E800877F8093E80063
:1012C0008091E80082FD05C0809125028111F8CF50
:1012D00070C02091F3008091F20090E0922B029771
:1012E00031F48091F100813011F0863021F4809149
:1012F000F1008093F7018091E8008B7756C08091D0
:101300001B02813A09F055C080911F029091200282
:10131000892B09F04EC08091E800877F8093E80018
:101320008091E80080FFFCCF8091220139C080913C
:101330001B028132F1F580911F0290912002892BCE
:10134000C1F58091E800877F8093E8000E941A0829
:1013500080911D02809322011092F5010E9439258F
:1013600028C080911B02813221F58091E800877F9F
:101370008093E8000E941A0880911E028093F60173
:1013800018C080911B02813AA1F48091E800877F08
:101390008093E8008091E80080FFFCCF8091F60107
:1013A0008093F1008091E8008E778093E8000E949E
:1013B0001A088091E80083FFE4C180911B0290919C
:1013C0001C02492F50E04A30510508F0DAC1FA01F9
:1013D000EA5AFF4F0C94E729803821F0823809F04F
:1013E000D0C108C08091180290911902992389F008
:1013F00082600FC080911F028F70873008F0C1C1DA
:101400008093E9008091EB0085FB882780F910929A
:10141000E9009091E800977F9093E8008093F100B5
:101420001092F10070C1282F2D7F09F0AAC18823E6
:1014300019F0823061F0A5C180911D02813009F060
:10144000A0C1933009F080E0809319022EC08091F2
:101450001D0281112AC080911F028F702FEF280F6B
:10146000263008F08EC18093E9002091EB0020FF28
:101470001CC0933021F48091EB00806214C09091E5
:10148000EB0090619093EB0021E030E0A90102C0F5
:10149000440F551F8A95E2F74093EA001092EA0044
:1014A0008091EB0088608093EB001092E9008091BE
:1014B000E800877F8093E8000E941A0862C18111CA
:1014C00060C110911D021F778091E3008078812B0D
:1014D0008093E3008091E800877F8093E8000E947A
:1014E0001A088091E80080FFFCCF8091E3008068BB
:1014F0008093E300111102C082E001C083E0809379
:1015000025023FC18058823008F03BC120911D0266
:1015100030911E022C3D53E0350779F583E08A8334
:101520008AE289834FB7F894DE01139620E03EE00B
:1015300051E2E32FF0E050935700E49120FF03C005
:10154000E295EF703F5FEF708E2F90E0EA3010F081
:10155000C79601C0C0968D939D932F5F243149F7A4
:101560004FBF8091E800877F8093E8006AE270E0D7
:10157000CE0101960E946E08B4C080911F02909126
:101580002002432F552743305105A9F068F441301C
:10159000510509F405C14230510509F0F2C084E754
:1015A00090E0EDE4F2E04BC04132510529F14232C6
:1015B000510589F1E6C0C901992781309105A1F053
:1015C00058F0029709F0DDC0E3EDF2E0E4918E2FD0
:1015D00090E0E3EDF2E030C0E1E2F3E0E4918E2F41
:1015E00090E0E1E2F3E028C0E7EFF2E0E4918E2F33
:1015F00090E0E7EFF2E020C08430910508F0C1C030
:10160000880F991FFC01E45BFE4F0190F081E02DF3
:1016100089E090E014C08430910508F0B2C0FC016C
:10162000EE0FFF1FEC5BFE4F0190F081E02DDC011F
:10163000A05CBE4F8C9190E0009709F4A2C020916D
:10164000E800277F2093E8002091210230912202B8
:101650002817390708F4C90140E0009789F1209163
:101660002502222309F43DC02530D9F12091E8005C
:1016700023FD37C02091E80022FD2FC02091E80013
:1016800020FFEBCF4091F3002091F20030E0342BAB
:10169000009759F02830310540F444914093F1000F
:1016A000319601972F5F3F4FF3CF41E0283031054E
:1016B00009F040E02091E8002E772093E800CDCF9C
:1016C0004111CDCF0AC080912502882351F0853089
:1016D00041F08091E80083FD04C08091E80082FF22
:1016E000F2CF8091E8008B778093E8004AC0803881
:1016F00009F047C08091E800877F8093E8008091DF
:101700001A028093F1008091E8008E77D3CE811188
:1017100038C080911D0290911E02992702978CF586
:101720008091E800877F8093E80010911D0210935C
:101730001A020E941A08111106C08091E30087FD69
:1017400002C081E001C084E08093250242E061ECA8
:1017500081E00E94390842E061EC82E00E94390891
:1017600042E261EC85E00E94390842E261EC83E0EC
:101770000E94390842E260EC84E00E9439088091BE
:1017800025028091E80083FF10C08091E800877FE8
:101790008093E8008091EB0080628093EB0005C0AD
:1017A00082E190E0E1ECF2E04ACFAA96E3E00C940B
:1017B00096281F920F920FB60F9211242F933F93EA
:1017C0004F935F936F937F938F939F93AF93BF9349
:1017D000CF93DF93EF93FF93C091E900CF70809197
:1017E000EC00D82FD17080FDD0E81092E9008091F4
:1017F000F000877F8093F00078940E940709109290
:10180000E9008091F00088608093F000CD2BCF70CC
:10181000C093E900FF91EF91DF91CF91BF91AF911C
:101820009F918F917F916F915F914F913F912F91F8
:101830000F900FBE0F901F901895E8EDF0E080819B
:101840008E7F80831092E2001092DA001092E10005
:10185000A0EEB0E08C9181608C9380818F77808343
:1018600019BCA7EDB0E08C918E7F8C9380818F7E28
:1018700080831092F4010895A0E0B0E0E2E4FCE07F
:101880000C947528C8EDD0E088818F7E8883E7EDC1
:10189000F0E080818160808384E082BF81E080937A
:1018A000F40188818E7F888302EE10E0F8011082B7
:1018B0001092DA0081EEC82ED12CF60110828881B8
:1018C0008F77888388818068888388818F7D8883EB
:1018D00019BC1092250210921A021092190210924D
:1018E000180290EEE92EF12CF70180818B7F808326
:1018F00088818160888342E060E080E00E9439084E
:10190000F60180818E7F8083F801808181608083F1
:10191000808188608083F70180818E7F80838881C9
:1019200080618883CDB7DEB7E8E00C9491281F92E0
:101930000F920FB60F9211242F933F934F935F9303
:101940006F937F938F939F93AF93BF93EF93FF9387
:101950008091E10082FF09C08091E20082FF05C012
:101960008091E1008B7F8093E1008091DA0080FF1D
:101970002AC08091D80080FF26C08091DA008E7F37
:101980008093DA008091D90080FF18C080E189BD82
:1019900082E189BD09B400FEFDCF81E0809325027C
:1019A0008091F40181110FC00E941D0C0E943C0C1B
:1019B0008091E20084608093E20005C019BC10921F
:1019C00025021092F4018091E10080FF17C0809100
:1019D000E20080FF13C08091E2008E7F8093E200DE
:1019E0008091E20080618093E2008091D800806263
:1019F0008093D80019BC85E0809325028091E10096
:101A000084FF30C08091E20084FF2CC080E189BD5A
:101A100082E189BD09B400FEFDCF8091D8008F7DA1
:101A20008093D8008091E1008F7E8093E1008091C7
:101A3000E2008F7E8093E2008091E20081608093DB
:101A4000E20080911A02882311F084E007C080919F
:101A5000E30087FD02C081E001C083E0809325029E
:101A6000809125028091E10083FF27C08091E200F0
:101A700083FF23C08091E100877F8093E10082E0B3
:101A80008093250210921A028091E1008E7F80934C
:101A9000E1008091E2008E7F8093E2008091E2007D
:101AA00080618093E20042E060E080E00E943908BB
:101AB0008091F00088608093F000FF91EF91BF91DA
:101AC000AF919F918F917F916F915F914F913F91D6
:101AD0002F910F900FBE0F901F9018952091E4004A
:101AE0003091E50095E64091EC00842F817040FF35
:101AF00023C08091E80080FD1DC0809125028823CD
:101B000099F0853099F08091EB0085FD11C04091EE
:101B1000E4005091E5002417350729F3915011F0A6
:101B20009A01E1CF84E0089582E0089583E008956A
:101B300081E0089580E008954091E80042FFDDCF04
:101B40000895EF92FF920F931F93CF93DF937C0141
:101B50008B010E946E0D811119C0E701011511055D
:101B6000A1F08091E80085FD0AC08091E8008E77A1
:101B70008093E8000E946E0D882381F307C089914D
:101B80008093F10001501109E9CF80E0CDB7DEB7B5
:101B9000E6E00C949328CF9320912502243011F590
:101BA000C091E900CF703091EC00232F217030FDFF
:101BB00020E8C22B23E02093E9002091E80020FFD9
:101BC0000EC040E050E060E270E00E94A10D811183
:101BD000109223028091E8008E778093E800CF7006
:101BE000C093E900CF91089580E008959091F201AB
:101BF00092FF10C041E0282F2471243009F040E00A
:101C000031E0282F2871283009F030E0431711F017
:101C10002CE0822793FF10C041E0282F247124314B
:101C200009F040E031E0282F2871283109F030E038
:101C3000431711F02CE082273091F30130FF10C0E0
:101C400051E0282F2171213009F050E041E0282F88
:101C50002871283009F040E0541711F029E082275C
:101C600031FF10C041E0282F2171213109F040E0FF
:101C700031E0282F2871283109F030E0431711F0A6
:101C800029E0822794FD877E08958238910569F1C5
:101C9000B0F48133910509F475C048F48932910597
:101CA00009F467C08A32910509F471C0089585333B
:101CB000910509F459C089339105B9F00895833E1F
:101CC000910589F138F4803E9105D1F0823E91056D
:101CD00029F10895863E9105C9F1873E9105D9F114
:101CE000843E910509F06CC027C02091F20120FDCF
:101CF00057C021FD55C02091F30123FD5BC008951D
:101D00008091F20180FD48C08091F30180FF48C0BE
:101D10008091F20184FD46C083EE51C08091F201B2
:101D200082FF3CC0F5CF8091F20182FD37C08091E7
:101D3000F30180FD35C0ECCF8091F30181FF36C007
:101D40008091F20184FD2EC087EE39C08091F201AE
:101D500083FF2AC0F5CF8091F20183FD25C08091D9
:101D6000F30181FD23C0ECCF8091F20185FD22C0FB
:101D70001FC08091F20185FD1BC08091F30183FF9C
:101D800019C00AC08091F20186FD16C017C080916B
:101D9000F20186FD13C010C089E311C082EE0FC0AE
:101DA00080EE0DC080E00BC086EE09C084EE07C057
:101DB00085E305C089E203C08AE201C081E390E0C7
:101DC00008952091860290914D0257E02917A9F0BD
:101DD00030E0529FF001539FF00D1124E25BFD4F64
:101DE0007181761306C07081781303C075817413F6
:101DF00006C02F5F3F4F2770E9CF80E0089581E054
:101E000008957E30B0F46630A0F48230A0F494E5FA
:101E1000899FF001112486E0789FE00DF11D1124C7
:101E2000E60FF11DEE0FFF1FEB5DFC4F85919491C6
:101E3000089580E001C081E090E008951F93CF9362
:101E4000DF930E94450EEC01C11580E5D807E8F547
:101E5000C11590E4D90708F0A8C0C03ED10530F5FF
:101E6000CD3CD10508F094C0C83AD10578F4C53A04
:101E7000D10508F083C0C130D10509F47CC008F455
:101E8000F2C0C430D10508F0F1C0EDC0C33CD105AB
:101E900008F0E9C0C85AD0E0CC0FDD1FC95ADE4FA8
:101EA0000990D881C02DCE019464E1C0C11580E2B3
:101EB000D80708F0CBC0C11591E0D90708F06BC076
:101EC000C83ED10508F4D2C0CEC0C03682E5D807DE
:101ED00028F5C03492E5D90708F079C0C03282E510
:101EE000D80708F06CC0C11592E5D90708F481C085
:101EF0004C2F4695469580E2489FA0011124C3705F
:101F000021E030E0C90102C0880F991FCA95E2F7AD
:101F1000EA01C82BD92BCE019D68A9C0C03A82E541
:101F2000D807B8F48C2F8F71C03892E5D90708F024
:101F30007BC08695869590E2899F90011124C3709D
:101F400081E090E002C0880F991FCA95E2F79A6875
:101F500068C0C03C82E5D80708F46DC0C03E92E579
:101F6000D90708F080C0CF71DD27DC2FCC27CE0148
:101F7000806F906A7CC081E090E079C0C55AD0E063
:101F8000CC5ADE4F8881C82FD0E0CE0190646FC05C
:101F9000CE0190656CC08D2F0E94F60D182FCE01DA
:101FA00099270E94450E1F715CC0CE0199270E949F
:101FB000450ECC27DF70D06A8C2B9D2B58C0CF717B
:101FC000D0E0DC2FCC27CE01816F906A50C08C2FDF
:101FD0008F718695869590E2899F90011124C37038
:101FE00081E090E002C0880F991FCA95E2F79C68D3
:101FF00018C08C2F8F710E94F60D95E0D695C7956D
:102000009A95E1F7CF70D0E0DC2FCC27282F30E075
:1020100084FF05C084E0220F331F8A95E1F7D06961
:10202000CE01822B932B23C090E0D82FCC27CE015A
:10203000846F906A1CC08C2F8F710E94F60D8F7177
:1020400090E0D82FCC27CE01906211C08D2F8F71D8
:102050000E94F60D182FCE0199270E94450E1F7180
:102060009062912B04C080E090E001C0CE01DF912E
:10207000CF911F910895A8E0B0E0E1E4F0E10C9465
:102080007B2866EE7EEF80E090E00E94402960E0D1
:1020900082E090E00E94222960E083E090E00E94CC
:1020A00022291092A90260E074E184E090E00E948D
:1020B000402960E086E090E00E9422296FEF87E0EF
:1020C00090E00E94222940E050E0BA0188E090E0D0
:1020D0000E94342960E084E290E00E94222960E0BE
:1020E00087E190E00E94222960E08CE090E00E946D
:1020F000222960E08DE090E00E94222919821A8254
:102100001B821C821D821E821F82188648E050E0BE
:1021100068E170E0CE0101960E94122940E050E093
:10212000BA0180E290E00E9434291092BC01109222
:10213000BD011092BE011092BF0184E08093BC01EA
:102140004091BC015091BD016091BE017091BF01F1
:102150008FE090E00E94342940E050E0BA0183E132
:1021600090E00E9434292896E2E00C94972880950C
:102170009091480389238093480308958095909116
:10218000F50189238093F50108959091F5018091DF
:102190004803982B909326028091A8028823D9F0B7
:1021A000892B8093260280912201882331F080912F
:1021B000F20187FF02C08EE101C086E0E8E2F2E0B2
:1021C00090E0815028F021912223D9F39F5FF9CF2D
:1021D00091111092A80240E250E068E872E086E2B5
:1021E00092E00E94612B892B21F180E2E6E2F2E08D
:1021F000A8E8B2E001900D928A95E1F7E0914D03D5
:10220000F0914E033097A9F080912201882359F074
:102210008091F20187FF07C08091260280932702F8
:1022200086E0809326020280F381E02D86E292E030
:10223000099508959091870280958923809387025C
:10224000282F277069F4981759F09091F30192FFA5
:1022500007C08695869586950E94FA24109287027B
:1022600008959091F30192FB222720F9281779F025
:1022700080FB92F99093F3016091F2017091F30168
:1022800084E090E00E94402982E00E941A110895A3
:102290008091860290914D02891719F08F5F8770A7
:1022A000FBCF0895CF93DF9380914C0282958F707E
:1022B00009F04EC080914B02882309F449C08091F7
:1022C000860240914D025091470260914602C091B2
:1022D0004802D091490277E08417D1F190E0789FCD
:1022E000F001799FF00D1124DF01A25BBD4F149620
:1022F0002C911497222349F111962C9111972513B3
:1023000024C02C91261321C015962C9115972111CC
:102310001CC012962D913C9113972C1B3D0B283C11
:10232000310598F480914C028F70806180934C024B
:10233000EC5AFD4F80818F708061808386E492E04B
:102340000E9432140E94481103C001968770C4CFC6
:10235000DF91CF910895A4E1B0E0E1EBF1E10C94BD
:1023600071288C0186E0F801DE011F9601900D9224
:102370008A95E1F7F8018481E58096E4892E92E060
:10238000992E90914A02911120C0882309F463C1CB
:10239000EE2009F442C0C8010E941625F82E8823B9
:1023A000E1F187E0F801D40101900D928A95E1F7FF
:1023B00080914A02813031F4809146029091470227
:1023C0000E945C240E94521148C1F801D080C18053
:1023D000A280B380F0904B022091480230914902D4
:1023E000FF2009F4E7C0A501421B530B483C5105EF
:1023F00008F09DC0882309F430C180914C02282F39
:10240000207F90914702222361F09C1509F460C05F
:10241000C8010E941625811163C0C8010E943214B0
:102420001AC19C1113C0909146029D110FC0E1107A
:102430000DC08F70806180934C0286E492E00E9410
:10244000321480914C02F801868303C1E1103AC036
:1024500040E06C2D8D2D0E94E10E40E06C2D8D2D05
:102460000E94E10EE82E8111F4C0DF86C88A8F85B4
:1024700098890E945C24292F22952F70243020F403
:102480009F70223028F009C02A50223080F014C0FA
:10249000992349F0811107C013C0992321F0F80155
:1024A0009681907F69F0805E883030F409C0803F6B
:1024B00038F0815F833020F0C8010E943214EF2C85
:1024C000FE2CCBC080914C02816080934C02C1C035
:1024D000909146029D119CCFE1109ACFF80198C0CF
:1024E000EE2009F49ACF20914C02822F82958F70B2
:1024F00090E002978CF08091460290914702998774
:102500008887BB86AA8680914A028C871D862E8783
:10251000CE0108960E94321487E0F801A6E4B2E0EA
:1025200001900D928A95E1F70E94521194C090910A
:102530004C02292F207F51F486E492E00E9432144D
:1025400087E0F40111928A95E9F783C0882309F4A2
:1025500084C0809147028C110CC0809146028D117D
:1025600008C0E11006C0F8019683C8010E94321429
:102570006AC0C8010E941625882309F44ECFEE20B8
:1025800009F44BCF20914C02822F82958F7090E0FE
:10259000029714F280914602909147029A838983B0
:1025A000BC82AB8280914A028D831E822F83CE0132
:1025B0000196B0CFA21AB30AF8ECAF16B10408F036
:1025C00042C0882309F447C0FE2CEE2009F425CF31
:1025D000809147028C1129C0809146028D1125C03F
:1025E00090914C0290FD18C0892F82958F70282FF2
:1025F00030E02115310581F0F80196832F30310547
:1026000041F08F5F982F9295907F86818F70892BF4
:102610008683C8010E94321487E0F801A6E4B2E084
:1026200001900D928A95E1F718C0C8010E94162505
:10263000811172CF80914C02816080934C02C8015D
:102640000E9432140AC087E0F40111928A95E9F7DA
:1026500004C0F12C02C0FF24F3948F2D6496ECE0AB
:102660000C948D28A0E0B0E0E8E3F3E10C94752829
:102670008091270190912801892BB9F08091AC02BB
:102680008F5F8093AC02811110C00E94D41A90E039
:102690009093280180932701892B39F40E944B1BCA
:1026A00081E0809326010E94A12000EC11E07801D6
:1026B000D0E0C0E087E0C82ECC0E8C2F0E94BB1B60
:1026C0008C2D0E94BB1B8C2F0E941E1C8F73F70148
:1026D0009081891721F08083DD24D39401C0D12C0F
:1026E0008C2D0E941E1C8F73F7019781891719F09A
:1026F000878381E001C080E0D82ADD290E940F1C79
:10270000CF5FFFEFEF1AFF0AC730A1F61092B102B8
:10271000C091B002CC2309F47DC00E94441F2091D7
:10272000AE023091AF02AC01421B530B9A01909361
:10273000AF028093AE024F3F510509F018F4452BCC
:1027400019F102C02FEF30E01092B0021092AD02EA
:10275000E091BA01F091BB01AF01425F5F4F90E0A1
:1027600030E08081882341F0281718F010829C2FD8
:1027700003C0821B80833C2F3196E417F50789F74D
:102780003093B0029093AD02DD23B1F11092AD020F
:10279000E091BA01F091BB018091B1029091B00239
:1027A000A2EDB1E0AF01425F5F4F6EE1E801288129
:1027B0003C91321779F0308131110CC060832C9339
:1027C00098819227282F30E0292B81E0232B09F4D0
:1027D00080E091E0319611960F5F1F4FE417F507E7
:1027E00029F78093B1029093B0028091B102CDB7E6
:1027F000DEB7E8E00C94912881E09091AD02992336
:10280000A1F38111C3CF0E94441F9093AF02809324
:10281000AE02BCCFD111F7CF80E0EFCFA6E0B0E0A1
:10282000E4E1F4E10C9479280E94441F8C0180912A
:10283000AA029091AB020817190781F019821A8237
:102840000E94441F682F49815A81792F80E090E0CF
:102850000E9406191093AB020093AA022696E4E0A8
:102860000C949528A0E0B0E0E8E3F4E10C9474281F
:10287000FC012481222309F444C47C0161E00E940C
:10288000DB18EC01F7018581882309F432C48091BB
:10289000490390914A03009709F45EC0C817D9070D
:1028A00009F45AC0992734E0880F991F3A95E1F747
:1028B000FC01E95EFE4F2081246020838E5E9E4FE6
:1028C000FC01D183C0830E944C201092480361E038
:1028D000C7010E94DB18EC0181159E4709F040C03A
:1028E000F7018581882309F409C49091BC0181E036
:1028F000890F8770987F853020F4892B8093BC01E5
:1029000002C09093BC018091BC018770FFEF8F9F44
:10291000C001112495958795959587959927909352
:1029200089008093880090938B0080938A00909315
:102930008D0080938C004091BC015091BD0160914D
:10294000BE017091BF018FE090E00E943429809118
:10295000CF010E94371AD2C3C115FEE7DF0729F263
:10296000F7018581C230FEE7DF07F1F028F4C130BE
:102970004EE7D407E9F02FC0C3305EE7D50729F052
:10298000C4309EE7D90731F026C0882341F08FE993
:1029900092E007C0882319F081E292E002C080E053
:1029A00090E00E94D61F52C1882309F44FC10AC08B
:1029B000882309F44BC19091B20281E0892780936A
:1029C000B20244C181E004C08160809340038695D7
:1029D0000E94ED233BC19E0137552F3F310511F079
:1029E00008F059C06E01DD24960194E0220F331FD8
:1029F0009A95E1F789010E5E1E4FF901E95EFE4FDF
:102A00006F01908180FB90F99083F7018581882385
:102A100041F10E94441F9093F0018093EF01F8016F
:102A200082818F5F8283909148038091F501892B89
:102A300083838091A8028483468157816685778548
:102A4000C8010E942D20F601808181FF03C090E023
:102A500080E002C09C2F8D2F9093490380934A03FE
:102A60001AC0F8014485558566857785C8010E949E
:102A70002D20F601808181FF0EC0C8010E94332005
:102A80008091490390914A038C179D0721F410927D
:102A90004A0310924903F7018581811164C0809136
:102AA000F5018272FE01E052F847E531F10508F0C8
:102AB000DFC0E05AFF4F0C94E7298091400380FF6C
:102AC00083CF0E94B221C2C041EF53E26BEF73E2A9
:102AD0002CC04BEF53E261EF73E227C04FE253E2A9
:102AE00069E373E222C049E353E26FE273E21DC07F
:102AF00045E153E262E273E218C042E253E265E16B
:102B000073E213C04BEF52E268E073E20EC048E09C
:102B100053E26BEF72E209C04EE751E268E971E2FD
:102B200004C048E951E26EE771E20E949A208EC02B
:102B300065E082E015C068E086E012C06EE089E0E2
:102B40000FC064E18FE00CC067E185E109C088E156
:102B50003FCF62E289E104C083E23ACF6AE285E2D4
:102B60000E94872073C0C330FCE7DF0709F459C017
:102B700048F4C1154CE7D407A9F0C130DC4709F48B
:102B800056C076C0CB358CE7D80709F45BC0CC358E
:102B90009CE7D90709F44EC0CA35DC4709F068C084
:102BA00081E051C01092F5010E943925FFEF24E326
:102BB0004CE0F15020404040E1F700C00000F894A4
:102BC00081E08093E00080E28093D8001092C900F9
:102BD0008FE19EE40197F1F700C000001DBA10924A
:102BE00068001CBC10BE1FBA10927A0010926E00D2
:102BF00010926F0010927100109272001092C90032
:102C00001092BC0014B817B81AB81DB810BA1092B8
:102C1000BC0015B818B81BB81EB811BA0C94003F08
:102C200015C06FEF7FEF80E090E00E9440290E9486
:102C3000A6190CC08091F30182FB882780F991E0EE
:102C4000892701C080E00E94311112C08091870263
:102C5000877009F456C2F7018581882309F451C2AF
:102C60008091F30182FF4DC282E00E941A1149C295
:102C7000F7018581C081D181882349F0CE010E946E
:102C80002D24182F682FCE010E949D2404C0CE0150
:102C90000E946924182FBE01812F0E94010F0E94FB
:102CA0001E0FD82FC92FC82EF70115810681029556
:102CB0000F7080918702877001F11123F1F0892F45
:102CC000807F803469F080E28D0F8830B0F0892FEA
:102CD000807E803229F4F1E0FD1778F4002369F05A
:102CE0008091F30182FF09C082E00E941A11809155
:102CF00087028770DD24D3948111D12CBC2EB2942D
:102D00008FE0B8228B2D90E08C30910508F0CFC178
:102D1000FC01EB58FF4F0C94E7298C2F807FCF707C
:102D2000882311F0C295C07F1123B9F0CC2309F498
:102D3000ACC180E28D0F883010F0C11006C09091B8
:102D4000F501C92BC093F50105C090914803C92B2B
:102D5000C09348030E94C51098C18D2F0E94602621
:102D6000CC2309F4A4C1D05E8C2FD83068F1CC20DC
:102D700059F10E94B7102AC08C2F807FCF7080320B
:102D800011F0C295C07FCC2029F021E0C21609F4D1
:102D90004CC054C08091F30182FD1BC0112369F027
:102DA000CC2339F09091F501C92BC093F5010E9415
:102DB000C51080E00E94C4267AC180E00E9460268F
:102DC000CC2309F474C18C2F0E94BE100E94C51040
:102DD0006EC1112381F00023A9F1013009F067C110
:102DE0009091A8028C2F8923C81709F460C1C92BC0
:102DF000C093A8025CC101115AC18C2F0E94772593
:102E00008091A8029C2F982329F09C2F90958923CC
:102E10008093A8028091B3029C2F982309F447C1A4
:102E2000C0958C238093B30242C1112321F002305C
:102E300008F03DC107C001113AC115C0112331F09E
:102E4000011123C18C2F0E947E2531C1002359F02E
:102E5000D93309F029C14FEF57EE83E0415050407C
:102E60008040E1F71FC18C2F0E94772520C18C2F55
:102E700086958695837019F0813061F018C1112311
:102E800021F08D2F9C2F937002C080E090E00E9473
:102E9000FB1F13C1112321F08D2F9C2F937002C0B3
:102EA00080E090E00E94D61F08C1612F8D2F0E9404
:102EB000882503C18C2F8370A9F51111FCC04D2FFB
:102EC000429546954770440F440F8D2F8F7090E0C8
:102ED0009C01042E01C0220F0A94EAF7D4FF08C017
:102EE0008FE090E001C0880F4A95EAF7809501C015
:102EF00080E0C695C695C370C23069F088F49091A1
:102F0000A902C13019F0822B892302C0922B892B90
:102F10000E941325D0C0822B9091A9028927F8CF57
:102F2000822BF6CF112319F08C2F817001C086956A
:102F3000882309F4C0C04D2F429546954770440F31
:102F4000440F8D2F8F7090E09C01042E01C0220F42
:102F50000A94EAF7D4FF08C08FE090E001C0880F20
:102F60004A95EAF7809501C080E0C695C695C37082
:102F7000C23059F078F49091CF01C13019F0822B12
:102F8000892309C0922B892B06C0822B9091CF01F7
:102F9000892701C0822B0E94D2248DC0CF701123BB
:102FA00039F08C2F0E9407258D2F0E947E2583C02B
:102FB0008D2F0E9477258C2F0E94FA247CC08D2FA4
:102FC00092EFC91661F19C1538F0E0EFCE1659F07A
:102FD000F1EFCF16F9F055C023EFC21639F144EFE7
:102FE000C416A1F04EC0112369F0011160C0CF7169
:102FF00081E090E001C0880FCA95EAF79091CF0177
:1030000089271EC0023008F052C0F1CF8091F30131
:1030100082FD19C0112329F08C2F8F7126C0112336
:10302000D9F38C2F8F710E94FA2441C0112339F0FB
:10303000CF7181E001C0880FCA95EAF701C080E036
:103040000E94D22434C0112399F0CF718C2F0E949A
:1030500007258091F30182FF07C058E0C59FC0019A
:1030600011248360809387028C2F0E9407251FC044
:1030700081E00E941A110230D0F082E00E941A1101
:1030800016C0112321F0002339F28D2F93CE002397
:1030900041F2893349F48FEF97EEE3E0815090409D
:1030A000E040E1F700C000008D2F0E94602688EF0D
:1030B0008B0D843010F40E942020DD20A9F0809137
:1030C000870280FD11C0F701158286958695869549
:1030D0000E940725C7010E943214809187028695BD
:1030E000869586950E94FA2460E0C7010E94DB184D
:1030F00008C0C1152EE7D20709F032CCC0E0DEE7E8
:10310000CACCCDB7DEB7E9E00C9490289C013A9583
:1031100021153F4130F5BC0166277270AC01442790
:1031200054709C012227387094FF0FC090FF02C09A
:1031300080E101C080E0672B09F08062452B09F037
:103140008064232B79F080680895892F8170672B24
:1031500009F08260452B09F08460232B19F0886008
:10316000089580E00895CF93DF93EC018A81833046
:1031700031F40E94FE080E94FE080E94FE088A8127
:10318000843010F00E94FE08DF91CF910895982FAF
:1031900092959F7019F0892F24E001C020E0982FAC
:1031A0009695969511F02E5F892F982F969509F098
:1031B0002F5F822F0895A6E0B0E0E1EEF8E10C94D5
:1031C0007A2826E0FC01DE01119601900D922A95E5
:1031D000E1F7FC01258189819A81222359F0662338
:1031E00049F00E942D24182F682F89819A810E940E
:1031F0009D2403C00E946924182F69817A81812F40
:103200000E94010F2696E3E00C949628A4E3B0E018
:10321000ECE0F9E10C947A284FA758AB69AB7AAB94
:103220008BAB9CAB911110924803CE01889627E09E
:10323000DC011D922A95E9F726E0FE01BF96DC012C
:1032400001900D922A95E1F72CA52223C1F061E0AF
:103250000E94DB1880912302882389F08DA58111BB
:1032600002C087E001C086E0898388A58A8389A59A
:103270008B838EEF8C83CE0101960E94CB0D87E06D
:10328000FE01B896DE01919601900D928A95E1F7C4
:10329000CE0181960E94AB1181112CC087E0FE0106
:1032A000B196DE01119601900D928A95E1F76DA11C
:1032B000662301F120914D0230E0C901019687702B
:1032C00099274091860250E08417950761F16D833C
:1032D00097E0929FD001939FB00D1124A25BBD4F48
:1032E000FE01319601900D929A95E1F780934D027F
:1032F0000E94481117E08091860290914D02891733
:1033000009F1189FC0011124825B9D4F0E94AB11EF
:103310008823C1F08091860290E0019687709927FA
:1033200080938602E8CF1092F5010E943925109211
:103330004D0210928602E6E4F2E087E0DF011D9282
:103340008A95E9F7E496E3E00C9496281092F5014B
:103350000E9439252FEF84E39CE02150804090406B
:10336000E1F700C000009AE088E10FB6F894A89554
:10337000809360000FBE90936000FFCFCF93DF93E8
:10338000EC010E946026CE01805E9109089710F042
:10339000209731F4CE010E9486180E94772505C03F
:1033A000CE010E9486180E946625DF91CF91089574
:1033B0008FE39CE90197F1F700C000008091B5020E
:1033C000833029F0853031F0813041F403C08BEA3D
:1033D00090E002C08EEA90E00E94BE191092B50201
:1033E0000895CF93DF93EC01805E9109089710F068
:1033F000209731F4CE010E9486180E947E2505C0D8
:10340000CE010E9486180E946D258C2F0E94C42632
:10341000DF91CF910895FC019281913039F485813B
:1034200082FD12C080FF10C092E00EC0923039F4CD
:10343000858182FD06C080FD06C093E005C096E050
:1034400003C095E001C094E09093B502933029F059
:10345000953031F0913051F405C08BEA90E004C012
:103460000E94FE088EEA90E00E94F11908958F9262
:103470009F92AF92BF92CF92DF92EF92FF920F9303
:10348000CF93C82F0E94C71856985E9825982D98FC
:1034900026982E9827982F98482F50E0FA013197B8
:1034A000E730F105B0F4EF57FF4F0C94E729259A68
:1034B0002D9A11C0259A2D9A269A2E9A22C0259AC5
:1034C0002D9A04C0259A2D9A269A2E9A279A2F9AD9
:1034D00018C08130B1F48091B202811159C080913D
:1034E000400381608093400360E086950E94AA2398
:1034F00060E081E00E94AA2320E04FEF6FEF8CEBA9
:1035000042C08091B202811143C088E090E00E94E5
:1035100006294B015C0184E290E00E94FE28282FDE
:1035200030E040E050E060E070E080E090E000E2F9
:103530000E94FC29282939294A295B292093400324
:1035400030934103409342035093430360934403F9
:1035500070934503809346039093470320FF16C062
:10356000822F81608093400386950E94ED23809195
:10357000400386950E94ED2321E040914303609132
:103580004203809141030E947D2202C00E94B22129
:103590008C2FCF910F91FF90EF90DF90CF90BF9045
:1035A000AF909F908F90089580E290E090932801D3
:1035B000809327018091620381110EC00E948727AA
:1035C00081E0809362032FEF83ED90E321508040F0
:1035D0009040E1F700C0000060E570E080E40E94E8
:1035E0008D279093280180932701892B09F04EC0E5
:1035F00060E570E080E00E940028909328018093AD
:103600002701892B09F042C060E570E080E00E944C
:1036100000289093280180932701892BB9F560E554
:1036200070E08FE30E940028909328018093270187
:10363000892B61F50E94532860E570E080E40E94C8
:103640008D279093280180932701892BF9F460E559
:1036500070E08CE00E94002890932801809327015D
:10366000892BA1F460E570E080E00E94002890932F
:10367000280180932701892B49F460E570E08FE3EE
:103680000E94002890932801809327010E945328CC
:10369000809127010895CF93DF9356985E982598DF
:1036A0002D9826982E9827982F98C8E8D0E08FEF6D
:1036B00090E099838883AAE8B0E011969C938E935A
:1036C000ECE8F0E091838083259A2D9A2FEF80E734
:1036D00092E0215080409040E1F700C00000269A1F
:1036E0002E9A2FEF80E792E0215080409040E1F742
:1036F00000C00000279A2F9A2FEF80E792E0215018
:1037000080409040E1F700C0000025982D982FEFF1
:1037100080E792E0215080409040E1F700C0000037
:1037200026982E982FEF80E792E02150804090401D
:10373000E1F700C0000027982F988091BC018770A6
:103740002FEF829FC00111249595879595958795B8
:1037500099279983888311969C938E939183808374
:1037600056985E9825982D9826982E9827982F98E9
:10377000DF91CF910895CF93E82F873080F5809126
:10378000270190912801892B09F047C0CE2F60E5D1
:1037900070E080E40E948D27909328018093270198
:1037A000892BD1F460E570E082E10E9400289093BB
:1037B000280180932701892B79F481E090E001C0F2
:1037C000880FCA95EAF760E570E080950E940028AE
:1037D00090932801809327010E9453281EC090E0F7
:1037E000FC013797E730F105C0F4E857FF4F0C9420
:1037F000E729209A289811C0219A29980EC0229A68
:103800002A980BC0239A2B9808C0529A5A9805C040
:10381000539A5B9802C03E9A4698CF91089520989B
:1038200028982198299822982A9823982B9852987A
:103830005A9853985B983E9846980895CF9387304E
:1038400040F58091270190912801892B59F560E579
:1038500070E081E40E948D279093280180932701D6
:10386000892B11F0C0E011C080E590E00E942F2864
:1038700097FF05C09093280180932701F3CFC82FAD
:10388000C09510922801109227010E9453288C2F76
:103890000AC09FB18FB1807F869586959370892BE2
:1038A000809501C080E0CF9108958098889A819892
:1038B000899A84988C9A85988D9A86988E9A8798FA
:1038C0008F9A08958091F70108950895A0E0B0E0DF
:1038D000ECE6FCE10C947028FC018280748081E0AD
:1038E0008483E5E7F4E09490E4EFF4E0E491009160
:1038F00043030695015810E0000F111F012F1127F7
:10390000C5EFD2E029EBC22E22E0D22EAA24AA943F
:10391000B12CE919EE2EF12C22E0281530F080911F
:1039200041038883809142038983711003C01B8205
:103930001A824AC08B818823F9F081508B832FEF44
:10394000829FC00111246C8170E00E945728FB0106
:10395000FF27EB58FB4F8491E82FE9192FEFE29FE7
:10396000C0011124B7010E94572880914303689F2A
:10397000B00111247A8328C00E94EE28B5010E946C
:10398000D3298017910704F582E0881588F40E94F6
:10399000EE28B5010E94D32988830E94EE28209149
:1039A00042032695622F70E00E94D329280F2983B5
:1039B0001A8280914303843120F0893C18F088EC0E
:1039C00001C084E18C838B8396014A81698188815F
:1039D0000E94D821259624E0C20ED11C83E0C03479
:1039E000D80709F099CF0E94A120CDB7DEB7EDE04E
:1039F0000C948C28EF92FF920F931F93CF93DF9339
:103A00008C01C9EBD2E0E12CF12CF8018481F7E0C4
:103A1000EF16F1041CF4882339F002C0811104C0B0
:103A20009E014091430302C09E0140E06091420329
:103A3000809141030E94D8218FEFE81AF80A24965A
:103A40009FE0E916F10409F70E94A120F8018481A2
:103A500090E00196817099278483CDB7DEB7E6E0C8
:103A60000C949328A0E0B0E0E8E3FDE10C94712809
:103A7000EC014C81042F10E09801D8010E94AA2982
:103A80009B01AC010E9475296B017C01E0E2F0E032
:103A9000E01BF10BA5E5B0E09B01AC010E9475298C
:103AA0004B015C019F01DF010E94ED299B01AC01EC
:103AB0000E9480299B01AC012C0D3D1D4E1D5F1DF8
:103AC000C501B4010E948829822FF22E99E2921733
:103AD00028F093E0299F900111240DC025E530E0E6
:103AE000281B3109C901880F991F280F391F37FF7B
:103AF00002C02F5F3F4F35952795122F109599EBF8
:103B0000C92E92E0D92E00E085E5E82EEF1801FDE0
:103B100002C08E2D01C08F2D9601412F609142036E
:103B20000E94D8210F5F84E0C80ED11C0F3079F7B6
:103B30000E94A1208C81811102C091E003C08032DB
:103B400019F49FEF9093250190912501890F8C83A3
:103B5000CDB7DEB7ECE00C948D280F931F93CF9375
:103B6000DF93C9EBD2E0FE01118210821282138230
:103B7000349682E0E53FF807B9F700E010E0809165
:103B8000B702082E000C990B0817190794F08091C2
:103B90002401082E000C990B8017910754F09E0108
:103BA0004091430360914203809141030E94D821D8
:103BB00004C0198218821A821B820F5F1F4F24963D
:103BC0000F301105E1F60E94A12080912301909110
:103BD000B702980F9093B70220912401280F2093E9
:103BE0002401121614F49E301CF081958093230159
:103BF000DF91CF911F910F910895A0E0B0E0E3E035
:103C0000FEE10C947428FC01828180FF03C0DD2456
:103C1000DA9402C0DD24D39409EB12E0C0E0D0E0D6
:103C20002FE0B22EF801118210821282138294E0EA
:103C3000E92EF12CC12C8091B6028C0D80312CF034
:103C40006B2D0E94C529892F02C087FD815F082E38
:103C5000000C990BC817D90791F4809143038E9DEE
:103C6000A0018F9D500D1124559547955595479569
:103C7000980160914203809141030E94D821CD0CAC
:103C8000F1E0EF1AF108B9F621960C5F1F4FCF3023
:103C9000D10541F60E94A1208091B60291E0D9128F
:103CA00006C0811102C08EE007C0815005C090E0BF
:103CB0000196BE010E94D3298093B602CDB7DEB72C
:103CC000E9E00C949028EF92FF921F93CF93DF933B
:103CD000EC0189EBE82E82E0F82E10E08C81970150
:103CE0004091430360914203810F0E94D8211F5EDF
:103CF00084E0E80EF11C1F3F89F70E94A1209A8101
:103D00008C8190FF02C08F5F01C081508C83DF9156
:103D1000CF911F91FF90EF900895A4E0B0E0E3E908
:103D2000FEE10C9479288C018091B80281110AC0BF
:103D30009E012F5F3F4F4FEF6FEF0E94D8218A8186
:103D40008093B802F8018481813051F028F08230EC
:103D500061F44091B8020AC08091B80240E007C007
:103D60006091B80240E080E003C040E080E060E0A5
:103D70000E943321F801848190E0019663E070E0B5
:103D80000E94D32984832496E4E00C949528CF9351
:103D9000DF93EC01E0E4F3E0438162818C810E94D7
:103DA00065228C818F5F8C83DF91CF910895CF93B3
:103DB000DF93EC01EC81F0E0EB58FB4F4491E0E441
:103DC000F3E0628181810E9465228C818F5F8C8308
:103DD000DF91CF9108959B01909125029430F1F4E9
:103DE0008F708093E9008FEF9091E800815095FDEE
:103DF00006C095ED9A95F1F700008111F5CF8091FD
:103E0000E80085FF0BC0BA01C90140E050E00E9404
:103E1000A10D8091E8008E778093E8000895789452
:103E20001F920F920FB60F9211248F939F93AF930F
:103E3000BF938091520390915303A0915403B0918A
:103E400055030196A11DB11D809352039093530316
:103E5000A0935403B0935503BF91AF919F918F915D
:103E60000F900FBE0F901F9018959C014FB7F894BC
:103E70008091520390915303A0915403B091550344
:103E80004FBF821B930B08952FB7F8948091520374
:103E900090915303A0915403B09155032FBF0895FF
:103EA0001F920F920FB60F9211248F939F93AF938F
:103EB000BF9380915103811113C08091520390915F
:103EC0005303A0915403B09155034196A11DB11D18
:103ED0008093520390935303A0935403B0935503DC
:103EE000BF91AF919F918F910F900FBE0F901F9038
:103EF0001895209122012223C9F02091F20127FF79
:103F000015C0262F2695269526952E31C8F4FC013E
:103F1000E20FF11D677081E090E001C0880F6A95A3
:103F2000EAF780959281892382830895FC010696A1
:103F30002281621301C012823196E817F907C1F796
:103F40000895209122012223C1F02091F20127FF40
:103F500014C0262F2695269526952E3130F5FC0186
:103F6000E20FF11D677081E090E001C0880F6A9553
:103F7000EAF79281892B82830895FC0132962FEF14
:103F800030E04191641789F02F3F19F4411101C0CD
:103F9000232F3F5F3630A9F72F3F39F0FC01E20FA6
:103FA000F11D27FDFA95628308950895A3E0B0E01E
:103FB000ECEDFFE10C947B2820914F0330915003EE
:103FC00028173907A1F09093500380934F03E09195
:103FD0004D03F0914E03309751F024E029839B83E9
:103FE0008A830680F781E02DCE01019609952396FC
:103FF000E2E00C949728A3E0B0E0E1E0F0E20C945A
:104000007B2820914B0330914C0328173907A1F0EE
:1040100090934C0380934B03E0914D03F0914E033A
:10402000309751F023E029839B838A830680F781B0
:10403000E02DCE01019609952396E2E00C94972895
:10404000E0914D03F0914E03309729F00190F081FB
:10405000E02D0995089580E008954115510511F06E
:10406000FA0109950895CF93DF93EC014A855B85AA
:104070006E857F850E942D208B810E94B7108C81D8
:104080000E94BE100E94C51086E0FE0111928A9522
:10409000E9F7DF91CF910895CF93DF93EC018D8104
:1040A00081FD17C082608D83909148038B81892B9D
:1040B000809348039091F5018C81892B8093F501C1
:1040C0000E94C510488559856E857F85CE010E9466
:1040D0002D2010924A03109249038D8180FD03C068
:1040E000CE010E943320DF91CF910895A0E2B0E08D
:1040F000ECE7F0E20C947B289FEF99838A83CE0152
:1041000001960E94CB0DA096E2E00C949728909126
:10411000400390FF04C09695981748F003C08111A2
:1041200006C090E0961718F40E94FB2308950E94A1
:10413000ED230895882311F0FA0101C0FB010995D0
:104140000895EF92FF920F931F93CF93DF93809187
:10415000400380FF08C009EB12E085EFE82E82E003
:10416000F82EF8011BC0E9EBF2E085EF92E0118236
:1041700010821282138234968E179F07C1F7EBCFFD
:10418000381708F4832F8383381B3183281B20833F
:10419000981B92833496EE16FF0641F0928120819F
:1041A0003181892F291760F7822FEACF809162032E
:1041B000882381F18091270190912801892B51F565
:1041C00080912601882331F165E070E084E80E9447
:1041D0008D27892B19F0109226011AC0C9EBD2E065
:1041E00065E070E088810E94002865E070E08981C8
:1041F0000E94002865E070E08A810E94002865E046
:1042000070E08B810E9400282496EC16FD0641F791
:104210000E945328579A8BB18F779BB190682FB724
:10422000F894E016F10699F0F80131918F0148E019
:104230009BB9000000C037FF8BB9330F000000C0EE
:1042400000C000C08BB900C04A9591F7EACF2FBFDC
:104250008FE594E00197F1F700C00000CDB7DEB71D
:10426000E6E00C9493289091400390FF0DC0E9EB99
:10427000F2E08183608342831382349692E0E53FCB
:10428000F907B9F70E94A120089580914003282FD3
:10429000269530E02115310519F48170826005C042
:1042A0002B32310524F0817084658093400308959A
:1042B000A0E0B0E0EEE5F1E20C94712849015A016A
:1042C0006B017C010E9445218401A4016A2D7B2D94
:1042D00088E090E00E94342994014A2D5B2DB601BC
:1042E000C70100E20E94172A622F84E290E00E9438
:1042F0002229CDB7DEB7ECE00C948D2880914403E1
:10430000882319F081508093440320914003309119
:1043100041034091420350914303609144037091E3
:10432000450380914603909147030E9458210895C8
:1043300080914403833018F48F5F8093440320916D
:1043400040033091410340914203509143036091F7
:1043500044037091450380914603909147030E9466
:1043600058210895E0E4F3E020812E7F20833181FD
:104370004281538164817581868197810E94582191
:1043800010926A030E94A1200895E0E4F3E023E084
:10439000208311828FEF828383831482758130E0C2
:1043A0004FEF5FEF60E0868197810E94582108956A
:1043B000A0E0B0E0EEEDF1E20C947328E82EF62ECA
:1043C000E901E42FF0E0611106C0EB58FA4FE491E7
:1043D0004E2F2E2F71C0062F10E0EB58FA4F44914C
:1043E000F42FC42ED12C26E0829FC00111242FEF80
:1043F00030E0B9010E9457285BEA5603C001579F7D
:10440000900D11248E0D911D8E0D911D582F550F5D
:10441000580FD901A01BB10BAC9DC001AD9D900DF3
:10442000BC9D900D1124E92FF59ED0011124AB2FD6
:10443000BB277901EA1AFB0AEC9CD001ED9CB00D78
:10444000FC9CB00D11245901A51AB108A09E700161
:10445000A19EF00CB09EF00C1124EF2CFF242E191D
:104460003F092C9D80012D9D100D3C9D100D1124A8
:10447000212F6230710591F048F461157105E1F06A
:1044800061307105B9F4242F4B2F16C064307105CB
:1044900069F040F06630710579F00CC0242F492F87
:1044A000E12F0AC0492FEF2F2B2F06C0292FE42F11
:1044B000412F02C0292FEB2F49832883EA831B82D7
:1044C000CDB7DEB7EAE00C948F28A4E0B0E0EBE6CD
:1044D000F2E20C947B289091400390FF0AC09E0169
:1044E0002F5F3F4F0E94D8214B8169818A810E94B2
:1044F00033212496E2E00C949728A4E0B0E0E3E8AE
:10450000F2E20C946E28F82E762EE42E622E909114
:10451000400390FF6CC0E92FE695AE2FB0E0A357A3
:10452000BE4F8C91809369039E7F923061F49E010F
:104530002F5F3F4F8F2D0E94D8214B8169818A8147
:104540000E9433213DC0823019F4E090430338C00B
:10455000863019F4F090410333C08930D9F38931A2
:1045600079F5E9518E2F8170582EE695F0E0EB58E1
:10457000F94FE4910E2F10E089EBC82E82E0D82E7F
:10458000A12CB12C9FE0892E912CC501B4010E9471
:1045900057288F2D511002C0860F01C0861B96012F
:1045A0004E2D672D0E94D821A00EB11E84E0C80EAA
:1045B000D11C85EFC81682E0D80639F70E94A120E9
:1045C000F092410370924203E0924303662079F037
:1045D0002091400360914403709145033F2D472D86
:1045E0005E2D80914603909147030E9458212496A6
:1045F000EFE00C948A28E0E4F3E043812CE0421BD6
:1046000008F440E021E0628181810E947D220895CA
:10461000E0E4F3E043812CE0420F08F44FEF21E0A7
:10462000628181810E947D220895E0E4F3E062814D
:1046300021E1621B08F460E021E0438181810E9456
:104640007D220895E0E4F3E0628121E1620F08F445
:104650006FEF21E0438181810E947D220895E0E493
:10466000F3E0818121E0438162818C500E947D22B0
:104670000895E0E4F3E0818121E043816281845F79
:104680000E947D2208958091580380FD18C081FD0D
:1046900014C082FD16C080915703882381F08C33AB
:1046A00080F427E0829FC00111246CE370E00E9437
:1046B000D329862F672B19F005C083E0089581E088
:1046C000089587E008958091580380FD17C081FD0B
:1046D00017C082FD19C080915603882399F08C334E
:1046E00098F428E3829FC00111246CE370E00E94DB
:1046F000D329862F672B49F481E008958EE0089531
:104700008CE1089588E0089588E30895282F35EB1B
:104710002303C001112497FF03C08058910902C0F0
:1047200080589F4F892F089560914003669570E0EF
:104730004BE050E089E291E00E94542B892B19F460
:1047400081E080936A030E94441F909364038093E6
:10475000630308959091400390FF3EC091708111D2
:1047600002C0926006C08B3210F0946502C0880FC0
:10477000982B90934003662391F020914003309151
:10478000410340914203509143036091440370916F
:10479000450380914603909147030E945821609100
:1047A0004003669570E04BE050E089E291E00E94A2
:1047B000542B892B19F010926A0302C00E94942393
:1047C00081E08093660320E04091430360914203BF
:1047D000809141030E947D22089561E00E94AA23F6
:1047E0000895809140038695815009F48AE261E042
:1047F0000E94AA2308958091400386958F5F8B3293
:1048000008F081E061E00E94AA2308950E94441FFD
:1048100020915E03211104C020915F03222321F027
:1048200090935C0380935B0320916003211104C08B
:1048300020916103222321F090935A03809359031E
:10484000E0914D03F0914E03309731F00480F581F3
:10485000E02D8DE593E009950895CF92DF92FF92C8
:104860000F931F93CF93DF936C010091CF01809141
:10487000A902082BC7E0D0E010E0C8010C2E02C04E
:10488000959587950A94E2F780FD04C02197A8F7D3
:10489000F12C09C0FC2EB6018C2F0E94010F0E9442
:1048A0001E0F019799F38F2DDF91CF911F910F91DB
:1048B000FF90DF90CF900895CF93DF93EC010E949B
:1048C0002D24BE010E94010F0E941E0FDF91CF9187
:1048D0000895292F9E3078F5863068F590E036E00F
:1048E000239F800D911D1124682F677023E09695FA
:1048F00087952A95E1F7FC01EE0FFF1FE80FF91FDE
:10490000E559FC4F40E050E080E0219130E0062E78
:1049100002C0369527950A94E2F721703327042EBA
:1049200001C0220F0A94EAF7822B4F5F5F4F43309A
:10493000510559F7089580E00895292F9E3088F594
:10494000863078F590E036E0239F800D911D11248C
:10495000282F277051E001C0550F2A95EAF723E070
:10496000969587952A95E1F7FC01EE0FFF1FE80F5A
:10497000F91FE559FC4F20E030E070E04081CB01A9
:10498000022E02C0969587950A94E2F78170819570
:1049900084278523842781932F5F3F4F2330310560
:1049A00069F70895A0E2B0E0E8EDF4E20C947A280B
:1049B0000E94371A182F809123028823A9F02FEF25
:1049C00080E792E0215080409040E1F700C0000075
:1049D00085E08983812F0E94C7188A838EEF8B839D
:1049E000CE0101960E94CB0D1093CF01A096E3E07B
:1049F0000C94962821E030E001C0220F8A95EAF756
:104A000020958091CF0182230E94D224089521E035
:104A100030E001C0220F8A95EAF78091CF01822B06
:104A20000E94D22408958093A9020895FC01248154
:104A30002223D9F0808191810E945C2492959F70FD
:104A4000963079F010F4925001C09A50923068F488
:104A5000803F69F018F4883E40F409C0843F29F48F
:104A600006C0883E20F0813F11F080E0089581E08B
:104A7000089580912201882331F08091F20187FF0F
:104A800002C08EE101C086E0E8E2F2E0DF011D92A3
:104A90008A95E9F780E090E00E94FB1F80E090E0BB
:104AA0000E94D61F109248030E94C510EDE5F3E066
:104AB00085E0DF011D928A95E9F710925603109266
:104AC0005703109258030E9406240895882321F06A
:104AD0000E94B7100E94C5100895882339F0909164
:104AE0004803892B809348030E94C51008958823AA
:104AF00021F00E94BE100E94C5100895882339F04D
:104B00009091F501892B8093F5010E94C5100895BD
:104B1000662309F45CC08D3C21F40E9463238195D7
:104B200004C08E3C29F40E94632380935F03C5C0B8
:104B30008F3C21F40E946323819504C0803D29F4B9
:104B40000E94632380935E03B8C0893D19F40E94DC
:104B5000432305C08A3D31F40E944323819580930D
:104B60006003ABC08B3D21F40E944323819504C0B8
:104B70008C3D29F40E944323809361039EC09FE2F1
:104B8000980F983078F421E030E0A90102C0440F7A
:104B9000551F9A95E2F7CA0190915D03892B809386
:104BA0005D038BC08D3D21F48091580381600CC062
:104BB0008E3D21F480915803826006C08F3D09F03C
:104BC0007CC08091580384608093580376C08D3CEC
:104BD00039F490915F0397FF35C010925F0359C07D
:104BE0008E3C29F490915F031916BCF32BC0909171
:104BF0005E038F3C29F497FF25C010925E0349C0E5
:104C0000803D19F41916CCF31DC090916003893DC5
:104C100029F41916BCF4109260033BC08A3D19F4C4
:104C200097FF10C0F8CF8B3D39F49091610397FF47
:104C300009C0109261032DC08C3D21F49091610355
:104C40001916BCF39FE2980F983080F421E030E011
:104C5000A90102C0440F551F9A95E2F7CA01809539
:104C600090915D03892380935D0313C08D3D21F4F2
:104C7000809158038E7F0BC08E3D21F480915803A4
:104C80008D7F05C08F3D29F4809158038B7F8093E1
:104C9000580380915E03811106C080915F038111EA
:104CA00002C01092560380916003811106C080916A
:104CB0006103811102C0109257030E9406240895D7
:104CC000882309F460C0823869F40E94202081FFA3
:104CD0005AC069E386E292E00E94A11F0E94C510BB
:104CE00069E30EC0833899F40E94202080FF4BC0F6
:104CF00063E586E292E00E94A11F0E94C51063E571
:104D000086E292E00E94791F0E94C51008958438BF
:104D100069F40E94202082FF36C067E486E292E0B8
:104D20000E94A11F0E94C51067E4EACF9CEF980F74
:104D3000913A10F4682FE4CF90E2980F983050F435
:104D4000877091E001C0990F8A95EAF7892F0E9438
:104D5000BE10DACF9BE5980F933028F480E090E006
:104D60000E94FB1F089598E5980F9B3128F480E07E
:104D700090E00E94D61F089593E3980F933118F4A2
:104D800060E00E9488250895CF93882309F4BDC070
:104D9000C82F8238B1F40E94202081FDB6C069E39B
:104DA00086E292E00E94A11F0E94C5102FEF87EEBD
:104DB00093E0215080409040E1F700C0000069E39B
:104DC00017C08338E1F40E94202080FD9EC063E577
:104DD00086E292E00E94A11F0E94C5102FEF81EE93
:104DE00094E0215080409040E1F700C0000063E56E
:104DF00086E292E00E94791F0E94C51086C0843826
:104E0000B1F40E94202082FD80C067E486E292E037
:104E10000E94A11F0E94C5102FEF81EE94E0215047
:104E200080409040E1F700C0000067E4E1CF8CEFE4
:104E30008C0F813AB8F5809122018823E1F08091AE
:104E4000F20187FF18C0EC2FE695E695E695F0E0B5
:104E5000EA5DFD4F8281282F30E04C2F477081E0C2
:104E600090E002C0880F991F4A95E2F782239323AE
:104E7000892B59F411C0E8E2F2E08191C81729F0BA
:104E800022E0EE32F207C9F707C06C2F86E292E00B
:104E90000E94791F0E94C5106C2F86E292E00E944A
:104EA000A11FAACF80E28C0F883068F4C77081E020
:104EB00090E001C0880FCA95EAF79091F501892B1F
:104EC0008093F50199CFEBE5EC0FE33040F4F0E08F
:104ED000EC5AFE4F808190E00E94FB1F16C0E8E56F
:104EE000EC0FEB3150F4F0E0EE0FFF1FE95AFE4FEC
:104EF000808191810E94D61F08C083E38C0F83318B
:104F000020F461E08C2F0E948825CF9108951092A3
:104F1000B9008CE08093B8000895A0E0B0E0E3E928
:104F2000F7E20C947228B82EEB010E94441F6C012A
:104F3000C431D10558F0CF3F8FEFD80759F0CE01DB
:104F400064E170E00E9457287B0107C0EE24E394DF
:104F5000F12C03C025E0E22EF12C84E8A82E94EA7F
:104F6000992E1092BC009092BC000E94441F8C01AC
:104F70008091BC0087FD07C0C8010E94351FE8165C
:104F8000F906B0F729C08091B900887F883041F0D8
:104F90008091B900887F803119F00FEF1FEF1EC09C
:104FA000B092BB00A092BC000E94441F8C01809173
:104FB000BC0087FD07C0C8010E94351FE816F9062E
:104FC000B0F70AC08091B900887F883111F0803431
:104FD00021F700E010E00EC00EEF1FEFCF3F8FEF84
:104FE000D80709F4BECFC6010E94351FC817D907DC
:104FF00008F0B7CFC801CDB7DEB7EBE00C948E2830
:105000000F931F93CF93DF93EB018093BB0084E852
:105010008093BC000E94441F8C018091BC0087FDDE
:105020000DC0CF3F8FEFD807C1F3C8010E94351FD5
:10503000C817D90790F78EEF9FEF0CC02091B900E9
:10504000287F81E090E0283211F480E090E0919593
:1050500081959109DF91CF911F910F9108950F9341
:105060001F93CF93DF93EC0184E88093BC000E94F0
:10507000441F8C018091BC0087FD0DC0CF3F8FEF96
:10508000D807C1F3C8010E94351FC817D90790F788
:105090008EEF9FEF03C08091BB0090E0DF91CF9136
:1050A0001F910F91089584E98093BC000895AA1B75
:1050B000BB1B51E107C0AA1FBB1FA617B70710F003
:1050C000A61BB70B881F991F5A95A9F78095909535
:1050D000BC01CD0108952F923F924F925F926F9243
:1050E0007F928F929F92AF92BF92CF92DF92EF9278
:1050F000FF920F931F93CF93DF93CDB7DEB7CA1BF9
:10510000DB0B0FB6F894DEBF0FBECDBF09942A8823
:10511000398848885F846E847D848C849B84AA84CB
:10512000B984C884DF80EE80FD800C811B81AA8158
:10513000B981CE0FD11D0FB6F894DEBF0FBECDBF23
:10514000ED0108958F929F92AF92BF92CF92DF921E
:10515000EF92FF92CF93DF93EC01688179818A818E
:105160009B81611571058105910521F464E279ED5A
:105170008BE597E02DE133EF41E050E00E945629A6
:1051800049015A019B01AC01A7EAB1E40E947529CB
:105190006B017C01ACEEB4EFA50194010E94832960
:1051A000DC01CB018C0D9D1DAE1DBF1DB7FF03C0E3
:1051B0000197A109B04888839983AA83BB839F770D
:1051C000DF91CF91FF90EF90DF90CF90BF90AF90A5
:1051D0009F908F9008950E94A228089580E091E00A
:1051E0000E94A2280895A0E0B0E08093000190936F
:1051F0000101A0930201B09303010895F999FECF34
:1052000092BD81BDF89A992780B50895A6E1B0E0D6
:1052100044E050E00C944829A8E1B0E042E050E0BE
:105220000C944829DC01A40FB51F4150504048F0B0
:10523000CB01840F951F2E910E942329415050408D
:10524000D0F70895262FF999FECF92BD81BDF89A27
:10525000019700B4021639F01FBA20BD0FB6F894BA
:10526000FA9AF99A0FBE08950396272F0E942329D0
:105270000E942229252F0E942329242F0C942329C0
:105280000196272F0E9423290C942229DC01CB01AF
:10529000FC01F999FECF06C0F2BDE1BDF89A319646
:1052A00000B40D9241505040B8F70895052E97FB79
:1052B0001EF400940E946D2957FD07D00E94882992
:1052C00007FC03D04EF40C946D2950954095309511
:1052D00021953F4F4F4F5F4F089590958095709562
:1052E00061957F4F8F4F9F4F08950E94AA29A59FD8
:1052F000900DB49F900DA49F800D911D11240895D1
:10530000B7FF0C9475290E947529821B930B089591
:10531000A1E21A2EAA1BBB1BFD010DC0AA1FBB1FB9
:10532000EE1FFF1FA217B307E407F50720F0A21B2B
:10533000B30BE40BF50B661F771F881F991F1A9498
:1053400069F760957095809590959B01AC01BD01C2
:10535000CF010895A29FB001B39FC001A39F700D1C
:10536000811D1124911DB29F700D811D1124911D6D
:105370000895991B79E004C0991F961708F0961BB1
:10538000881F7A95C9F78095089587FB082E062611
:1053900087FD819567FD61950E94B9290EF491956D
:1053A00007FC8195089597FB072E16F4009407D00B
:1053B00077FD09D00E94572807FC05D03EF4909550
:1053C00081959F4F0895709561957F4F0895EE0FD9
:1053D000FF1F0590F491E02D09940E94AA29332320
:1053E00012F48A1B9B0B0C94F7290E94AA29B7FF81
:1053F0000895821B930B08950F93083090F0982F17
:10540000872F762F652F542F432F322F22270850B6
:10541000F4CF220F331F441F551F661F771F881FAD
:10542000991F0A95B2F70F91089597FB10F81694FB
:1054300000080F93083098F00850232F342F452F81
:10544000562F672F782F892F902DF4CF059497959D
:1054500087957795679557954795379527950A9539
:10546000AAF70F9108950F931F93CF93DF93823084
:10547000910510F482E090E0E0918E03F0918F03AB
:1054800020E030E0A0E0B0E0309719F14081518198
:105490000281138148175907C8F08417950769F4EA
:1054A000109731F012960C93129713961C9327C005
:1054B00000938E0310938F0322C02115310519F03C
:1054C0004217530718F49A01BD01EF01DF01F801FB
:1054D000DBCF21153105F9F0281B390B24303105BC
:1054E00080F48A819B816115710521F0FB01938312
:1054F000828304C090938F0380938E03FE013296C3
:1055000044C0FE01E20FF31F8193919322503109B1
:10551000398328833AC020918C0330918D03232B4B
:1055200041F4209106013091070130938D032093BF
:105530008C0320910401309105012115310541F4BE
:105540002DB73EB74091080150910901241B350B3E
:10555000E0918C03F0918D03E217F307A0F42E1B6A
:105560003F0B2817390778F0AC014E5F5F4F2417C7
:10557000350748F04E0F5F1F50938D0340938C0307
:105580008193919302C0E0E0F0E0CF01DF91CF91F1
:105590001F910F910895CF93DF93009709F481C075
:1055A000FC01329713821282A0918E03B0918F0377
:1055B000109781F420813181820F931F20918C03F9
:1055C00030918D032817390751F5F0938D03E0933F
:1055D0008C0367C0ED0120E030E0CE17DF0740F418
:1055E0004A815B819E0141155105F1F0EA01F5CF39
:1055F000D383C28340815181840F951FC817D90777
:1056000059F488819981840F951F02969183808334
:105610008A819B81938382832115310529F4F0933C
:105620008F03E0938E033DC0E901FB83EA83499138
:105630005991C40FD51FEC17FD0761F4808191814A
:10564000840F951F0296E901998388838281938153
:105650009B838A83E0E0F0E012968D919C911397F2
:10566000009719F0FD01DC01F7CF8D919C91119706
:105670009D012E5F3F4F820F931F20918C0330912D
:105680008D032817390769F4309729F410928F0396
:1056900010928E0302C013821282B0938D03A093E6
:1056A0008C03DF91CF910895FC014150504030F0C0
:1056B00001900616D1F73197CF01089588279927D1
:1056C0000895FB01DC0104C08D910190801921F443
:1056D00041505040C8F7881B990B0895F894FFCFAC
:1056E00001000000000090032000621CDA08D308CB
:1056F000CC08000000000000B3180B1AD8190000F5
:1057000000000101020101200001191A1B1C1D1ECD
:105710001F20212256476D72372F6C5042334700AD
:105720004422476D0902E701A00133015F027802BC
:105730009802B102818283E200E900EA00B500B676
:1057400000B700CD008301CC008A019201940121B1
:1057500002230224022502260227022A02B300B4F1
:10576000006F0070009F01CB019F02A002000102A8
:105770000202020606060909090909090F0F0F0F9F
:105780000F0F1515151819191919191919191919AA
:085790002324252525252525EC
:00000001FF
