:100000000C949C030C94B9030C94B9030C94B9039D
:100010000C94B9030C94B9030C94B9030C94B90370
:100020000C94B9030C94B9030C94FE180C9440186A
:100030000C94A0210C94B9030C94B9030C94B9034B
:100040000C94B9030C94B9030C94B9030C94B90340
:100050000C94B9030C945F210C94B9030C94B9036C
:100060000C94B9030C94B9030C94B9030C94B90320
:100070000C94B9030C94B9030C94B9030C94B90310
:100080000C94B9030C94B9030C94B9030C94B90300
:100090000C94B9030C94B9030C94B9030C94B903F0
:1000A0000C94B9030C94B9030C94B90376067C063E
:1000B0006A067006820688068E060E070E073D0742
:1000C0003D07B807D607D808D808DB074F086008EF
:1000D0006008970606090B09100915091A091F0976
:1000E000240929092E0933096B043A093D094009FD
:1000F0004309460949094B094E09500953167A1616
:1001000028187A162818C616E9162818DE17EE17CA
:10011000A61CAB1CB51CA91CAE1CB31CB11C491EF3
:100120004C1E4F1E521E551E581E5B1E0000000026
:1001300000000000000000000000000000000000BF
:1001400000000000000000000000000000000000AF
:100150007E0F00D4FFFFFFC7000000780000000002
:10016000000000002A2B2800000000000000000012
:100170000000000000000029000000002C1E3420B8
:10018000212224342627252E362D3738271E1F20DE
:100190002122232425263333362E37381F04050623
:1001A0000708090A0B0C0D0E0F1011121314151667
:1001B0001718191A1B1C1D2F3130232D3504050665
:1001C0000708090A0B0C0D0E0F1011121314151647
:1001D0001718191A1B1C1D2F3130354C1E0F050026
:1001E000047F3F1F643214643214783C1E1E140ACC
:1001F000052900350029211A7CA90000001E0014E1
:100200000004001D00AA00E2001F001A0016001BD7
:1002100000BD002B282000080007000600BE002CAF
:1002200000210015000900190028784D0022001750
:10023000000A0005000000C15200572D0000002FE9
:100240000000004A00A8002E000000300000004B13
:100250000023001C000B00110000003500240018D2
:10026000000D00100027784E0025000C000E00360F
:1002700000037E2822260012000F003700047E2A89
:100280004127001300330038000157C1524C0031A0
:100290000034001B7CC15200002900010001000154
:1002A00000010000003A00D100CF000100010072FF
:1002B0007C3B00CD00CE00D300010001003C00D209
:1002C00000D0000100010001003D00D900DA00016A
:1002D00000010001003E00010035000100000001A6
:1002E0000044000100000001000000010045000181
:1002F0000000000100000001003F0001005000016B
:100300000000000100400001005100010001000157
:100310000041004900520001000100010042004676
:10032000004F000100010001004300010001000135
:1003300000010001000100010001000100010000B6
:100340000005010980A101850319012AB7001501E3
:1003500026B700950175108100C0050C0901A101A7
:10036000850419012AA002150126A0029501751025
:100370008100C005010906A1018506050719E029CC
:10038000E715002501950875018102050719002967
:10039000EF1500250195F075018102050819012965
:1003A00005950575019102950175039101C005013F
:1003B0000902A1010901A100050919012908150077
:1003C0002501950875018102050109300931158162
:1003D000257F95027508810609381581257F9501CD
:1003E00075088106050C0A38021581257F9501756F
:1003F000088106C0C00660FF0961A10109621500FD
:1004000026FF009520750881020963150026FF006C
:10041000952075089102C005010906A1010507197B
:10042000E029E71500250195087501810295017500
:100430000881010507190029FF150026FF00950610
:100440007508810005081901290515002501950584
:1004500075019102950175039101C00902740004B0
:100460000100A0FA090400000103010100092111A3
:10047000010001224400070581030800010904016D
:1004800000020300000009211101000122220007DF
:10049000058303200001070504032000010904026D
:1004A0000001030102000921110100012247000798
:1004B000058203080001090403000103000000098C
:1004C0002111010001226D000705850320000112A2
:1004D0000100020000000897327549010001020086
:1004E0000122034500720067006F0044006F00782E
:1004F00000200045005A0020005300680069006E8B
:10050000006500000028035A0053004100200054F9
:10051000006500630068006E006F006C006F00678C
:1005200000790020004C00610062007300000004AC
:100530000309042223252628292A2C2D2F30323383
:100540003536383A3B3D3E4042434547494A4C4E9A
:100550005051535557595A5C5E6062646668696BC6
:100560006D6F71737577797B7D7F81838587898ACC
:100570008C8E90929496989A9C9E9FA1A3A5A7A8D2
:10058000AAACAEAFB1B3B4B6B8B9BBBCBEBFC1C202
:10059000C3C5C6C7C9CACBCCCDCED0D1D2D2D3D495
:1005A000D5D6D7D7D8D9D9DADADBDBDBDCDCDCDCB3
:1005B000DCDDDDDDDDDCDCDCDCDCDBDBDBDADAD981
:1005C000D9D8D7D7D6D5D4D3D2D2D1D0CECDCCCB03
:1005D000CAC9C7C6C5C3C2C1BFBEBCBBB9B8B6B421
:1005E000B3B1AFAEACAAA8A7A5A3A19F9E9C9A98B1
:1005F000969492908E8C8A89878583817F7D7B7982
:10060000777573716F6D6B6968666462605E5C5A62
:100610005957555351504E4C4A4947454342403E25
:100620003D3B3A3836353332302F2D2C2A292826B7
:100630002523220001010101010101010102020241
:10064000020202020202030303030303030304047E
:100650000404040404050505050506060606060748
:100660000707070708080808090909090A0A0A0B01
:100670000B0B0C0C0C0D0D0D0E0E0E0F0F0F1010A2
:100680001111111212131314141515161617171829
:100690001819191A1A1B1B1C1D1D1E1E1F20202194
:1006A0002222232424252626272829292A2B2C2DDB
:1006B0002D2E2F30313232333435363738393A3BFC
:1006C0003C3D3E3F404142434445464748494A4CF1
:1006D0004D4E4F50515354555658595A5B5D5E5FBD
:1006E000616264656668696B6C6D6F707273757753
:1006F000787A7B7D7E8082838587888A8C8E8F91B5
:10070000939596989A9C9EA0A2A3A5A7A9ABADAFDE
:10071000B1B3B5B7BABCBEC0C2C4C6C9CBCDCFD1C8
:10072000D4D6D8DBDDDFE2E4E7E9EBEEF0F3F5F871
:10073000FAFDFFFFAA7F554011241FBECFEFDAE07C
:10074000DEBFCDBF11E0A0E0B1E0E6E8FCE502C00D
:1007500005900D92AC3CB107D9F723E0ACECB1E0C9
:1007600001C01D92A13BB207E1F70E945A090C9407
:10077000412E0C940000A0E0B0E0E1ECF3E00C941A
:10078000402BFC012481222309F48FC57C0161E008
:100790000E94A31BEC01F7018581882309F42AC577
:1007A00080916A0390916B03009709F45EC0C817AB
:1007B000D90709F45AC0992764E0880F991F6A95F0
:1007C000E1F7FC01E75EFE4F2081246020838C5E10
:1007D0009E4FFC01D183C0830E949C22109269032A
:1007E00061E0C7010E94A31BEC0181159E4709F03F
:1007F00040C0F7018581882309F401C59091D90192
:1008000081E0890F8770987F853020F4892B809351
:10081000D90102C09093D9018091D9018770FFEF6F
:100820008F9FC00111249595879595958795992758
:10083000909389008093880090938B0080938A0026
:1008400090938D0080938C004091D9015091DA01F2
:100850006091DB017091DC018FE090E00E94072C39
:100860008091EC010E94861CCAC4C115FEE7DF0717
:1008700029F2F7018581C230FEE7DF07F1F028F4A5
:10088000C1303EE7D307E9F02FC0C3304EE7D407AD
:1008900029F0C4305EE7D50731F026C0882341F047
:1008A0008FE992E007C0882319F081E292E002C04C
:1008B00080E090E00E94262240C2882309F43DC2D5
:1008C0000AC0882309F439C29091CE0181E08927BA
:1008D0008093CE0132C281E004C0816080935E03C8
:1008E00086950E94AA2629C29E0137552F3F3105C1
:1008F00011F008F059C06E01DD24960144E0220F8A
:10090000331F4A95E1F789010C5E1E4FF901E75E3E
:10091000FE4F6F01908180FB90F99083F7018581F4
:10092000882341F10E94942190930D0280930C0240
:10093000F80182818F5F82839091690380919E028A
:10094000892B8383809191028483468157816685B8
:100950007785C8010E947D22F601808181FF03C056
:1009600090E080E002C09C2F8D2F90936A038093CB
:100970006B031AC0F8014485558566857785C801E3
:100980000E947D22F601808181FF0EC0C8010E9475
:10099000832280916A0390916B038C179D0721F449
:1009A00010926B0310926A03F7018581882309F482
:1009B0000DC1C137FCE7DF0709F4F8C0C2372CE7E7
:1009C000D20709F4F9C0C0373CE7D30709F0FEC0ED
:1009D000809038019090390180910A0190910B012B
:1009E0008816990639F48091D501803219F48FEC7C
:1009F00091E037C090920B0180920A0180E28093CF
:100A0000D501A12CB12C1092D40104ED11E0C0E06D
:100A1000D0E02AE0422E512C612C712CC501B4018A
:100A2000A30192010E945B2C605D603311F420975A
:100A300039F081149104A104B10419F460E201C0F9
:100A400060E3F80162938F01C501B401A301920133
:100A50000E945B2C49015A012196C530D105F1F65F
:100A6000C6CFEC01019628812032D9F39AE0892E75
:100A70002881222309F461C1213009F041C0898114
:100A8000813039F48E010E5F1F4F8A810E943B2A0C
:100A900008C0823041F48E010E5F1F4F8A810E9490
:100AA0007829E80181C0833039F48E010E5F1F4F31
:100AB0008A810E941429F5CF843011F0219674C0E8
:100AC0002A81229680E090E030E0205331092A30DC
:100AD000310558F4889EA001899E500D1124C9014A
:100AE000840F951F21962881EFCF009709F45CC0F1
:100AF000EFE9FFE03197F1F700C000000197F5CF73
:100B0000E22FF0E0E45AFE4F9490822F869586956E
:100B1000869590E0FC01E45BFE4FC4902770D12CD9
:100B2000022E02C0D594C7940A94E2F7F1E0CF22D6
:100B3000DD24FC01E45CFE4FA490B12C022E02C027
:100B4000B594A7940A94E2F731E0A322BB24FC01F8
:100B5000E45DFE4F049110E002C0159507952A95BB
:100B6000E2F701701127C114D10419F081EE0E943F
:100B70007829A114B10419F086EE0E947829892DF4
:100B80000E943B2AA114B10419F086EE0E94142998
:100B9000C114D10419F081EE0E9414290115110528
:100BA00019F08CE20E943B2A219662CF8091380195
:100BB00090913901059605C08091380190913901D5
:100BC00005979093390180933801B7C0AE01FE01BB
:100BD000E851FC47E730F10508F478C0882309F4B0
:100BE000BEC010926803C3304CE7D40709F459C063
:100BF00048F4C1158CE7D807A9F0C130DC4709F4E7
:100C000056C0B7C0CB35ECE7DE0709F45BC0CC3586
:100C1000FCE7DF0709F44EC0CA35DC4709F0A9C07C
:100C200081E051C010929E020E94ED273FEF44E305
:100C30005CE0315040405040E1F700C00000F894C3
:100C400081E08093E00080E28093D8001092C90098
:100C50008FE19EE40197F1F700C000001DBA1092E9
:100C600068001CBC10BE1FBA10927A0010926E0071
:100C700010926F0010927100109272001092C900D1
:100C80001092BC0014B817B81AB81DB810BA109258
:100C9000BC0015B818B81BB81EB811BA0C94003FA8
:100CA0004CC06FEF7FEF80E090E00E94132C0E9419
:100CB0006E1C43C080919C0282FB882780F991E0E2
:100CC000892701C080E00E94711153C0EA5AFF4F8A
:100CD0000C94BA2C06E221EE41EE6AE17CE723C0D7
:100CE00007E225EE45EE6BE17CE71DC006E221EE52
:100CF00040EE68E17CE717C007E225EE44EE69E1CB
:100D00007CE711C006E221EE42EE6CE17CE70BC00D
:100D100007E225EE46EE6DE17CE705C008E221E042
:100D200045EE6EE17CE7C7010E94C62206C08091B5
:100D30005E0380FFD2CD0E946F2480917002877085
:100D400009F4B3C2F7018581882309F4AEC280910A
:100D50009C0282FFAAC282E00E945A11A6C2809120
:100D60009E028272FA01E052F847E531F10508F47B
:100D700049C2F7018581C081D181882349F0CE0124
:100D80000E94EA26182F682FCE010E945A2704C01D
:100D9000CE010E942627182FBE01812F0E94410FED
:100DA0000E945E0FD82FC92FC82EF701158106812A
:100DB00002950F7080917002877001F11123F1F09C
:100DC000892F807F803469F080E28D0F8830B0F009
:100DD000892F807E803229F4F1E0FD1778F400231A
:100DE00069F080919C0282FF09C082E00E945A1142
:100DF000809170028770DD24D3948111D12CBC2E98
:100E0000B2948FE0B8228B2D90E08C30910508F0E1
:100E1000CFC1FC01E35AFF4F0C94BA2C8C2F807F7A
:100E2000CF70882311F0C295C07F1123B9F0CC2375
:100E300009F4ACC180E28D0F883010F0C11006C0FB
:100E400090919E02C92BC0939E0205C090916903A8
:100E5000C92BC09369030E94051198C18D2F0E9470
:100E60001429CC2309F4A4C1D05E8C2FD83068F1AA
:100E7000CC2059F10E94F7102AC08C2F807FCF70B0
:100E8000803211F0C295C07FCC2029F021E0C2163B
:100E900009F44CC054C080919C0282FD1BC01123F8
:100EA00069F0CC2339F090919E02C92BC0939E0229
:100EB0000E94051180E00E9478297AC180E00E949A
:100EC0001429CC2309F474C18C2F0E94FE100E94B7
:100ED00005116EC1112381F00023A9F1013009F041
:100EE00067C1909191028C2F8923C81709F460C1C2
:100EF000C92BC09391025CC101115AC18C2F0E9471
:100F00002B28809191029C2F982329F09C2F90955B
:100F10008923809391028091D6019C2F982309F414
:100F200047C1C0958C238093D60142C1112321F083
:100F3000023008F03DC107C001113AC115C01123AC
:100F400031F0011123C18C2F0E94322831C10023BE
:100F500059F0D93309F029C13FEF47EE53E0315042
:100F600040405040E1F71FC18C2F0E942B2820C128
:100F70008C2F86958695837019F0813061F018C1A9
:100F8000112321F08D2F9C2F937002C080E090E000
:100F90000E944B2213C1112321F08D2F9C2F93709F
:100FA00002C080E090E00E94262208C1612F8D2FB0
:100FB0000E943C2803C18C2F8370A9F51111FCC03D
:100FC0004D2F429546954770440F440F8D2F8F70DB
:100FD00090E09C01042E01C0220F0A94EAF7D4FF8E
:100FE00008C08FE090E001C0880F4A95EAF780952D
:100FF00001C080E0C695C695C370C23069F088F420
:1010000090919202C13019F0822B892302C0922B59
:10101000892B0E94C727D0C0822B909192028927EA
:10102000F8CF822BF6CF112319F08C2F817001C0DD
:101030008695882309F4C0C04D2F42954695477088
:10104000440F440F8D2F8F7090E09C01042E01C03F
:10105000220F0A94EAF7D4FF08C08FE090E001C0A5
:10106000880F4A95EAF7809501C080E0C695C6953D
:10107000C370C23059F078F49091EC01C13019F08E
:10108000822B892309C0922B892B06C0822B909139
:10109000EC01892701C0822B0E948F278DC0CF7061
:1010A000112339F08C2F0E94BB278D2F0E943228EC
:1010B00083C08D2F0E942B288C2F0E94AE277CC0CE
:1010C0008D2F92EFC91661F19C1538F0E0EFCE1626
:1010D00059F0F1EFCF16F9F055C023EFC21639F1F0
:1010E00034EFC316A1F04EC0112369F0011160C0A6
:1010F000CF7181E090E001C0880FCA95EAF7909126
:10110000EC0189271EC0023008F052C0F1CF809157
:101110009C0282FD19C0112329F08C2F8F7126C0EB
:101120001123D9F38C2F8F710E94AE2741C0112358
:1011300039F0CF7181E001C0880FCA95EAF701C08C
:1011400080E00E948F2734C0112399F0CF718C2F3B
:101150000E94BB2780919C0282FF07C048E0C49F89
:10116000C00111248360809370028C2F0E94BB27E2
:101170001FC081E00E945A110230D0F082E00E942C
:101180005A1116C0112321F0002339F28D2F93CE6E
:10119000002341F2893349F45FEF87EE93E0515029
:1011A00080409040E1F700C000008D2F0E9414297C
:1011B00088EF8B0D843010F40E947022DD20A9F09E
:1011C0008091700280FD11C0F70115828695869589
:1011D00086950E94BB27C7010E94BB0380917002C5
:1011E0008695869586950E94AE2760E0C7010E948D
:1011F000A31B5BC0C1152EE7D20709F03ACBC0E0B4
:10120000DEE7D2CBE759FF4F0C94BA2C4EEA56E2F8
:1012100068EB76E22CC048EB56E26EEA76E227C035
:101220004CEE55E266EF75E222C046EF55E26CEEF9
:1012300075E21DC042ED55E26FED75E218C04FED4D
:1012400055E262ED75E213C048EB55E265EC75E2DC
:101250000EC045EC55E268EB75E209C04BE354E281
:1012600065E574E204C045E554E26BE374E20E9474
:10127000572363CD65E082E015C068E086E012C0C8
:101280006EE089E00FC064E18FE00CC067E185E1AA
:1012900009C088E126CB62E289E104C083E221CB68
:1012A0006AE285E20E94442348CDCDB7DEB7E0E193
:1012B0000C945C2BA6E4B0E0E0E6F9E00C94422B41
:1012C00085B7806885BF85B7806885BF84B7877F0D
:1012D00084BF0FB6F894A8958091600088618093D0
:1012E0006000109260000FBE90E080E80FB6F894A6
:1012F00080936100909361000FBE84E39EE0909321
:10130000CD018093CC010E9484180E94A318809183
:10131000E20084608093E20078948091CF02882379
:10132000A1F01091E9001F709091EC00892F81705D
:1013300090FD80E8182B1092E9008091E80083FD71
:101340000E946E151F701093E90082E084BD93E047
:1013500095BD9AEF97BD80936E000E94241D90E08A
:1013600090933C0180933B010E945F1E0E94A51E4A
:10137000EDEDF1E0AFEEB1E011921D9221E0EB3E18
:10138000F207D1F78EE090E00E94062D8093D701FE
:101390009093D801FC010E9611928E179F07E1F7EA
:1013A00089EA8093800089E08093810024982C98BA
:1013B0003F988AB18F7C8AB96E98479A8BB18063C7
:1013C0008BB9769A8FE090E00E94D92B6093D90177
:1013D0007093DA018093DB019093DC0167708FEFEB
:1013E000689FB00111247595679575956795772766
:1013F000709389006093880070938B0060938A00DB
:1014000070938D0060938C000E949B1D80E090E0A3
:101410000E94DF2B863E9E4F11F00E947B1082E0DF
:1014200090E00E94D12B8093FD0184E090E00E9427
:10143000DF2B90939C0280939B0283E090E00E94BC
:10144000D12B0E94C7278091EC010E94861C8091BD
:10145000EB01811176C080E090E00E94DF2B863E98
:101460009E4F21F00E947B100E94822488E090E031
:101470000E94D92B4B015C0184E290E00E94D12BA9
:10148000282F30E040E050E060E070E080E090E045
:1014900000E20E94CF2C282939294A295B29209370
:1014A0005E0330935F034093600350936103609346
:1014B00062037093630380936403909365032E7FAC
:1014C00089F50E94822488E090E00E94D92B6B016C
:1014D0007C0184E290E00E94D12B282F30E040E094
:1014E00050E060E070E080E090E00E94CF2CB22FEE
:1014F000A32FF42FE52F5B0197018601BC29A12BB7
:10150000F22BE32BB0935E03A0935F03F093600391
:10151000E093610360936203B0926303809364037A
:10152000909365030E94022410928B0380915E03C6
:1015300080FF04C060E086950E94672681E080936A
:10154000EB018091EC010E94861C8CE091E090936D
:101550006F0380936E0388E1E82EF12C8091CF0217
:10156000853009F07EC000E4D02ECC24C39400E185
:1015700012E18091CF02853009F05CC08091CF02EA
:10158000843009F434C010928B038091EE018111F4
:101590000DC0C092EE0180915E03982F91709093E0
:1015A000ED018E7F80935E030E945E231092720392
:1015B0000FB6F894A895E09260000FBED09260003C
:1015C00083B7817F846083BF83B7816083BF789452
:1015D000889583B78E7F83BF0FB6F894A8958091C6
:1015E0006000886180936000109260000FBE80915F
:1015F000C202882309F4BDCF0E94241D90E090937D
:101600003C0180933B010E945F1E0E94A51EEFEEED
:10161000F1E0119221E0ED3FF207D9F70E948A1321
:10162000EFEEF1E081918111FEC281E0ED3FF8071C
:10163000C9F79FCF10929E020E94ED270E94702250
:101640001092EE018091ED01882349F080915E03B4
:10165000816080935E0360E086950E9467260E9409
:1016600051260E948A131EEFC12E11E0D12E2CE0CC
:1016700032E0AFEEB1E0F60191918D9189272E17FE
:101680003F0719F08823C1F305C0811103C00E94F0
:10169000661454C0BFEE8B2EB1E09B2E10E0F40117
:1016A00071904F01F601A080A724B1F100E0BB24A6
:1016B000B394662463948A2D8B2141F122960FAF57
:1016C000229723961FAF23970E94942125969FAFC0
:1016D0008EAF259726966FAE269791E0872D8B21AA
:1016E00009F490E027969FAF279722964FAD229757
:1016F00023965FAD239724966FAD249725967FADF3
:10170000259726968FAD26970E94CE1B0F5FBB0CA8
:10171000063089F6F60170821F5FFFEFCF1ADF0AED
:101720001E3009F0BCCF8FB7F894409173035091ED
:10173000740360917503709176038FBF80916A0383
:1017400090916B03892B09F180910C0290910D020D
:101750000E948521209138013091390128173907DD
:10176000A0F480916A0390916B039927A4E0880FFD
:10177000991FAA95E1F7FC01E75EFE4F208122FD4B
:1017800004C08C5E9E4F0E949C2280918B03882314
:1017900009F4A5C080918A03E0915E03E695E81BF9
:1017A000E0938603823059F4F0E0E351FE4FE49178
:1017B0000E2F10E0F7E2CF2EF1E2DF2E6BC0863065
:1017C00059F4F0E0E651FE4FE4910E2F10E0E7E10E
:1017D000CE2EE1E2DE2E5EC0893061F4E695F0E0C7
:1017E000E951FE4FE4910E2F10E073EBC72E70E22B
:1017F000D72E50C08F3061F4E695F0E0EC51FE4FEB
:10180000E4910E2F10E06DE4C62E60E2D62E42C0A9
:10181000853159F4F0E0EF51FE4FE4910E2F10E0C6
:101820005DEFC52E5FE1D52E35C08831F9F08332EA
:1018300049F4EFEDF1E0059114914DEDC42E40E235
:10184000D42E28C08432C9F08532F1F48E2F63E0A3
:101850000E948C2CE92FF0E0E452FE4FE4910E2F11
:1018600010E036EBC32E3EE1D32E14C008E210E0A8
:1018700022E8C22E2FE1D22E0DC004EF11E09AE42F
:10188000C92E9FE1D92E06C000ED17E085EBC82ECA
:101890008EE1D82E80918703882361F01092870310
:1018A0000E9494219093850380938403109289036E
:1018B000109288030E949421E0918403F0918503A3
:1018C0008E1B9F0B8F3F9F4750F40E0F1F1F1093CF
:1018D00085030093840384E893E0F6010995B090B2
:1018E0007E03C0907F0310918003D090810300910C
:1018F000820310927F031092800310928103109252
:101900008203C11003C0112309F447C080917C03F6
:1019100090917D030E9485219C01909177039923EA
:1019200009F499C125313105C0F19F3F19F09F5F3E
:1019300090937703CC2061F00E9420261C1414F4AD
:1019400091E001C09FEF899F802D112480937F0338
:10195000112361F00E942026111614F09FEF01C0A0
:1019600091E0899F802D11248093800380917F03D3
:10197000882399F0A0908003AA2079F00E94432642
:10198000811101C081E080937F038A2D0E9443264C
:10199000811101C081E080938003D11003C0002336
:1019A00009F447C080917A0390917B030E948521BE
:1019B0009C0190917803992309F451C12531310597
:1019C000C0F19F3F19F09F5F90937803DD2061F095
:1019D0000E9400261D1414F491E001C09FEF899F1E
:1019E000802D112480938103002361F00E94002642
:1019F000101614F09FEF01C091E0899F802D1124F3
:101A00008093820380918103882399F0A0908203C0
:101A1000AA2079F00E944326811101C081E08093C1
:101A200081038A2D0E944326811101C081E08093A9
:101A3000820380917E038B111AC080917F038823DB
:101A400011F08C1114C080918003882311F01813B9
:101A50000EC080918203882311F0081308C0909172
:101A60008103992331F081E0D91204C002C081E0E2
:101A700001C080E080FD15C080917F0381110FC0FF
:101A80008091800381110BC080918103811107C077
:101A900081E090918203911103C080E001C081E058
:101AA00080FD0E94C326B0927E03C0927F031093F4
:101AB0008003D0928103009382030E947022909150
:101AC0000E02891769F080930E028FB7F894409147
:101AD00073035091740360917503709176038FBF07
:101AE0008091CF02843009F039CD8093E900809154
:101AF000E80082FF33CD8091E80085FF22C00E947C
:101B0000D51981111CC000E210E06E01F1E2CF0E88
:101B1000D11C08C08091F100F60181936F01015042
:101B2000110969F08091E80085FDF4CF8091E8000B
:101B30008B778093E8000E94D519882399F391E070
:101B400001C090E08091E8008B778093E8009923B2
:101B500009F404CD89A1863009F450C0A0F4823084
:101B600009F4FCCC58F4882301F1813009F057C006
:101B70008093CC0284E089838EEF4BC0843011F1D6
:101B80008530E1F14CC08930C9F128F4873089F102
:101B90008830A1F144C08A3099F18E3F09F03FC0EE
:101BA000898394E09A838B8335C019828CE0E8E4C2
:101BB000F1E0DE01129601900D928A95E1F78EEF29
:101BC0008D8728C08091CC02882309F4C7CC8AA1D4
:101BD000811104C08BA10E94AE27C0CC81E090E0AF
:101BE0000BA002C0880F991F0A94E2F70E948F276A
:101BF000B5CC81E08093CE0285E012C084E010C0B5
:101C000081E09AA1911101C080E08093CE029BE017
:101C100099838A83CE0101960E94321A9FCC8FEF5E
:101C20000E9433239BCC09BD19BD09B400FEFDCF32
:101C30008091D8008F7D8093D8008091E0008260F1
:101C40008093E0008091E00081FDFCCF10929E0225
:101C50000E94ED278ECC232B09F069CE9ECE213930
:101C6000314008F0B0CEE5CE80E0089590919B021F
:101C700092FF10C041E0282F2471243009F040E089
:101C800031E0282F2871283009F030E0431711F097
:101C90002CE0822793FF10C041E0282F24712431CB
:101CA00009F040E031E0282F2871283109F030E0B8
:101CB000431711F02CE0822730919C0230FF10C0B6
:101CC00051E0282F2171213009F050E041E0282F08
:101CD0002871283009F040E0541711F029E08227DC
:101CE00031FF10C041E0282F2171213109F040E07F
:101CF00031E0282F2871283109F030E0431711F026
:101D000029E0822794FD877E08958238910569F144
:101D1000B0F48133910509F475C048F48932910516
:101D200009F467C08A32910509F471C008958533BA
:101D3000910509F459C089339105B9F00895833E9E
:101D4000910589F138F4803E9105D1F0823E9105EC
:101D500029F10895863E9105C9F1873E9105D9F193
:101D6000843E910509F06CC027C020919B0220FDA4
:101D700057C021FD55C020919C0223FD5BC00895F2
:101D800080919B0280FD48C080919C0280FF48C0EA
:101D900080919B0284FD46C083EE51C080919B02DE
:101DA00082FF3CC0F5CF80919B0282FD37C08091BD
:101DB0009C0280FD35C0ECCF80919C0281FF36C033
:101DC00080919B0284FD2EC087EE39C080919B02DA
:101DD00083FF2AC0F5CF80919B0283FD25C08091AF
:101DE0009C0281FD23C0ECCF80919B0285FD22C027
:101DF0001FC080919B0285FD1BC080919C0283FFC8
:101E000019C00AC080919B0286FD16C017C0809140
:101E10009B0286FD13C010C089E311C082EE0FC083
:101E200080EE0DC080E00BC086EE09C084EE07C0D6
:101E300085E305C089E203C08AE201C081E390E046
:101E4000089520916F029091360257E02917A9F06A
:101E500030E0529FF001539FF00D1124E95CFD4FDB
:101E60007181761306C07081781303C07581741375
:101E700006C02F5F3F4F2770E9CF80E0089581E0D3
:101E800008957E30B0F46630A0F48230A0F494E57A
:101E9000899FF001112486E0789FE00DF11D112447
:101EA000E60FF11DEE0FFF1FEF50FE4F859194914D
:101EB000089580E001C081E090E008951F93CF93E2
:101EC000DF930E94850EEC01C11580E5D807E8F587
:101ED000C11590E4D90708F0A8C0C03ED10530F57F
:101EE000CD3CD10508F094C0C83AD10578F4C53A84
:101EF000D10508F083C0C130D10509F47CC008F4D5
:101F0000F2C0C430D10508F0F1C0EDC0C33CD1052A
:101F100008F0E9C0C85AD0E0CC0FDD1FC95ADE4F27
:101F20000990D881C02DCE019464E1C0C11580E232
:101F3000D80708F0CBC0C11591E0D90708F06BC0F5
:101F4000C83ED10508F4D2C0CEC0C03682E5D8075D
:101F500028F5C03492E5D90708F079C0C03282E58F
:101F6000D80708F06CC0C11592E5D90708F481C004
:101F70004C2F4695469580E2489FA0011124C370DE
:101F800021E030E0C90102C0880F991FCA95E2F72D
:101F9000EA01C82BD92BCE019D68A9C0C03A82E5C1
:101FA000D807B8F48C2F8F71C03892E5D90708F0A4
:101FB0007BC08695869590E2899F90011124C3701D
:101FC00081E090E002C0880F991FCA95E2F79A68F5
:101FD00068C0C03C82E5D80708F46DC0C03E92E5F9
:101FE000D90708F080C0CF71DD27DC2FCC27CE01C8
:101FF000806F906A7CC081E090E079C0C55AD0E0E3
:10200000CC5ADE4F8881C82FD0E0CE0190646FC0DB
:10201000CE0190656CC08D2F0E94360E182FCE0118
:1020200099270E94850E1F715CC0CE0199270E94DE
:10203000850ECC27DF70D06A8C2B9D2B58C0CF71BA
:10204000D0E0DC2FCC27CE01816F906A50C08C2F5E
:102050008F718695869590E2899F90011124C370B7
:1020600081E090E002C0880F991FCA95E2F79C6852
:1020700018C08C2F8F710E94360E95E0D695C795AB
:102080009A95E1F7CF70D0E0DC2FCC27282F30E0F5
:1020900084FF05C084E0220F331F8A95E1F7D069E1
:1020A000CE01822B932B23C090E0D82FCC27CE01DA
:1020B000846F906A1CC08C2F8F710E94360E8F71B6
:1020C00090E0D82FCC27CE01906211C08D2F8F7158
:1020D0000E94360E182FCE0199270E94850E1F717F
:1020E0009062912B04C080E090E001C0CE01DF91AE
:1020F000CF911F910895A8E0B0E0E1E8F0E10C94E1
:102100004E2B66EE7EEF80E090E00E94132C60E0A4
:1021100082E090E00E94F52B60E083E090E00E9476
:10212000F52B1092920260E074E184E090E00E944E
:10213000132C60E086E090E00E94F52B6FEF87E0C3
:1021400090E00E94F52B40E050E0BA0188E090E07A
:102150000E94072C60E084E290E00E94F52B60E092
:1021600087E190E00E94F52B60E08CE090E00E9417
:10217000F52B60E08DE090E00E94F52B19821A8229
:102180001B821C821D821E821F82188648E050E03E
:1021900068E170E0CE0101960E94E52B40E050E03E
:1021A000BA0180E290E00E94072C1092D9011092AF
:1021B000DA011092DB011092DC0184E08093D901F6
:1021C0004091D9015091DA016091DB017091DC01FD
:1021D0008FE090E00E94072C40E050E0BA0183E1DC
:1021E00090E00E94072C2896E2E00C946A2B8095E0
:1021F0009091690389238093690308958095909154
:102200009E02892380939E02089590919E02809160
:102210006903982B90930F02809191028823D9F043
:10222000892B80930F0280913401882331F08091B3
:102230009B0287FF02C08EE101C086E0E1E1F2E08F
:1022400090E0815028F021912223D9F39F5FF9CFAC
:1022500091111092910240E250E061E772E08FE04C
:1022600092E00E94342E892B21F180E2EFE0F2E02F
:10227000A1E7B2E001900D928A95E1F7E0916E033B
:10228000F0916F033097A9F080913401882359F0C1
:1022900080919B0287FF07C080910F0280931002FC
:1022A00086E080930F020280F381E02D8FE092E0C0
:1022B000099508959091700280958923809370020A
:1022C000282F277069F4981759F090919C0292FF7B
:1022D00007C08695869586950E94AE27109270025B
:1022E000089590919C0292FB222720F9281779F0FB
:1022F00080FB92F990939C0260919B0270919C02EA
:1023000084E090E00E94132C82E00E945A1108950C
:1023100080916F0290913602891719F08F5F877054
:10232000FBCF08950F931F93CF93DF9380913502D6
:1023300082958F7009F052C080913402882309F48D
:102340004DC080916F024091360250913002109141
:102350002F026091310270913202C0913801D09108
:10236000390107E08417D1F190E0089FF001099F3F
:10237000F00D1124DF01A95CBD4F14962C91149728
:10238000222349F111962C911197251324C02C91E9
:10239000211321C015962C91159721111CC012965E
:1023A0002D913C911397261B370B2C173D0798F462
:1023B000809135028F70806180933502E35CFD4F20
:1023C00080818F70806180838FE292E00E94BB03E6
:1023D0000E94881103C001968770C4CFDF91CF910E
:1023E0001F910F910895A4E1B0E0E9EFF1E10C94A1
:1023F000442B8C0186E0F801DE011F9601900D92BE
:102400008A95E1F7D80114968C9114971596EC9063
:102410009FE2A92E92E0B92E90913302911121C032
:10242000882309F463C1EE2009F447C0C8010E9463
:10243000CA27F82E882309F440C087E0F801D501A7
:1024400001900D928A95E1F780913302813031F449
:1024500080912F02909130020E9419270E949211C0
:1024600054C1F80190808180C280D380F090340202
:10247000409131025091320220913801309139015E
:10248000FF2009F4E0C0B601641B750B62177307E7
:1024900008F099C0882309F438C180913502282FAB
:1024A000207F90913002222361F0981509F45CC0DE
:1024B000C8010E94CA2781115FC0C8010E94BB03E6
:1024C00015C1981114C090912F02991110C0E110FC
:1024D0000EC08F708061809335028FE292E00E947F
:1024E000BB0380913502D80116968C930DC1E11083
:1024F00035C040E0682D892D0E94210FE82E811102
:10250000F8C09F86888A8F8598890E941927292F6D
:1025100022952F70243020F49F70223028F009C0BB
:102520002A50223080F014C0992349F0811107C04D
:1025300013C0992321F0F8019681907F69F0805EA5
:10254000883030F409C0803F38F0815F833020F05C
:10255000C8010E94BB03EF2CFE2CD7C0809135022E
:10256000816080933502C5C090912F029911A0CF50
:10257000E1109ECFF80199C0EE2009F49ECF209182
:102580003502822F82958F7090E002978CF08091B7
:102590002F029091300299878887DB86CA868091C6
:1025A00033028C871D862E87CE0108960E94BB03BE
:1025B00087E0F801AFE2B2E001900D928A95E1F771
:1025C0000E94921193C090913502292F207F39F4F7
:1025D0008FE292E00E94BB0387E0D50192C088237E
:1025E00009F493C08091300288110CC080912F02B1
:1025F000891108C0E11006C0F8019683C8010E9445
:10260000BB036EC0C8010E94CA27882309F455CFB6
:10261000EE2009F452CF20913502822F82958F70DF
:1026200090E002972CF280912F02909130029A83D1
:102630008983DC82CB82809133028D831E822F833B
:10264000CE010196B3CFC41AD50AC216D30608F03C
:1026500047C0882309F44AC0FE2CEE2009F42DCF90
:102660008091300288112EC080912F0289112AC0DA
:10267000B8ECCB16D104E8F48091350280FD19C086
:1026800082958F70482F50E04115510591F02091AF
:102690003502F80126834F30510541F08F5F982FA6
:1026A0009295907F822F8F70892B8683C8010E941C
:1026B000BB0387E0F801AFE2B2E001900D928A958A
:1026C000E1F723C0C8010E94CA27811171CF809110
:1026D0003502816080933502C8010E94BB0315C09A
:1026E00087E0D5011D928A95E9F70FC0FF24F39486
:1026F0000CC08FE292E00E94BB03EFE2F2E087E0C1
:10270000DF011D928A95E9F7F12C8F2D6496ECE09C
:102710000C94602BA0E0B0E0E0E9F3E10C94482BCE
:1027200080913B0190913C01892BB9F080919502F9
:102730008F5F80939502811110C00E94241D90E04C
:1027400090933C0180933B01892B39F40E949B1D9F
:1027500081E080933A010E945E230DED11E0780143
:10276000D0E0C0E087E0C82ECC0E8C2F0E940B1E5C
:102770008C2D0E940B1E8C2F0E946E1E8F73F701F2
:102780009081891721F08083DD24D39401C0D12C5E
:102790008C2D0E946E1E8F73F7019781891719F097
:1027A000878381E001C080E0D82ADD290E945F1E76
:1027B000CF5FFFEFEF1AFF0AC730A1F610929A021F
:1027C000C0919902CC2309F47DC00E9494212091EC
:1027D000970230919802AC01421B530B9A019093DF
:1027E0009802809397024F3F510509F018F4452B4A
:1027F00019F102C02FEF30E0109299021092960268
:10280000E091D701F091D801AF01425F5F4F90E0B6
:1028100030E08081882341F0281718F010829C2F27
:1028200003C0821B80833C2F3196E417F50789F79C
:102830003093990290939602DD23B1F110929602A3
:10284000E091D701F091D80180919A02909199027C
:10285000AFEEB1E0AF01425F5F4F6EE1E80128816A
:102860003C91321779F0308131110CC060832C9388
:1028700098819227282F30E0292B81E0232B09F41F
:1028800080E091E0319611960F5F1F4FE417F50736
:1028900029F780939A029093990280919A02CDB77A
:1028A000DEB7E8E00C94642B81E0909196029923C6
:1028B000A1F38111C3CF0E94942190939802809339
:1028C0009702BCCFD111F7CF80E0EFCFA6E0B0E008
:1028D000ECE6F4E10C944C2B0E9494218C01809145
:1028E0009302909194020817190781F019821A82B5
:1028F0000E949421682F49815A81792F80E090E0CD
:102900000E94CE1B10939402009393022696E4E05B
:102910000C94682B8091C40287FF11C08091E8005D
:1029200082FD05C08091CF028111F8CF11C0809146
:10293000E8008B770BC08091CF02882349F080910B
:10294000E80080FFF8CF8091E8008E778093E80060
:102950000895982F973068F59093E900981739F00B
:102960007091EC002091ED005091F00003C0242FF5
:10297000762F50E021FD02C09F5FECCF3091EB003D
:102980003E7F3093EB003091ED003D7F3093ED00C2
:102990003091EB0031603093EB007093EC002093AA
:1029A000ED005093F0002091EE0027FDE5CF80E090
:1029B00008958F708093E90081E008952091CA0204
:1029C0003091CB022617370748F06115710539F4AD
:1029D0002091E8002E772093E80001C0B901FC01A6
:1029E00020E06115710579F18091CF028823F1F122
:1029F0008530F1F18091E80083FD3CC08091E800D2
:102A000082FD2EC08091E80080FFEBCF2091F30083
:102A10008091F20090E0922B6115710551F08830A1
:102A2000910538F421912093F100615071090196CC
:102A3000F3CF21E0089709F020E08091E8008E773D
:102A40008093E800CECF2111CFCF0AC08091CF0272
:102A5000882361F0853061F08091E80083FD0AC031
:102A60008091E80082FFF2CF80E0089582E008952F
:102A700083E0089581E0089543E050E0BC0185E0E3
:102A80000E943B21089545E050E0BC0182E00E9495
:102A90003B210895CF93DF93EC01809134018111A4
:102AA00005C048E050E0BE0181E00BC080919B0270
:102AB00087FF03C040E285E002C048E081E050E0CB
:102AC000BE010E943B2180E2FE01A1EAB2E001903A
:102AD0000D928A95E1F7DF91CF910895AAE2B0E0D7
:102AE000E4E7F5E10C944D2BE4ECF2E08CEC92E0A1
:102AF0002091F10021938E179F07D1F78091C50295
:102B0000833009F463C030F4813071F0823009F40D
:102B10009FC0B6C08A3009F48BC08B3009F46EC0F8
:102B2000893009F0ADC020C08091C402813A09F01B
:102B3000A7C08091E800877F8093E8008091C80259
:102B40009091C902892B21F460E281EA92E003C0EE
:102B500060E080E090E070E00E94DE148091E80088
:102B60008B778093E8008CC08091C402813209F099
:102B700087C08091C8029091C902009719F003970D
:102B800009F07EC08091E800877F8093E800809103
:102B9000E80082FD05C08091CF028111F8CF70C09E
:102BA0002091F3008091F20090E0922B029731F493
:102BB0008091F100813011F0863021F48091F10094
:102BC0008093A0028091E8008B7756C08091C40268
:102BD000813A09F055C08091C8029091C902892BB1
:102BE00009F04EC08091E800877F8093E8008091D3
:102BF000E80080FFFCCF8091340139C08091C4028D
:102C00008132F1F58091C8029091C902892BC1F5FA
:102C10008091E800877F8093E8000E948A14809169
:102C2000C6028093340110929E020E94ED2728C0B4
:102C30008091C402813221F58091E800877F8093E2
:102C4000E8000E948A148091C70280939F0218C0F6
:102C50008091C402813AA1F48091E800877F80933B
:102C6000E8008091E80080FFFCCF80919F02809374
:102C7000F1008091E8008E778093E8000E948A142A
:102C80008091E80083FFE4C18091C4029091C50265
:102C9000492F50E04A30510508F0DAC1FA01E258F4
:102CA000FF4F0C94BA2C803821F0823809F0D0C143
:102CB00008C08091C1029091C202992389F082607C
:102CC0000FC08091C8028F70873008F0C1C1809317
:102CD000E9008091EB0085FB882780F91092E900DC
:102CE0009091E800977F9093E8008093F100109214
:102CF000F10070C1282F2D7F09F0AAC1882319F097
:102D0000823061F0A5C18091C602813009F0A0C176
:102D1000933009F080E08093C2022EC08091C602F9
:102D200081112AC08091C8028F702FEF280F2630A2
:102D300008F08EC18093E9002091EB0020FF1CC0B9
:102D4000933021F48091EB00806214C09091EB00ED
:102D500090619093EB0021E030E0A90102C0440FA4
:102D6000551F8A95E2F74093EA001092EA0080919D
:102D7000EB0088608093EB001092E9008091E800FE
:102D8000877F8093E8000E948A1462C1811160C12C
:102D90001091C6021F778091E3008078812B809389
:102DA000E3008091E800877F8093E8000E948A1406
:102DB0008091E80080FFFCCF8091E30080688093E1
:102DC000E300111102C082E001C083E08093CF02D2
:102DD0003FC18058823008F03BC12091C60230913B
:102DE000C7022C3D53E0350779F583E08A838AE2F8
:102DF00089834FB7F894DE01139620E03EE051E25C
:102E0000E32FF0E050935700E49120FF03C0E295D8
:102E1000EF703F5FEF708E2F90E0EA3010F0C796B2
:102E200001C0C0968D939D932F5F243149F74FBF0A
:102E30008091E800877F8093E8006AE270E0CE012D
:102E400001960E94DE14B4C08091C8029091C9021C
:102E5000432F552743305105A9F068F441305105FF
:102E600009F405C14230510509F0F2C084E790E051
:102E7000EBE5F4E04BC04132510529F142325105F6
:102E800089F1E6C0C901992781309105A1F058F078
:102E9000029709F0DDC0E1EEF4E0E4918E2F90E0BE
:102EA000E1EEF4E030C0EFE2F5E0E4918E2F90E047
:102EB000EFE2F5E028C0E5E0F5E0E4918E2F90E048
:102EC000E5E0F5E020C08430910508F0C1C0880F2E
:102ED000991FFC01E756FE4F0190F081E02D89E03B
:102EE00090E014C08430910508F0B2C0FC01EE0FF0
:102EF000FF1FEF56FE4F0190F081E02DDC01A3573C
:102F0000BE4F8C9190E0009709F4A2C02091E80098
:102F1000277F2093E8002091CA023091CB02281726
:102F2000390708F4C90140E0009789F12091CF02E8
:102F3000222309F43DC02530D9F12091E80023FD7A
:102F400037C02091E80022FD2FC02091E80020FF2B
:102F5000EBCF4091F3002091F20030E0342B00974A
:102F600059F02830310540F444914093F1003196F6
:102F700001972F5F3F4FF3CF41E02830310509F033
:102F800040E02091E8002E772093E800CDCF41115A
:102F9000CDCF0AC08091CF02882351F0853041F017
:102FA0008091E80083FD04C08091E80082FFF2CFA9
:102FB0008091E8008B778093E8004AC0803809F060
:102FC00047C08091E800877F8093E8008091C3022A
:102FD0008093F1008091E8008E77D3CE811138C0C4
:102FE0008091C6029091C702992702978CF5809133
:102FF000E800877F8093E8001091C6021093C30217
:103000000E948A14111106C08091E30087FD02C05E
:1030100081E001C084E08093CF0242E061EC81E076
:103020000E94A91442E061EC82E00E94A91442E2ED
:1030300061EC85E00E94A91442E261EC83E00E9409
:10304000A91442E260EC84E00E94A9148091CF02AE
:103050008091E80083FF10C08091E800877F809313
:10306000E8008091EB0080628093EB0005C082E174
:1030700090E0EFECF4E04ACFAA96E3E00C94692BE1
:103080001F920F920FB60F9211242F933F934F93DD
:103090005F936F937F938F939F93AF93BF93CF93E0
:1030A000DF93EF93FF93C091E900CF708091EC0024
:1030B000D82FD17080FDD0E81092E9008091F00007
:1030C000877F8093F00078940E946E151092E9003B
:1030D0008091F00088608093F000CD2BCF70C0937A
:1030E000E900FF91EF91DF91CF91BF91AF919F9157
:1030F0008F917F916F915F914F913F912F910F90A1
:103100000FBE0F901F901895E8EDF0E080818E7F44
:1031100080831092E2001092DA001092E100A0EE9B
:10312000B0E08C9181608C9380818F77808319BC13
:10313000A7EDB0E08C918E7F8C9380818F7E808311
:1031400010929D020895A0E0B0E0E9EAF8E10C9445
:10315000482BC8EDD0E088818F7E8883E7EDF0E0D2
:1031600080818160808384E082BF81E080939D02C2
:1031700088818E7F888302EE10E0F8011082109221
:10318000DA0081EEC82ED12CF601108288818F776B
:10319000888388818068888388818F7D888319BC33
:1031A0001092CF021092C3021092C2021092C1027A
:1031B00090EEE92EF12CF70180818B7F808388814E
:1031C0008160888342E060E080E00E94A914F601FB
:1031D00080818E7F8083F8018081816080838081FF
:1031E00088608083F70180818E7F80838881806101
:1031F0008883CDB7DEB7E8E00C94642B1F920F9262
:103200000FB60F9211242F933F934F935F936F93B9
:103210007F938F939F93AF93BF93EF93FF9380918F
:10322000E10082FF09C08091E20082FF05C0809129
:10323000E1008B7F8093E1008091DA0080FF2AC05B
:103240008091D80080FF26C08091DA008E7F809325
:10325000DA008091D90080FF18C080E189BD82E149
:1032600089BD09B400FEFDCF81E08093CF0280913B
:103270009D0281110FC00E9484180E94A3188091A2
:10328000E20084608093E20005C019BC1092CF0276
:1032900010929D028091E10080FF17C08091E200B2
:1032A00080FF13C08091E2008E7F8093E2008091C6
:1032B000E20080618093E2008091D8008062809378
:1032C000D80019BC85E08093CF028091E10084FF93
:1032D00030C08091E20084FF2CC080E189BD82E192
:1032E00089BD09B400FEFDCF8091D8008F7D809309
:1032F000D8008091E1008F7E8093E1008091E20010
:103300008F7E8093E2008091E20081608093E200F2
:103310008091C302882311F084E007C08091E3000C
:1033200087FD02C081E001C083E08093CF028091DD
:10333000CF028091E10083FF27C08091E20083FFEC
:1033400023C08091E100877F8093E10082E0809339
:10335000CF021092C3028091E1008E7F8093E10042
:103360008091E2008E7F8093E2008091E200806194
:103370008093E20042E060E080E00E94A914809126
:10338000F00088608093F000FF91EF91BF91AF91C2
:103390009F918F917F916F915F914F913F912F916D
:1033A0000F900FBE0F901F9018952091E400309160
:1033B000E50095E64091EC00842F817040FF23C02A
:1033C0008091E80080FD1DC08091CF02882399F094
:1033D000853099F08091EB0085FD11C04091E400AB
:1033E0005091E5002417350729F3915011F09A0107
:1033F000E1CF84E0089582E0089583E0089581E0BC
:10340000089580E008954091E80042FFDDCF0895DF
:10341000EF92FF920F931F93CF93DF937C018B0169
:103420000E94D519811119C0E70101151105A1F0FC
:103430008091E80085FD0AC08091E8008E77809336
:10344000E8000E94D519882381F307C089918093F1
:10345000F10001501109E9CF80E0CDB7DEB7E6E019
:103460000C94662BCF932091CF02243011F5C0919C
:10347000E900CF703091EC00232F217030FD20E85F
:10348000C22B23E02093E9002091E80020FF0EC02A
:1034900040E050E060E270E00E94081A8111109252
:1034A000CC028091E8008E778093E800CF70C093C3
:1034B000E900CF9108959C013A9521153F4130F5DF
:1034C000BC0166277270AC01442754709C0122270E
:1034D000387094FF0FC090FF02C080E101C080E00F
:1034E000672B09F08062452B09F08064232B79F06B
:1034F00080680895892F8170672B09F08260452BC1
:1035000009F08460232B19F08860089580E0089505
:10351000FC018281813039F4958192FD12C090FFC7
:1035200010C082E00895823039F4858182FD06C0A2
:1035300080FD06C083E0089586E0089585E0089543
:1035400084E00895CF93DF93EC010E941429CE010B
:10355000805E9109089710F0209731F4CE010E9407
:103560005B1A0E942B2805C0CE010E945B1A0E94A4
:103570001A28DF91CF9108958FE39CE90197F1F725
:1035800000C000008091D302833029F0853031F0F3
:10359000813041F403C081E990E002C080E990E00D
:1035A0000E94A21A1092D30208958FE39CE901971A
:1035B000F1F700C000008091D102833029F08530FE
:1035C00031F0813041F403C08BEA90E002C08EEA12
:1035D00090E00E94A21A1092D1020895CF93DF9337
:1035E000EC01805E9109089710F0209731F4CE012C
:1035F0000E945B1A0E94322805C0CE010E945B1A0D
:103600000E9421288C2F0E947829DF91CF91089564
:103610000F931F93CF93DF938C01C99719F0C0E0EC
:10362000D0E002C0C0E5D0E0C8010E94EE1A2097A9
:1036300041F08FE99FE00197F1F700C0000021976A
:10364000F6CFC8010E94A21ADF91CF911F910F916E
:103650000895CF93DF93EC018A81833061F480E990
:1036600090E00E94081B80E990E00E94081B80E91E
:1036700090E00E94081B8A81843020F080E990E06D
:103680000E94081BDF91CF910895CF93DF93EC0147
:103690008A81833061F48EEA90E00E94081B8EEAF2
:1036A00090E00E94081B8EEA90E00E94081B8A812D
:1036B000843020F08EEA90E00E94081BDF91CF91C9
:1036C00008950E94881A8093D302833029F08530B0
:1036D00031F0813061F407C081E990E006C080E9F3
:1036E00090E00E94081B80E990E00E94EE1A089585
:1036F0000E94881A8093D102833029F0853031F0FE
:10370000813061F407C08BEA90E006C08EEA90E059
:103710000E94081B8EEA90E00E94EE1A0895982FEE
:1037200092959F7019F0892F24E001C020E0982F16
:103730009695969511F02E5F892F982F969509F002
:103740002F5F822F0895A6E0B0E0E9EAFBE10C9438
:103750004D2B26E0FC01DE01119601900D922A9579
:10376000E1F7FC01258189819A81222359F06623A2
:1037700049F00E94EA26182F682F89819A810E94B9
:103780005A2703C00E942627182F69817A81812F2A
:103790000E94410F2696E3E00C94692BA4E3B0E06D
:1037A000E4EDFBE10C944D2B4FA758AB69AB7AAB22
:1037B0008BAB9CAB911110926903CE01889627E0E8
:1037C000DC011D922A95E9F726E0FE01BF96DC0197
:1037D00001900D922A95E1F72CA52223C1F061E01A
:1037E0000E94A31B8091CC02882389F08DA58111B2
:1037F00002C087E001C086E0898388A58A8389A505
:103800008B838EEF8C83CE0101960E94321A87E063
:10381000FE01B896DE01919601900D928A95E1F72E
:10382000CE0181960E94F31181112CC087E0FE0128
:10383000B196DE01119601900D928A95E1F76DA186
:10384000662301F12091360230E0C90101968770AC
:10385000992740916F0250E08417950761F16D83BD
:1038600097E0929FD001939FB00D1124A95CBD4FAA
:10387000FE01319601900D929A95E1F78093360200
:103880000E94881117E080916F029091360289178B
:1038900009F1189FC0011124895C9D4F0E94F3110A
:1038A0008823C1F080916F0290E00196877099277C
:1038B00080936F02E8CF10929E020E94ED27109233
:1038C000360210926F02EFE2F2E087E0DF011D9214
:1038D0008A95E9F7E496E3E00C94692B10929E0236
:1038E0000E94ED272FEF84E39CE021508040904020
:1038F000E1F700C000009AE088E10FB6F894A895BF
:10390000809360000FBE90936000FFCF8F929F92D4
:10391000AF92BF92CF92DF92EF92FF920F93CF932D
:10392000C82F0E948F1B56985E9825982D98269830
:103930002E9827982F98482F50E0FA013197E730BA
:10394000F105B0F4E857FF4F0C94BA2C259A2D9A44
:1039500011C0259A2D9A269A2E9A23C0259A2D9A1F
:1039600004C0259A2D9A269A2E9A279A2F9A19C022
:103970008130B9F48091CE0181115AC080915E03EB
:10398000816080935E0360E086950E94672660E018
:1039900081E00E94672620E0409161036FEF8CEB8D
:1039A00042C08091CE01811143C088E090E00E9426
:1039B000D92B4B015C0184E290E00E94D12B282F8F
:1039C00030E040E050E060E070E080E090E000E255
:1039D0000E94CF2C282939294A295B2920935E038C
:1039E00030935F03409360035093610360936203DD
:1039F00070936303809364039093650320FF16C064
:103A0000822F816080935E0386950E94AA26809112
:103A10005E0386950E94AA2621E040916103609191
:103A2000600380915F030E943A2502C00E946F24C8
:103A30008C2FCF910F91FF90EF90DF90CF90BF90A0
:103A4000AF909F908F90089580E290E090933C011A
:103A500080933B018091830381110EC00E945A2AFA
:103A600081E0809383032FEF83ED90E3215080402A
:103A70009040E1F700C0000060E570E080E40E9443
:103A8000602A90933C0180933B01892B09F04EC042
:103A900060E570E080E00E94D32A90933C0180931F
:103AA0003B01892B09F042C060E570E080E00E9494
:103AB000D32A90933C0180933B01892BB9F560E5B3
:103AC00070E08FE30E94D32A90933C0180933B01E6
:103AD000892B61F50E94262B60E570E080E40E944E
:103AE000602A90933C0180933B01892BF9F460E5B7
:103AF00070E08CE00E94D32A90933C0180933B01BC
:103B0000892BA1F460E570E080E00E94D32A9093B5
:103B10003C0180933B01892B49F460E570E08FE321
:103B20000E94D32A90933C0180933B010E94262B54
:103B300080913B010895CF93DF9356985E98259826
:103B40002D9826982E9827982F98C8E8D0E08FEFC8
:103B500090E099838883AAE8B0E011969C938E93B5
:103B6000ECE8F0E091838083259A2D9A2FEF80E78F
:103B700092E0215080409040E1F700C00000269A7A
:103B80002E9A2FEF80E792E0215080409040E1F79D
:103B900000C00000279A2F9A2FEF80E792E0215073
:103BA00080409040E1F700C0000025982D982FEF4D
:103BB00080E792E0215080409040E1F700C0000093
:103BC00026982E982FEF80E792E021508040904079
:103BD000E1F700C0000027982F988091D9018770E5
:103BE0002FEF829FC0011124959587959595879514
:103BF00099279983888311969C938E9391838083D0
:103C000056985E9825982D9826982E9827982F9844
:103C1000DF91CF910895CF93E82F873080F5809181
:103C20003B0190913C01892B09F047C0CE2F60E504
:103C300070E080E40E94602A90933C0180933B01F5
:103C4000892BD1F460E570E082E10E94D32A909341
:103C50003C0180933B01892B79F481E090E001C025
:103C6000880FCA95EAF760E570E080950E94D32A34
:103C700090933C0180933B010E94262B1EC090E054
:103C8000FC013797E730F105C0F4E157FF4F0C9482
:103C9000BA2C209A289811C0219A29980EC0229AED
:103CA0002A980BC0239A2B9808C0529A5A9805C09C
:103CB000539A5B9802C03E9A4698CF9108952098F7
:103CC00028982198299822982A9823982B985298D6
:103CD0005A9853985B983E9846980895CF938730AA
:103CE00040F580913B0190913C01892B59F560E5AD
:103CF00070E081E40E94602A90933C0180933B0134
:103D0000892B11F0C0E011C080E590E00E94022BE9
:103D100097FF05C090933C0180933B01F3CFC82FE0
:103D2000C09510923C0110923B010E94262B8C2FD3
:103D30000AC09FB18FB1807F869586959370892B3D
:103D4000809501C080E0CF9108958098889A8198ED
:103D5000899A84988C9A85988D9A86988E9A879855
:103D60008F9A08958091A00208950895A0E0B0E090
:103D7000ECEBFEE10C94432BFC018280748081E02B
:103D80008483E3E3F5E09490E2EBF5E0E4910091C5
:103D900061030695015810E0000F111F012F112734
:103DA000C3E1D3E027EDC22E22E0D22EAA24AA94AA
:103DB000B12CE919EE2EF12C22E0281530F080917B
:103DC0005F038883809160038983711003C01B8225
:103DD0001A824AC08B818823F9F081508B832FEFA0
:103DE000829FC00111246C8170E00E942A2BFB018C
:103DF000FF27ED5CFA4F8491E82FE9192FEFE29F3E
:103E0000C0011124B7010E942A2B80916103689F91
:103E1000B00111247A8328C00E94C12BB5010E94F1
:103E2000A62C8017910704F582E0881588F40E947B
:103E3000C12BB5010E94A62C88830E94C12B209122
:103E400060032695622F70E00E94A62C280F29831C
:103E50001A8280916103843120F0893C18F088EC4B
:103E600001C084E18C838B8396014A8169818881BA
:103E70000E949524259624E0C20ED11C83E0CE3505
:103E8000D80709F099CF0E945E23CDB7DEB7EDE0E9
:103E90000C945F2BEF92FF920F931F93CF93DF93BE
:103EA0008C01C7EDD2E0E12CF12CF8018481F7E020
:103EB000EF16F1041CF4882339F002C0811104C00C
:103EC0009E014091610302C09E0140E06091600349
:103ED00080915F030E9495248FEFE81AF80A2496D8
:103EE0009FE0E916F10409F70E945E23F80184813E
:103EF00090E00196817099278483CDB7DEB7E6E024
:103F00000C94662BA0E0B0E0E8E8FFE10C94442BB1
:103F1000EC014C81042F10E09801D8010E947D2C07
:103F20009B01AC010E94482C6B017C01E0E2F0E0B7
:103F3000E01BF10BA5E5B0E09B01AC010E94482C11
:103F40004B015C019F01DF010E94C02C9B01AC0171
:103F50000E94532C9B01AC012C0D3D1D4E1D5F1D7D
:103F6000C501B4010E945B2C822FF22E99E29217B8
:103F700028F093E0299F900111240DC025E530E041
:103F8000281B3109C901880F991F280F391F37FFD6
:103F900002C02F5F3F4F35952795122F109597ED53
:103FA000C92E92E0D92E00E085E5E82EEF1801FD3C
:103FB00002C08E2D01C08F2D9601412F60916003AC
:103FC0000E9495240F5F84E0C80ED11C0F3079F752
:103FD0000E945E238C81811102C091E003C0803277
:103FE00019F49FEF9093370190913701890F8C83DB
:103FF000CDB7DEB7ECE00C94602B0F931F93CF93FB
:10400000DF93C7EDD2E0FE0111821082128213828B
:10401000349683E0E331F807B9F700E010E08091CF
:10402000D502082E000C990B0817190794F08091FF
:104030003601082E000C990B8017910754F09E0151
:10404000409161036091600380915F030E94952419
:1040500004C0198218821A821B820F5F1F4F249698
:104060000F301105E1F60E945E2380913501909199
:10407000D502980F9093D50220913601280F2093F6
:104080003601121614F49E301CF081958093350190
:10409000DF91CF911F910F910895A0E0B0E0E3E58B
:1040A000F0E20C94472BFC01828180FF03C0DD24E9
:1040B000DA9402C0DD24D39407ED12E0C0E0D0E032
:1040C0002FE0B22EF801118210821282138294E046
:1040D000E92EF12CC12C8091D4028C0D80312CF072
:1040E0006B2D0E94982C892F02C087FD815F082EBE
:1040F000000C990BC817D90791F4809161038E9D2C
:10410000A0018F9D500D11245595479555954795C4
:1041100098016091600380915F030E949524CD0C0B
:10412000F1E0EF1AF108B9F621960C5F1F4FCF307E
:10413000D10541F60E945E238091D40291E0D9120C
:1041400006C0811102C08EE007C0815005C090E01A
:104150000196BE010E94A62C8093D402CDB7DEB793
:10416000E9E00C94632BEF92FF921F93CF93DF93C0
:10417000EC0187EDE82E82E0F82E10E08C819701AB
:104180004091610360916003810F0E9495241F5E3E
:1041900084E0E80EF11C1F3F89F70E945E239A819C
:1041A0008C8190FF02C08F5F01C081508C83DF91B2
:1041B000CF911F91FF90EF900895A4E0B0E0E3EE5F
:1041C000F0E20C944C2B8C018091D60281110AC034
:1041D0009E012F5F3F4F4FEF6FEF0E9495248A8122
:1041E0008093D602F8018481813051F028F082302A
:1041F00061F44091D6020AC08091D60240E007C027
:104200006091D60240E080E003C040E080E060E0E2
:104210000E94F023F801848190E0019663E070E051
:104220000E94A62C84832496E4E00C94682BCF9300
:10423000DF93EC01EEE5F3E0438162818C810E9423
:1042400022258C818F5F8C83DF91CF910895CF934E
:10425000DF93EC01EC81F0E0ED5CFA4F4491EEE588
:10426000F3E0628181810E9422258C818F5F8C83A3
:10427000DF91CF9108959B019091CF029430F1F49A
:104280008F708093E9008FEF9091E800815095FD49
:1042900006C095ED9A95F1F700008111F5CF809158
:1042A000E80085FF0BC0BA01C90140E050E00E9460
:1042B000081A8091E8008E778093E800089578943A
:1042C0001F920F920FB60F9211248F939F93AF936B
:1042D000BF938091730390917403A0917503B09183
:1042E00076030196A11DB11D80937303909374030F
:1042F000A0937503B0937603BF91AF919F918F9177
:104300000F900FBE0F901F9018959C014FB7F89417
:104310008091730390917403A0917503B09176031B
:104320004FBF821B930B08952FB7F89480917303AE
:1043300090917403A0917503B09176032FBF0895F7
:104340001F920F920FB60F9211248F939F93AF93EA
:10435000BF9380917203811113C080917303909178
:104360007403A0917503B09176034196A11DB11D10
:104370008093730390937403A0937503B0937603B3
:10438000BF91AF919F918F910F900FBE0F901F9093
:104390001895209134012223C9F020919B0227FF18
:1043A00015C0262F2695269526952E31C8F4FC019A
:1043B000E20FF11D677081E090E001C0880F6A95FF
:1043C000EAF780959281892382830895FC010696FD
:1043D0002281621301C012823196E817F907C1F7F2
:1043E0000895209134012223C1F020919B0227FFE0
:1043F00014C0262F2695269526952E3130F5FC01E2
:10440000E20FF11D677081E090E001C0880F6A95AE
:10441000EAF79281892B82830895FC0132962FEF6F
:1044200030E04191641789F02F3F19F4411101C028
:10443000232F3F5F3630A9F72F3F39F0FC01E20F01
:10444000F11D27FDFA95628308950895A3E0B0E079
:10445000ECE2F2E20C944E2B209170033091710348
:1044600028173907A1F09093710380937003E091AE
:104470006E03F0916F03309751F024E029839B8302
:104480008A830680F781E02DCE0101960995239657
:10449000E2E00C946A2BA3E0B0E0E1E5F2E20C94D8
:1044A0004E2B20916C0330916D0328173907A1F032
:1044B00090936D0380936C03E0916E03F0916F0312
:1044C000309751F023E029839B838A830680F7810C
:1044D000E02DCE01019609952396E2E00C946A2B1B
:1044E000E0916E03F0916F03309729F00190F08115
:1044F000E02D0995089580E008954115510511F0CA
:10450000FA0109950895CF93DF93EC014A855B8505
:104510006E857F850E947D228B810E94F7108C81A1
:104520000E94FE100E94051186E0FE0111928A95FC
:10453000E9F7DF91CF910895CF93DF93EC018D815F
:1045400081FD17C082608D83909169038B81892BD7
:104550008093690390919E028C81892B80939E02A7
:104560000E940511488559856E857F85CE010E9480
:104570007D2210926B0310926A038D8180FD03C02F
:10458000CE010E948322DF91CF9108950F931F9354
:10459000CF93DF93C42FD22FFC0185818823B1F004
:1045A000409368030E94942190936703809366036D
:1045B00080E28C0F883008F051C0C77081E001C0E4
:1045C000880FCA95EAF70E94322848C08091680394
:1045D000481334C080916603909167030E9485213F
:1045E00020913801309139018217930738F510E294
:1045F0001D0FCD17B9F080E28C0F883040F4C770E2
:1046000081E001C0880FCA95EAF70E942B28183074
:1046100010F581E09D2F977001C0880F9A95EAF7F9
:104620000E943228802F0E943B2A1830B8F4D7709D
:1046300081E001C0880FDA95EAF70AC080E28C0FAA
:10464000883060F4C77081E001C0880FCA95EAF72E
:104650000E942B2803C0802F0E943B2ADF91CF911C
:104660001F910F910895A0E2B0E0E9E3F3E20C940A
:104670004E2B9FEF99838A83CE0101960E94321AB6
:10468000A096E2E00C946A2B90915E0390FF04C028
:104690009695981748F003C0811106C090E09617D0
:1046A00018F40E94B82608950E94AA260895882327
:1046B00011F0FA0101C0FB0109950895EF92FF92F4
:1046C0000F931F93CF93DF9380915E0380FF08C009
:1046D00007ED12E083E1E82E83E0F82EF8011BC01D
:1046E000E7EDF2E083E193E01182108212821382FF
:1046F00034968E179F07C1F7EBCF381708F4832F36
:104700008383381B3183281B2083981B9283349624
:10471000EE16FF0641F0928120813181892F291701
:1047200060F7822FEACF80918303882381F1809103
:104730003B0190913C01892B51F580913A018823EE
:1047400031F165E070E084E80E94602A892B19F05D
:1047500010923A011AC0C7EDD2E065E070E088819E
:104760000E94D32A65E070E089810E94D32A65E027
:1047700070E08A810E94D32A65E070E08B810E94FC
:10478000D32A2496EC16FD0641F70E94262B579A51
:104790008BB18F779BB190682FB7F894E016F10634
:1047A00099F0F80131918F0148E09BB9000000C0F9
:1047B00037FF8BB9330F000000C000C000C08BB9B9
:1047C00000C04A9591F7EACF2FBF8FE594E001979B
:1047D000F1F700C00000CDB7DEB7E6E00C94662B21
:1047E00090915E0390FF0DC0E7EDF2E0818360835E
:1047F00042831382349693E0E331F907B9F70E94BC
:104800005E23089580915E03282F269530E02115C0
:10481000310519F48170826005C02B32310524F016
:104820008170846580935E030895A0E0B0E0EBE1C1
:10483000F4E20C94442B49015A016B017C010E9463
:1048400002248401A4016A2D7B2D88E090E00E945F
:10485000072C94014A2D5B2DB601C70100E20E948E
:10486000EA2C622F84E290E00E94F52BCDB7DEB7F0
:10487000ECE00C94602B80916203882319F0815046
:104880008093620320915E0330915F034091600347
:10489000509161036091620370916303809164039E
:1048A000909165030E9415240895809162038330DE
:1048B00018F48F5F8093620320915E0330915F0351
:1048C00040916003509161036091620370916303B2
:1048D00080916403909165030E9415240895EEE58C
:1048E000F3E020812E7F20833181428153816481D6
:1048F0007581868197810E94152410928B030E94F6
:104900005E230895EEE5F3E023E0208311828FEF2C
:10491000828383831482758130E04FEF5FEF60E024
:10492000868197810E9415240895A0E0B0E0EBE90C
:10493000F4E20C94462BE82EF62EE901E42FF0E089
:10494000611106C0ED5CF94FE4914E2F2E2F71C01E
:10495000062F10E0ED5CF94F4491F42FC42ED12CBA
:1049600026E0829FC00111242FEF30E0B9010E94A0
:104970002A2B5BEA5603C001579F900D11248E0D20
:10498000911D8E0D911D582F550F580FD901A01B49
:10499000B10BAC9DC001AD9D900DBC9D900D11243F
:1049A000E92FF59ED0011124AB2FBB277901EA1A1C
:1049B000FB0AEC9CD001ED9CB00DFC9CB00D1124C9
:1049C0005901A51AB108A09E7001A19EF00CB09EDD
:1049D000F00C1124EF2CFF242E193F092C9D80018F
:1049E0002D9D100D3C9D100D1124212F623071055D
:1049F00091F048F461157105E1F061307105B9F489
:104A0000242F4B2F16C06430710569F040F06630DA
:104A1000710579F00CC0242F492FE12F0AC0492FCE
:104A2000EF2F2B2F06C0292FE42F412F02C0292F53
:104A3000EB2F49832883EA831B82CDB7DEB7EAE0F8
:104A40000C94622BA4E0B0E0E8E2F5E20C944E2B6B
:104A500090915E0390FF0AC09E012F5F3F4F0E941E
:104A600095244B8169818A810E94F0232496E2E09B
:104A70000C946A2BA4E0B0E0E0E4F5E20C94412B46
:104A8000F82E762EE42E622E90915E0390FF6CC07D
:104A9000E92FE695AE2FB0E0AF55BE4F8C918093D5
:104AA0008A039E7F923061F49E012F5F3F4F8F2DCE
:104AB0000E9495244B8169818A810E94F0233DC028
:104AC000823019F4E090610338C0863019F4F09018
:104AD0005F0333C08930D9F3893179F5E9518E2FDD
:104AE0008170582EE695F0E0ED5CF84FE4910E2FC2
:104AF00010E087EDC82E82E0D82EA12CB12C9FE0CB
:104B0000892E912CC501B4010E942A2B8F2D5110A2
:104B100002C0860F01C0861B96014E2D672D0E9494
:104B20009524A00EB11E84E0C80ED11C83E1C816E6
:104B300083E0D80639F70E945E23F0925F037092FB
:104B40006003E0926103662079F020915E0360913A
:104B50006203709163033F2D472D5E2D80916403A6
:104B6000909165030E9415242496EFE00C945D2B30
:104B7000EEE5F3E043812CE0421B08F440E021E045
:104B8000628181810E943A250895EEE5F3E0438138
:104B90002CE0420F08F44FEF21E0628181810E94F6
:104BA0003A250895EEE5F3E0628121E1621B08F405
:104BB00060E021E0438181810E943A250895EEE57D
:104BC000F3E0628121E1620F08F46FEF21E043819D
:104BD00081810E943A250895EEE5F3E0818121E08C
:104BE000438162818C500E943A250895EEE5F3E0FE
:104BF000818121E043816281845F0E943A2508958A
:104C00008091790380FD18C081FD14C082FD16C01B
:104C100080917803882381F08C3380F427E0829F91
:104C2000C00111246CE370E00E94A62C862F672B34
:104C300019F005C083E0089581E0089587E00895A4
:104C40008091790380FD17C081FD17C082FD19C0D6
:104C500080917703882399F08C3398F428E3829F1E
:104C6000C00111246CE370E00E94A62C862F672BF4
:104C700049F481E008958EE008958CE1089588E07C
:104C8000089588E30895282F35EB2303C0011124EC
:104C900097FF03C08058910902C080589F4F892F09
:104CA000089560915E03669570E04BE050E08DE3FF
:104CB00091E00E94272E892B19F481E080938B03C9
:104CC0000E9494219093850380938403089590918A
:104CD0005E0390FF3EC09170811102C0926006C0D9
:104CE0008B3210F0946502C0880F982B90935E036E
:104CF000662391F020915E0330915F034091600341
:104D00005091610360916203709163038091640329
:104D1000909165030E94152460915E03669570E092
:104D20004BE050E08DE391E00E94272E892B19F093
:104D300010928B0302C00E94512681E0809387036A
:104D400020E0409161036091600380915F030E94C5
:104D50003A25089561E00E946726089580915E03D8
:104D60008695815009F48AE261E00E9467260895E1
:104D700080915E0386958F5F8B3208F081E061E061
:104D80000E94672608950E94942120917F0321119B
:104D900004C020918003222321F090937D0380930F
:104DA0007C0320918103211104C0209182032223DE
:104DB00021F090937B0380937A03E0916E03F0914E
:104DC0006F03309731F00480F581E02D8EE793E09A
:104DD00009950895CF92DF92FF920F931F93CF937F
:104DE000DF936C010091EC0180919202082BC7E0E7
:104DF000D0E010E0C8010C2E02C0959587950A946A
:104E0000E2F780FD04C02197A8F7F12C09C0FC2E21
:104E1000B6018C2F0E94410F0E945E0F019799F3FB
:104E20008F2DDF91CF911F910F91FF90DF90CF9049
:104E30000895CF93DF93EC010E94EA26BE010E9401
:104E4000410F0E945E0FDF91CF910895292F9E3070
:104E500078F5863068F590E036E0239F800D911D4F
:104E60001124682F677023E0969587952A95E1F7BE
:104E7000FC01EE0FFF1FE80FF91FE457FC4F40E065
:104E800050E080E0219130E0062E02C03695279553
:104E90000A94E2F721703327042E01C0220F0A94EE
:104EA000EAF7822B4F5F5F4F4330510559F7089562
:104EB00080E00895292F9E3088F5863078F590E0BF
:104EC00036E0239F800D911D1124282F277051E07B
:104ED00001C0550F2A95EAF723E0969587952A9504
:104EE000E1F7FC01EE0FFF1FE80FF91FE457FC4F3D
:104EF00020E030E070E04081CB01022E02C09695A8
:104F000087950A94E2F78170819584278523842709
:104F100081932F5F3F4F2330310569F70895A0E259
:104F2000B0E0E5E9F7E20C944D2B0E94861C182FA7
:104F30008091CC02882361F085E08983812F0E94D3
:104F40008F1B8A838EEF8B83CE0101960E94321ACB
:104F50001093EC01A096E3E00C94692B21E030E083
:104F600001C0220F8A95EAF720958091EC018223F7
:104F70000E948F27089521E030E001C0220F8A951A
:104F8000EAF78091EC01822B0E948F27089580938D
:104F900092020895FC0124812223D9F0808191811D
:104FA0000E94192792959F70963079F010F49250D4
:104FB00001C09A50923068F4803F69F018F4883E3E
:104FC00040F409C0843F29F406C0883E20F0813FA8
:104FD00011F080E0089581E00895809134018823E4
:104FE00031F080919B0287FF02C08EE101C086E014
:104FF000E1E1F2E0DF011D928A95E9F780E090E0BF
:105000000E944B2280E090E00E94262210926903C9
:105010000E940511EEE7F3E085E0DF011D928A951D
:10502000E9F71092770310927803109279030E94A7
:10503000C3260895882321F00E94F7100E940511CD
:105040000895882339F090916903892B809369032F
:105050000E9405110895882321F00E94FE100E94ED
:1050600005110895882339F090919E02892B809331
:105070009E020E9405110895662309F45CC08D3CD0
:1050800021F40E942026819504C08E3C29F40E94C0
:10509000202680938003C5C08F3C21F40E942026E7
:1050A000819504C0803D29F40E94202680937F03CF
:1050B000B8C0893D19F40E94002605C08A3D31F42C
:1050C0000E940026819580938103ABC08B3D21F423
:1050D0000E940026819504C08C3D29F40E94002680
:1050E000809382039EC09FE2980F983078F421E06D
:1050F00030E0A90102C0440F551F9A95E2F7CA019A
:1051000090917E03892B80937E038BC08D3D21F48B
:105110008091790381600CC08E3D21F480917903E8
:10512000826006C08F3D09F07CC080917903846065
:105130008093790376C08D3C39F49091800397FF7A
:1051400035C01092800359C08E3C29F490918003A1
:105150001916BCF32BC090917F038F3C29F497FF65
:1051600025C010927F0349C0803D19F41916CCF375
:105170001DC090918103893D29F41916BCF4109249
:1051800081033BC08A3D19F497FF10C0F8CF8B3DD7
:1051900039F49091820397FF09C0109282032DC0C9
:1051A0008C3D21F4909182031916BCF39FE2980F75
:1051B000983080F421E030E0A90102C0440F551F6F
:1051C0009A95E2F7CA01809590917E038923809396
:1051D0007E0313C08D3D21F4809179038E7F0BC037
:1051E0008E3D21F4809179038D7F05C08F3D29F498
:1051F000809179038B7F8093790380917F03811164
:1052000006C080918003811102C0109277038091C3
:105210008103811106C080918203811102C0109226
:1052200078030E94C3260895882309F460C0823859
:1052300069F40E94702281FF5AC069E38FE092E016
:105240000E94F1210E94051169E30EC0833899F490
:105250000E94702280FF4BC063E58FE092E00E94C5
:10526000F1210E94051163E58FE092E00E94C921BF
:105270000E9405110895843869F40E94702282FF0B
:1052800036C067E48FE092E00E94F1210E94051190
:1052900067E4EACF9CEF980F913A10F4682FE4CFBF
:1052A00090E2980F983050F4877091E001C0990F08
:1052B0008A95EAF7892F0E94FE10DACF9BE5980FB6
:1052C000933028F480E090E00E944B22089598E506
:1052D000980F9B3128F480E090E00E9426220895E8
:1052E00093E3980F933118F460E00E943C280895EE
:1052F000CF93882309F4BDC0C82F8238B1F40E942F
:10530000702281FDB6C069E38FE092E00E94F12136
:105310000E9405112FEF87EE93E0215080409040CE
:10532000E1F700C0000069E317C08338E1F40E9490
:10533000702280FD9EC063E58FE092E00E94F12123
:105340000E9405112FEF81EE94E0215080409040A3
:10535000E1F700C0000063E58FE092E00E94C92100
:105360000E94051186C08438B1F40E94702282FD2B
:1053700080C067E48FE092E00E94F1210E94051155
:105380002FEF81EE94E0215080409040E1F700C083
:10539000000067E4E1CF8CEF8C0F813AB8F5809183
:1053A00034018823E1F080919B0287FF18C0EC2F25
:1053B000E695E695E695F0E0E15FFD4F8281282FC6
:1053C00030E04C2F477081E090E002C0880F991FB9
:1053D0004A95E2F782239323892B59F411C0E1E126
:1053E000F2E08191C81729F022E0E731F207C9F70E
:1053F00007C06C2F8FE092E00E94C9210E94051126
:105400006C2F8FE092E00E94F121AACF80E28C0FF6
:10541000883068F4C77081E090E001C0880FCA95B9
:10542000EAF790919E02892B80939E0299CFEBE53B
:10543000EC0FE33040F4F0E0EC5AFE4F808190E056
:105440000E944B2216C0E8E5EC0FEB3150F4F0E07F
:10545000EE0FFF1FE95AFE4F808191810E942622A4
:1054600008C083E38C0F833120F461E08C2F0E940D
:105470003C28CF9108951F93CF93DF93182F893342
:1054800019F0C0E0D0E002C0C0E5D0E0812F0E945A
:105490007829209741F08FE99FE00197F1F700C04C
:1054A00000002197F6CF812F0E941429DF91CF9120
:1054B0001F9108951092B9008CE08093B800089570
:1054C000A0E0B0E0E6E6FAE20C94452BB82EEB0142
:1054D0000E9494216C01C431D10558F0CF3F8FEF69
:1054E000D80759F0CE0164E170E00E942A2B7B01BD
:1054F00007C0EE24E394F12C03C025E0E22EF12C4A
:1055000084E8A82E94EA992E1092BC009092BC00D8
:105510000E9494218C018091BC0087FD07C0C801C6
:105520000E948521E816F906B0F729C08091B900DC
:10553000887F883041F08091B900887F803119F0F0
:105540000FEF1FEF1EC0B092BB00A092BC000E94E4
:1055500094218C018091BC0087FD07C0C8010E9486
:105560008521E816F906B0F70AC08091B900887F56
:10557000883111F0803421F700E010E00EC00EEF0A
:105580001FEFCF3F8FEFD80709F4BECFC6010E94AF
:105590008521C817D90708F0B7CFC801CDB7DEB746
:1055A000EBE00C94612B0F931F93CF93DF93EB01F0
:1055B0008093BB0084E88093BC000E9494218C01FE
:1055C0008091BC0087FD0DC0CF3F8FEFD807C1F39E
:1055D000C8010E948521C817D90790F78EEF9FEF69
:1055E0000CC02091B900287F81E090E0283211F4AE
:1055F00080E090E0919581959109DF91CF911F9185
:105600000F9108950F931F93CF93DF93EC0184E8DC
:105610008093BC000E9494218C018091BC0087FD86
:105620000DC0CF3F8FEFD807C1F3C8010E9485217D
:10563000C817D90790F78EEF9FEF03C08091BB008A
:1056400090E0DF91CF911F910F91089584E98093AD
:10565000BC000895AA1BBB1B51E107C0AA1FBB1FBA
:10566000A617B70710F0A61BB70B881F991F5A95EE
:10567000A9F780959095BC01CD0108952F923F9296
:105680004F925F926F927F928F929F92AF92BF9252
:10569000CF92DF92EF92FF920F931F93CF93DF93FE
:1056A000CDB7DEB7CA1BDB0B0FB6F894DEBF0FBE5B
:1056B000CDBF09942A88398848885F846E847D84A8
:1056C0008C849B84AA84B984C884DF80EE80FD80AA
:1056D0000C811B81AA81B981CE0FD11D0FB6F89420
:1056E000DEBF0FBECDBFED0108958F929F92AF92A6
:1056F000BF92CF92DF92EF92FF92CF93DF93EC01B4
:10570000688179818A819B81611571058105910587
:1057100021F464E279ED8BE597E02DE133EF41E090
:1057200050E00E94292C49015A019B01AC01A7EAD3
:10573000B1E40E94482C6B017C01ACEEB4EFA501F2
:1057400094010E94562CDC01CB018C0D9D1DAE1DD9
:10575000BF1DB7FF03C00197A109B0488883998393
:10576000AA83BB839F77DF91CF91FF90EF90DF906B
:10577000CF90BF90AF909F908F9008950E94752B0F
:10578000089580E091E00E94752B0895A0E0B0E0BC
:105790008093000190930101A0930201B093030153
:1057A0000895F999FECF92BD81BDF89A992780B5E9
:1057B0000895A6E1B0E044E050E00C941B2CA8E171
:1057C000B0E042E050E00C941B2CDC01A40FB51FAC
:1057D0004150504048F0CB01840F951F2E910E94FC
:1057E000F62B41505040D0F70895262FF999FECF5F
:1057F00092BD81BDF89A019700B4021639F01FBA24
:1058000020BD0FB6F894FA9AF99A0FBE0895039640
:10581000272F0E94F62B0E94F52B252F0E94F62B96
:10582000242F0C94F62B0196272F0E94F62B0C9414
:10583000F52BDC01CB01FC01F999FECF06C0F2BDCE
:10584000E1BDF89A319600B40D9241505040B8F73E
:105850000895052E97FB1EF400940E94402C57FDDE
:1058600007D00E945B2C07FC03D04EF40C94402C14
:1058700050954095309521953F4F4F4F5F4F08957C
:1058800090958095709561957F4F8F4F9F4F0895AC
:105890000E947D2CA59F900DB49F900DA49F800D1C
:1058A000911D11240895B7FF0C94482C0E94482C98
:1058B000821B930B0895A1E21A2EAA1BBB1BFD01AC
:1058C0000DC0AA1FBB1FEE1FFF1FA217B307E407DF
:1058D000F50720F0A21BB30BE40BF50B661F771F37
:1058E000881F991F1A9469F7609570958095909517
:1058F0009B01AC01BD01CF010895A29FB001B39FF0
:10590000C001A39F700D811D1124911DB29F700DC8
:10591000811D1124911D0895991B79E004C0991FE0
:10592000961708F0961B881F7A95C9F780950895F9
:1059300087FB082E062687FD819567FD61950E94ED
:105940008C2C0EF4919507FC8195089597FB072EFA
:1059500016F4009407D077FD09D00E942A2B07FC8B
:1059600005D03EF4909581959F4F0895709561956F
:105970007F4F0895EE0FFF1F0590F491E02D0994DD
:105980000E947D2C332312F48A1B9B0B0C94CA2C8F
:105990000E947D2CB7FF0895821B930B08950F93EF
:1059A000083090F0982F872F762F652F542F432F94
:1059B000322F22270850F4CF220F331F441F551FC8
:1059C000661F771F881F991F0A95B2F70F910895D8
:1059D00097FB10F8169400080F93083098F00850C1
:1059E000232F342F452F562F672F782F892F902D57
:1059F000F4CF059497958795779567955795479533
:105A0000379527950A95AAF70F9108950F931F933D
:105A1000CF93DF938230910510F482E090E0E09123
:105A2000AF03F091B00320E030E0A0E0B0E03097A9
:105A300019F1408151810281138148175907C8F03B
:105A40008417950769F4109731F012960C9312970A
:105A500013961C9327C00093AF031093B00322C08A
:105A60002115310519F04217530718F49A01BD01A9
:105A7000EF01DF01F801DBCF21153105F9F0281B1B
:105A8000390B2430310580F48A819B8161157105C1
:105A900021F0FB019383828304C09093B003809331
:105AA000AF03FE01329644C0FE01E20FF31F819363
:105AB000919322503109398328833AC02091AD0354
:105AC0003091AE03232B41F4209106013091070160
:105AD0003093AE032093AD03209104013091050172
