:100000000C9495030C94B2030C94B2030C94B203B9
:100010000C94B2030C94B2030C94B2030C94B2038C
:100020000C94B2030C94B2030C94C6180C940818E8
:100030000C9467210C94B2030C94B2030C94B20399
:100040000C94B2030C94B2030C94B2030C94B2035C
:100050000C94B2030C9426210C94B2030C94B203BA
:100060000C94B2030C94B2030C94B2030C94B2033C
:100070000C94B2030C94B2030C94B2030C94B2032C
:100080000C94B2030C94B2030C94B2030C94B2031C
:100090000C94B2030C94B2030C94B2030C94B2030C
:1000A0000C94B2030C94B2030C94B203FD05040645
:1000B00009060E06130618061D06220627062C063C
:1000C0003106640438063B063E06410644064706F0
:1000D00049064C064E062D072D075C075C07D7071F
:1000E000F507F708F708FA076E087F087F081B1660
:1000F0004216F0174216F0178E16B116F017A61713
:10010000B6176E1C731C7D1C711C761C7B1C791C25
:10011000101E131E161E191E1C1E1F1E221E00005E
:1001200000000000000000000000000000000000CF
:1001300000000000000000000000000000000000BF
:1001400000007E0F00D4FFFFFFC700000078000012
:100150000000000000002A2B280000000000000022
:1001600000000000000000000029000000002C1E1C
:100170003420212224342627252E362D3738271ED9
:100180001F202122232425263333362E37381F04FF
:1001900005060708090A0B0C0D0E0F101112131497
:1001A00015161718191A1B1C1D2F3130232D350455
:1001B00005060708090A0B0C0D0E0F101112131477
:1001C00015161718191A1B1C1D2F3130354C1E0F10
:1001D0000500047F3F1F643214643214783C1E1EF5
:1001E000140A0529002B00E000E100A90000001E10
:1001F00000140004001D00AA00E2001F001A0016EF
:10020000001B00BD00E3002000080007000600BE40
:10021000002C00210015000922190028784D002229
:100220000017000A0005000000C15200572D000011
:10023000002F0000004A00A8002E0000003000003F
:10024000004B0023001C000B0011000000C15224D1
:100250000018000D00100027784E0025000C000E3D
:10026000003600037E2800260012000F003700042D
:100270007E2A00270013003300380001572900357B
:100280000031003400E500C15200002900010001E6
:10029000000100010000003A00D100CF0001000180
:1002A00000727C3B00CD00CE00D300010001003C79
:1002B00000D200D0000100010001003D00D900DAA9
:1002C000000100010001003E0001003500010000B6
:1002D0000001004400010000000100000001004591
:1002E00000010000000100000001003F000100507B
:1002F0000001000000010040000100510001000168
:1003000000010041004900520001000100010042CB
:100310000046004F00010001000100430001000100
:100320000001000100717C010001000100010001D9
:1003300000000005010980A101850319012AB70009
:10034000150126B700950175108100C0050C090143
:10035000A101850419012AA002150126A002950118
:1003600075108100C005010906A101850605071960
:10037000E029E71500250195087501810205071997
:100380000029EF1500250195F07501810205081976
:10039000012905950575019102950175039101C02B
:1003A00005010902A1010901A10005091901290896
:1003B00015002501950875018102050109300931F3
:1003C0001581257F95027508810609381581257FDD
:1003D000950175088106050C0A38021581257F955F
:1003E0000175088106C0C00660FF0961A1010962AC
:1003F000150026FF00952075088102096315002667
:10040000FF00952075089102C005010906A10105AC
:100410000719E029E7150025019508750181029566
:1004200001750881010507190029FF150026FF0045
:100430009506750881000508190129051500250193
:10044000950575019102950175039101C00902742A
:1004500000040100A0FA09040000010301010009E1
:100460002111010001224400070581030800010950
:1004700004010002030000000921110100012222F1
:10048000000705830320000107050403200001097C
:1004900004020001030102000921110100012247A9
:1004A000000705820308000109040300010300009E
:1004B00000092111010001226D00070585032000BC
:1004C0000112010002000000089732754901000185
:1004D00002000122034500720067006F0044006FB4
:1004E000007800200045005A002000530068006991
:1004F000006E006500000028035A005300410020F0
:100500000054006500630068006E006F006C006FAF
:10051000006700790020004C006100620073000059
:1005200000040309042223252628292A2C2D2F30F4
:1005300032333536383A3B3D3E4042434547494ADF
:100540004C4E5051535557595A5C5E606264666810
:10055000696B6D6F71737577797B7D7F818385871B
:10056000898A8C8E90929496989A9C9E9FA1A3A51E
:10057000A7A8AAACAEAFB1B3B4B6B8B9BBBCBEBF46
:10058000C1C2C3C5C6C7C9CACBCCCDCED0D1D2D2C9
:10059000D3D4D5D6D7D7D8D9D9DADADBDBDBDCDCD4
:1005A000DCDCDCDDDDDDDDDCDCDCDCDCDBDBDBDA8C
:1005B000DAD9D9D8D7D7D6D5D4D3D2D2D1D0CECDF7
:1005C000CCCBCAC9C7C6C5C3C2C1BFBEBCBBB9B804
:1005D000B6B4B3B1AFAEACAAA8A7A5A3A19F9E9C89
:1005E0009A98969492908E8C8A89878583817F7D54
:1005F0007B79777573716F6D6B6968666462605E35
:100600005C5A5957555351504E4C4A4947454342FD
:10061000403E3D3B3A3836353332302F2D2C2A2997
:100620002826252322000101010101010101010207
:100630000202020202020202030303030303030392
:10064000040404040404040505050505060606065D
:1006500006070707070708080808090909090A0A19
:100660000A0B0B0B0C0C0C0D0D0D0E0E0E0F0F0FBD
:100670001010111111121213131414151516161748
:1006800017181819191A1A1B1B1C1D1D1E1E1F20B6
:1006900020212222232424252626272829292A2B03
:1006A0002C2D2D2E2F303132323334353637383928
:1006B0003A3B3C3D3E3F4041424344454647484922
:1006C0004A4C4D4E4F50515354555658595A5B5DF4
:1006D0005E5F616264656668696B6C6D6F70727392
:1006E0007577787A7B7D7E8082838587888A8C8EF9
:1006F0008F91939596989A9C9EA0A2A3A5A7A9AB2B
:10070000ADAFB1B3B5B7BABCBEC0C2C4C6C9CBCD1C
:10071000CFD1D4D6D8DBDDDFE2E4E7E9EBEEF0F3CE
:10072000F5F8FAFDFFFFAA7F554011241FBECFEF59
:10073000DAE0DEBFCDBF11E0A0E0B1E0EEE3FBE523
:1007400002C005900D92AC3CB107D9F723E0ACECA8
:10075000B1E001C01D92AD3AB207E1F70E94350940
:100760000C949D2D0C940000A0E0B0E0EAEBF3E0C7
:100770000C949C2AFC012481222309F471C57C017C
:1007800061E00E946B1BEC01F7018581882309F46D
:1007900050C58091660390916703009709F45EC08D
:1007A000C817D90709F45AC0992764E0880F991F20
:1007B0006A95E1F7FC01E75EFE4F2081246020830B
:1007C0008C5E9E4FFC01D183C0830E9463221092F5
:1007D000650361E0C7010E946B1BEC0181159E4718
:1007E00009F040C0F7018581882309F427C590915D
:1007F000D90181E0890F8770987F853020F4892B9B
:100800008093D90102C09093D9018091D90187705A
:10081000FFEF8F9FC001112495958795959587953A
:100820009927909389008093880090938B00809300
:100830008A0090938D0080938C004091D901509153
:10084000DA016091DB017091DC018FE090E00E94A1
:10085000632B8091EC010E944E1CF0C4C115FEE791
:10086000DF0729F2F7018581C230FEE7DF07F1F0EB
:1008700028F4C1303EE7D307E9F02FC0C3304EE77C
:10088000D40729F0C4305EE7D50731F026C08823AD
:1008900041F08FE992E007C0882319F081E292E0ED
:1008A00002C080E090E00E94ED2170C2882309F42C
:1008B0006DC20AC0882309F469C29091CE0181E01B
:1008C00089278093CE0162C281E004C08160809359
:1008D0005D0386950E94042659C29E0137552F3F1D
:1008E000310511F008F059C06E01DD24960144E095
:1008F000220F331F4A95E1F789010C5E1E4FF90163
:10090000E75EFE4F6F01908180FB90F99083F701C5
:100910008581882341F10E945B2190930D02809391
:100920000C02F80182818F5F828390916503809130
:100930009E02892B83838091910284834681578113
:1009400066857785C8010E944422F601808181FF77
:1009500003C090E080E002C09C2F8D2F909366032F
:10096000809367031AC0F8014485558566857785AD
:10097000C8010E944422F601808181FF0EC0C80197
:100980000E944A2280916603909167038C179D070D
:1009900021F41092670310926603F7018581882382
:1009A00009F41DC1C137FCE7DF0709F408C1C237EC
:1009B0002CE7D20709F409C1C0373CE7D30709F097
:1009C00072C1809034019090350180910A0190911C
:1009D0000B018816990639F48091D501803219F4FB
:1009E0008FEC91E037C090920B0180920A0180E277
:1009F0008093D501A12CB12C1092D40104ED11E00B
:100A0000C0E0D0E02AE0422E512C612C712CC501AF
:100A1000B401A30192010E94B72B605D603311F411
:100A2000209739F081149104A104B10419F460E213
:100A300001C060E3F80162938F01C501B401A30115
:100A400092010E94B72B49015A012196C530D10568
:100A5000F1F6C6CFEC01019628812032D9F39AE055
:100A6000892E2881222309F491C1213009F048C040
:100A70008981813071F48E010E5F1F4F8A81893325
:100A800019F460E570E002C060E070E00E949E2909
:100A900008C0823041F48E010E5F1F4F8A810E9490
:100AA000DB28E8018AC0833039F48E010E5F1F4FC6
:100AB0008A810E947728F5CF843011F021967DC07D
:100AC0002A81229680E090E030E0205331092A30DC
:100AD000310558F4889EA001899E500D1124C9014A
:100AE000840F951F21962881EFCF009709F465C0E8
:100AF000EFE9FFE03197F1F700C000000197F5CF73
:100B0000E22FF0E0E25BFE4F9490822F869586956F
:100B1000869590E0FC01E25CFE4FC4902770D12CDA
:100B2000022E02C0D594C7940A94E2F7F1E0CF22D6
:100B3000DD24FC01E25DFE4FA490B12C022E02C028
:100B4000B594A7940A94E2F731E0A322BB24FC01F8
:100B5000E25EFE4F049110E002C0159507952A95BC
:100B6000E2F701701127C114D10419F081EE0E943F
:100B7000DB28A114B10409F46AC386EE0E94DB28C5
:100B800049E3941609F45DC360E070E0892D0E948A
:100B90009E29A114B10419F086EE0E947728C11491
:100BA000D10419F081EE0E9477280115110529F072
:100BB00060E070E08CE20E949E29219652CF8091E5
:100BC000340190913501059605C0809134019091D2
:100BD000350105979093350180933401D7C08091FA
:100BE0009E028272FE01E052F847E531F10508F0FD
:100BF000DFC0EA5AFF4F0C94162C80915D0380FFF2
:100C000065CE0E94C923C2C048E056E262E176E2A6
:100C10002CC042E156E268E076E227C046E455E2A5
:100C200060E575E222C040E555E266E475E21DC06C
:100C30004CE255E269E375E218C049E355E26CE223
:100C400075E213C042E155E26FE175E20EC04FE17B
:100C500055E262E175E209C045E953E26FEA73E2E9
:100C600004C04FEA53E265E973E20E94B1228EC0EC
:100C700065E082E015C068E086E012C06EE089E0C1
:100C80000FC064E18FE00CC067E185E109C088E135
:100C900021CE62E289E104C083E21CCE6AE285E2F1
:100CA0000E949E2273C0C3305CE7D50709F459C087
:100CB00048F4C1159CE7D907A9F0C130DC4709F415
:100CC00056C076C0CB35FCE7DF0709F45BC0CC35F6
:100CD0002CE7D20709F44EC0CA35DC4709F068C0DA
:100CE00081E051C010929E020E9450274FEF54E3C2
:100CF0008CE0415050408040E1F700C00000F89483
:100D000081E08093E00080E28093D8001092C900D7
:100D1000EFE1FEE43197F1F700C000001DBA109238
:100D200068001CBC10BE1FBA10927A0010926E00B0
:100D300010926F0010927100109272001092C90010
:100D40001092BC0014B817B81AB81DB810BA109297
:100D5000BC0015B818B81BB81EB811BA0C94003FE7
:100D600015C06FEF7FEF80E090E00E946F2B0E9434
:100D7000361C0CC080919C0282FB882780F991E090
:100D8000892701C080E00E94341112C08091700256
:100D9000877009F465C2F7018581882309F460C270
:100DA00080919C0282FF5CC282E00E941D1158C2A9
:100DB000F7018581C081D181882349F0CE010E944D
:100DC0004426182F682FCE010E94B42604C0CE01FD
:100DD0000E948026182FBE01812F0E94040F0E94BE
:100DE000210FD82FC92FC82EF70115810681029532
:100DF0000F7080917002877001F11123F1F0892F3B
:100E0000807F803469F080E28D0F8830B0F0892FC8
:100E1000807E803229F4F1E0FD1778F4002369F038
:100E200080919C0282FF09C082E00E941D11809186
:100E300070028770DD24D3948111D12CBC2EB29422
:100E40008FE0B8228B2D90E08C30910508F0CFC157
:100E5000FC01E559FF4F0C94162C8C2F807FCF702E
:100E6000882311F0C295C07F1123B9F0CC2309F477
:100E7000ACC180E28D0F883010F0C11006C0909197
:100E80009E02C92BC0939E0205C090916503C92B99
:100E9000C09365030E94C81098C18D2F0E947728C7
:100EA000CC2309F4A4C1D05E8C2FD83068F1CC20BB
:100EB00059F10E94BA102AC08C2F807FCF708032E7
:100EC00011F0C295C07FCC2029F021E0C21609F4B0
:100ED0004CC054C080919C0282FD1BC0112369F05C
:100EE000CC2339F090919E02C92BC0939E020E94A0
:100EF000C81080E00E94DB287AC180E00E94772839
:100F0000CC2309F474C18C2F0E94C1100E94C81018
:100F10006EC1112381F00023A9F1013009F067C1EE
:100F2000909191028C2F8923C81709F460C1C92BB5
:100F3000C09391025CC101115AC18C2F0E948E276F
:100F4000809191029C2F982329F09C2F90958923C2
:100F5000809391028091D6019C2F982309F447C178
:100F6000C0958C238093D60142C1112321F0023019
:100F700008F03DC107C001113AC115C0112331F07D
:100F8000011123C18C2F0E94952731C1002359F0F4
:100F9000D93309F029C13FEF47EE53E031504040CB
:100FA0005040E1F71FC18C2F0E948E2720C18C2F4B
:100FB00086958695837019F0813061F018C11123F0
:100FC00021F08D2F9C2F937002C080E090E00E9452
:100FD000122213C1112321F08D2F9C2F937002C078
:100FE00080E090E00E94ED2108C1612F8D2F0E94CA
:100FF0009F2703C18C2F8370A9F51111FCC04D2FC1
:10100000429546954770440F440F8D2F8F7090E0A6
:101010009C01042E01C0220F0A94EAF7D4FF08C0F5
:101020008FE090E001C0880F4A95EAF7809501C0F3
:1010300080E0C695C695C370C23069F088F490917F
:101040009202C13019F0822B892302C0922B892B86
:101050000E942A27D0C0822B909192028927F8CF34
:10106000822BF6CF112319F08C2F817001C0869549
:10107000882309F4C0C04D2F429546954770440F10
:10108000440F8D2F8F7090E09C01042E01C0220F21
:101090000A94EAF7D4FF08C08FE090E001C0880FFF
:1010A0004A95EAF7809501C080E0C695C695C37061
:1010B000C23059F078F49091EC01C13019F0822BD4
:1010C000892309C0922B892B06C0822B9091EC01B9
:1010D000892701C0822B0E94E9268DC0CF70112381
:1010E00039F08C2F0E941E278D2F0E94952783C0D8
:1010F0008D2F0E948E278C2F0E9411277CC08D2F50
:1011000092EFC91661F19C1538F0E0EFCE1659F058
:10111000F1EFCF16F9F055C023EFC21639F134EFD5
:10112000C316A1F04EC0112369F0011160C0CF7148
:1011300081E090E001C0880FCA95EAF79091EC0138
:1011400089271EC0023008F052C0F1CF80919C0266
:1011500082FD19C0112329F08C2F8F7126C0112315
:10116000D9F38C2F8F710E94112741C0112339F0C0
:10117000CF7181E001C0880FCA95EAF701C080E015
:101180000E94E92634C0112399F0CF718C2F0E9460
:101190001E2780919C0282FF07C048E0C49FC001C7
:1011A00011248360809370028C2F0E941E271FC021
:1011B00081E00E941D110230D0F082E00E941D11DA
:1011C00016C0112321F0002339F28D2F93CE002376
:1011D00041F2893349F45FEF87EE93E0515080404C
:1011E0009040E1F700C000008D2F0E94772888EF23
:1011F0008B0D843010F40E943722DD20A9F08091FD
:10120000700280FD11C0F70115828695869586953E
:101210000E941E27C7010E94B40380917002869528
:10122000869586950E94112760E0C7010E946B1B7E
:1012300017C0C1153EE7D30709F014CBC0E0DEE7C5
:10124000ACCB60E570E089E30E949E29A5CC29E340
:1012500092129ACC60E570E089E30E949E299FCCAF
:10126000CDB7DEB7E0E10C94B82AA6E4B0E0EBE33A
:10127000F9E00C949E2A85B7806885BF85B78068A1
:1012800085BF84B7877F84BF0FB6F894A8958091F7
:101290006000886180936000109260000FBE90E053
:1012A00080E80FB6F89480936100909361000FBEC0
:1012B00087EF9DE09093CD018093CC010E944C1864
:1012C0000E946B188091E20084608093E200789421
:1012D0008091CE028823A1F01091E9001F709091B7
:1012E000EC00892F817090FD80E8182B1092E900A6
:1012F0008091E80083FD0E9436151F701093E9006D
:1013000082E084BD93E095BD9AEF97BD80936E0017
:101310000E94EB1C90E090933C0180933B010E9463
:10132000261E0E946C1EEDEDF1E0AFEEB1E01192D1
:101330001D9221E0EB3EF207D1F78EE090E00E9493
:10134000622C8093D7019093D801FC010E961192E4
:101350008E179F07E1F789EA8093800089E08093E8
:10136000810024982C983F988AB18F7C8AB96E9816
:10137000479A8BB180638BB9769A8FE090E00E9498
:10138000352B6093D9017093DA018093DB01909340
:10139000DC0167708FEF689FB00111247595679528
:1013A000759567957727709389006093880070938F
:1013B0008B0060938A0070938D0060938C000E9474
:1013C000621D80E090E00E943B2B863E9E4F11F014
:1013D0000E943E1082E090E00E942D2B8093FD0140
:1013E00084E090E00E943B2B90939C0280939B02B0
:1013F00083E090E00E942D2B0E942A278091EC012F
:101400000E944E1C8091EB01811176C080E090E03B
:101410000E943B2B863E9E4F21F00E943E100E9470
:10142000DC2388E090E00E94352B4B015C0184E2D4
:1014300090E00E942D2B282F30E040E050E060E04B
:1014400070E080E090E000E20E942B2C28293929EE
:101450004A295B2920935D0330935E0340935F0329
:1014600050936003609361037093620380936303FE
:10147000909364032E7F89F50E94DC2388E090E03E
:101480000E94352B6B017C0184E290E00E942D2BA1
:10149000282F30E040E050E060E070E080E090E035
:1014A0000E942B2CB22FA32FF42FE52F5B01970165
:1014B0008601BC29A12BF22BE32BB0935D03A093F3
:1014C0005E03F0935F03E093600360936103B09267
:1014D000620380936303909364030E945C231092E1
:1014E000870380915D0380FF04C060E086950E94C1
:1014F000C12581E08093EB018091EC010E944E1C9C
:101500008CE091E090936B0380936A0388E1E82E6E
:10151000F12C8091CE02853009F07EC000E4D02EFF
:10152000CC24C39400E112E18091CE02853009F011
:101530005CC08091CE02843009F434C010928703DD
:101540008091EE0181110DC0C092EE0180915D038A
:10155000982F91709093ED018E7F80935D030E9490
:10156000B82210926E030FB6F894A895E09260002E
:101570000FBED092600083B7817F846083BF83B742
:10158000816083BF7894889583B78E7F83BF0FB6C1
:10159000F894A89580916000886180936000109213
:1015A00060000FBE8091C202882309F4BDCF0E9463
:1015B000EB1C90E090933C0180933B010E94261E1F
:1015C0000E946C1EEFEEF1E0119221E0ED3FF20778
:1015D000D9F70E945213EFEEF1E081918111E6C23A
:1015E00081E0ED3FF807C9F79FCF10929E020E945D
:1015F00050270E9437221092EE018091ED0188233E
:1016000049F080915D03816080935D0360E0869581
:101610000E94C1250E94AB250E9452131EEFC12ECD
:1016200011E0D12E2CE032E0AFEEB1E0F601919165
:101630008D9189272E173F0719F08823C1F305C024
:10164000811103C00E942E1454C0BFEE8B2EB1E056
:101650009B2E10E0F40171904F01F601A080A724A9
:10166000B1F100E0BB24B394662463948A2D8B21EE
:1016700041F122960FAF229723961FAF23970E9426
:101680005B2125969FAF8EAF259726966FAE269746
:1016900091E0872D8B2109F490E027969FAF279743
:1016A00022964FAD229723965FAD239724966FAD78
:1016B000249725967FAD259726968FAD26970E9475
:1016C000961B0F5FBB0C063089F6F60170821F5F18
:1016D000FFEFCF1ADF0A1E3009F0BCCF8FB7F894A6
:1016E00040916F0350917003609171037091720388
:1016F0008FBF8091660390916703892B09F18091D8
:101700000C0290910D020E944C21209134013091E5
:10171000350128173907A0F480916603909167037B
:101720009927A4E0880F991FAA95E1F7FC01E75ECD
:10173000FE4F208122FD04C08C5E9E4F0E946322DA
:1017400080918703882309F4A5C080918603E091E6
:101750005D03E695E81BE0938203823059F4F0E0E4
:10176000E152FE4FE4910E2F10E0FEEECF2EF0E29C
:10177000DF2E6BC0863059F4F0E0E452FE4FE49166
:101780000E2F10E0EEEDCE2EE0E2DE2E5EC08930B0
:1017900061F4E695F0E0E752FE4FE4910E2F10E081
:1017A0007AE7C72E70E2D72E50C08F3061F4E695ED
:1017B000F0E0EA52FE4FE4910E2F10E064E1C62EF5
:1017C00060E2D62E42C0853159F4F0E0ED52FE4F72
:1017D000E4910E2F10E054ECC52E5FE1D52E35C0FC
:1017E0008831F9F0833249F4E1EDF1E0059114918B
:1017F00044EAC42E40E2D42E28C08432C9F0853297
:10180000F1F48E2F63E00E94E82BE92FF0E0E25321
:10181000FE4FE4910E2F10E03DE7C32E3EE1D32EA4
:1018200014C008E210E029E4C22E2FE1D22E0DC030
:1018300004EF11E091E1C92E9FE1D92E06C000ED21
:1018400017E08CE7C82E8EE1D82E80918303882381
:1018500061F0109283030E945B2190938103809337
:10186000800310928503109284030E945B21E09113
:101870008003F09181038E1B9F0B8F3F9F4750F495
:101880000E0F1F1F109381030093800380E893E0E5
:10189000F6010995B0907A03C0907B0310917C0308
:1018A000D0907D0300917E0310927B0310927C0305
:1018B00010927D0310927E03C11003C0112309F41E
:1018C00047C080917803909179030E944C219C013C
:1018D00090917303992309F481C125313105C0F139
:1018E0009F3F19F09F5F90937303CC2061F00E949B
:1018F0007A251C1414F491E001C09FEF899F802D7C
:10190000112480937B03112361F00E947A25111624
:1019100014F09FEF01C091E0899F802D11248093E6
:101920007C0380917B03882399F0A0907C03AA20FC
:1019300079F00E949D25811101C081E080937B0395
:101940008A2D0E949D25811101C081E080937C0336
:10195000D11003C0002309F447C080917603909111
:1019600077030E944C219C0190917403992309F400
:1019700039C125313105C0F19F3F19F09F5F909328
:101980007403DD2061F00E945A251D1414F491E0C7
:1019900001C09FEF899F802D112480937D03002338
:1019A00061F00E945A25101614F09FEF01C091E0DB
:1019B000899F802D112480937E0380917D0388234D
:1019C00099F0A0907E03AA2079F00E949D258111B4
:1019D00001C081E080937D038A2D0E949D258111A5
:1019E00001C081E080937E0380917A038B111AC03D
:1019F00080917B03882311F08C1114C080917C03AB
:101A0000882311F018130EC080917E03882311F0F3
:101A1000081308C090917D03992331F081E0D91219
:101A200004C002C081E001C080E080FD15C080914B
:101A30007B0381110FC080917C0381110BC08091C9
:101A40007D03811107C081E090917E03911103C055
:101A500080E001C081E080FD0E941D26B0927A03E3
:101A6000C0927B0310937C03D0927D0300937E038E
:101A70000E94372290910E02891769F080930E021E
:101A80008FB7F89440916F03509170036091710388
:101A9000709172038FBF8091CE02843009F039CDEE
:101AA0008093E9008091E80082FF33CD8091E800C7
:101AB00085FF22C00E949D1981111CC000E210E028
:101AC0006E01F1E2CF0ED11C08C08091F100F60149
:101AD00081936F010150110969F08091E80085FD43
:101AE000F4CF8091E8008B778093E8000E949D19E5
:101AF000882399F391E001C090E08091E8008B7712
:101B00008093E800992309F404CD89A1853009F474
:101B100047C048F4813001F190F0823009F4F9CCEB
:101B2000843029F13FC08730C9F1D0F18830C1F14C
:101B30008E3FC1F5898393E09A838B8313C019820A
:101B40008CE0E8E4F1E0DE01129601900D928A95B6
:101B5000E1F78EEF8D8706C08093CC0284E0898305
:101B60008EEF8A83CE0101960E94FA19D2CC809121
:101B7000CC02882309F4CDCC8AA1811104C08BA1A9
:101B80000E941127C6CC81E090E00BA002C0880F14
:101B9000991F0A94E2F70E94E926BBCC85E003C0B6
:101BA00084E001C08FEF0E948D22B3CC09BD19BD26
:101BB00009B400FEFDCF8091D8008F7D8093D800BE
:101BC0008091E00082608093E0008091E00081FDE0
:101BD000FCCF10929E020E945027A6CC232B09F026
:101BE00081CEB6CE2139314008F0C8CEFDCE80E09E
:101BF000089590919B0292FF10C041E0282F24711C
:101C0000243009F040E031E0282F2871283009F015
:101C100030E0431711F02CE0822793FF10C041E021
:101C2000282F2471243109F040E031E0282F287159
:101C3000283109F030E0431711F02CE08227309171
:101C40009C0230FF10C051E0282F2171213009F093
:101C500050E041E0282F2871283009F040E0541767
:101C600011F029E0822731FF10C041E0282F2171B7
:101C7000213109F040E031E0282F2871283109F0A6
:101C800030E0431711F029E0822794FD877E089504
:101C90008238910569F1B0F48133910509F475C07A
:101CA00048F48932910509F467C08A32910509F434
:101CB00071C008958533910509F459C089339105A0
:101CC000B9F00895833E910589F138F4803E91057D
:101CD000D1F0823E910529F10895863E9105C9F122
:101CE000873E9105D9F1843E910509F06CC027C06B
:101CF00020919B0220FD57C021FD55C020919C02E0
:101D000023FD5BC0089580919B0280FD48C08091B7
:101D10009C0280FF48C080919B0284FD46C083EEF8
:101D200051C080919B0282FF3CC0F5CF80919B0205
:101D300082FD37C080919C0280FD35C0ECCF809140
:101D40009C0281FF36C080919B0284FD2EC087EEED
:101D500039C080919B0283FF2AC0F5CF80919B02FE
:101D600083FD25C080919C0281FD23C0ECCF809132
:101D70009B0285FD22C01FC080919B0285FD1BC078
:101D800080919C0283FF19C00AC080919B0286FD4E
:101D900016C017C080919B0286FD13C010C089E356
:101DA00011C082EE0FC080EE0DC080E00BC086EE49
:101DB00009C084EE07C085E305C089E203C08AE25A
:101DC00001C081E390E0089520916F029091360266
:101DD00057E02917A9F030E0529FF001539FF00D12
:101DE0001124E95CFD4F7181761306C07081781370
:101DF00003C07581741306C02F5F3F4F2770E9CF72
:101E000080E0089581E008957E30B0F46630A0F45B
:101E10008230A0F494E5899FF001112486E0789F38
:101E2000E00DF11D1124E60FF11DEE0FFF1FED5126
:101E3000FE4F85919491089580E001C081E090E08B
:101E400008951F93CF93DF930E94480EEC01C115B4
:101E500080E5D807E8F5C11590E4D90708F0A8C0D7
:101E6000C03ED10530F5CD3CD10508F094C0C83A4C
:101E7000D10578F4C53AD10508F083C0C130D10549
:101E800009F47CC008F4F2C0C430D10508F0F1C0F8
:101E9000EDC0C33CD10508F0E9C0C85AD0E0CC0F72
:101EA000DD1FC95ADE4F0990D881C02DCE01946440
:101EB000E1C0C11580E2D80708F0CBC0C11591E0A0
:101EC000D90708F06BC0C83ED10508F4D2C0CEC017
:101ED000C03682E5D80728F5C03492E5D90708F066
:101EE00079C0C03282E5D80708F06CC0C11592E510
:101EF000D90708F481C04C2F4695469580E2489F4B
:101F0000A0011124C37021E030E0C90102C0880F94
:101F1000991FCA95E2F7EA01C82BD92BCE019D681B
:101F2000A9C0C03A82E5D807B8F48C2F8F71C038A9
:101F300092E5D90708F07BC08695869590E2899F47
:101F400090011124C37081E090E002C0880F991FB6
:101F5000CA95E2F79A6868C0C03C82E5D80708F4E1
:101F60006DC0C03E92E5D90708F080C0CF71DD2773
:101F7000DC2FCC27CE01806F906A7CC081E090E09E
:101F800079C0C55AD0E0CC5ADE4F8881C82FD0E046
:101F9000CE0190646FC0CE0190656CC08D2F0E9401
:101FA000F90D182FCE0199270E94480E1F715CC0B1
:101FB000CE0199270E94480ECC27DF70D06A8C2B67
:101FC0009D2B58C0CF71D0E0DC2FCC27CE01816F84
:101FD000906A50C08C2F8F718695869590E2899F6C
:101FE00090011124C37081E090E002C0880F991F16
:101FF000CA95E2F79C6818C08C2F8F710E94F90D6A
:1020000095E0D695C7959A95E1F7CF70D0E0DC2F93
:10201000CC27282F30E084FF05C084E0220F331F37
:102020008A95E1F7D069CE01822B932B23C090E0F3
:10203000D82FCC27CE01846F906A1CC08C2F8F7153
:102040000E94F90D8F7190E0D82FCC27CE019062BD
:1020500011C08D2F8F710E94F90D182FCE01992775
:102060000E94480E1F719062912B04C080E090E0A6
:1020700001C0CE01DF91CF911F910895A8E0B0E09B
:10208000E4E4F0E10C94AA2A66EE7EEF80E090E0B2
:102090000E946F2B60E082E090E00E94512B60E094
:1020A00083E090E00E94512B1092920260E074E174
:1020B00084E090E00E946F2B60E086E090E00E9458
:1020C000512B6FEF87E090E00E94512B40E050E0F1
:1020D000BA0188E090E00E94632B60E084E290E027
:1020E0000E94512B60E087E190E00E94512B60E05C
:1020F0008CE090E00E94512B60E08DE090E00E9427
:10210000512B19821A821B821C821D821E821F8201
:10211000188648E050E068E170E0CE0101960E9428
:10212000412B40E050E0BA0180E290E00E94632B36
:102130001092D9011092DA011092DB011092DC01A9
:1021400084E08093D9014091D9015091DA016091E6
:10215000DB017091DC018FE090E00E94632B40E096
:1021600050E0BA0183E190E00E94632B2896E2E000
:102170000C94C62A8095909165038923809365030A
:102180000895809590919E02892380939E020895E0
:1021900090919E0280916503982B90930F028091FD
:1021A00091028823D9F0892B80930F028091360108
:1021B000882331F080919B0287FF02C08EE101C02D
:1021C00086E0E1E1F2E090E0815028F021912223C5
:1021D000D9F39F5FF9CF91111092910240E250E044
:1021E00061E772E08FE092E00E94902D892B21F14F
:1021F00080E2EFE0F2E0A1E7B2E001900D928A9573
:10220000E1F7E0916A03F0916B033097A9F08091B8
:102210003601882359F080919B0287FF07C0809187
:102220000F028093100286E080930F020280F381F8
:10223000E02D8FE092E009950895909170028095CD
:10224000892380937002282F277069F4981759F01A
:1022500090919C0292FF07C08695869586950E9474
:10226000112710927002089590919C0292FB2227F0
:1022700020F9281779F080FB92F990939C026091E5
:102280009B0270919C0284E090E00E946F2B82E0A0
:102290000E941D11089580916F0290913602891756
:1022A00019F08F5F8770FBCF08950F931F93CF9323
:1022B000DF938091350282958F7009F052C0809132
:1022C0003402882309F44DC080916F024091360298
:1022D0005091300210912F026091310270913202C0
:1022E000C0913401D091350107E08417D1F190E01D
:1022F000089FF001099FF00D1124DF01A95CBD4F7B
:1023000014962C911497222349F111962C91119730
:10231000251324C02C91211321C015962C911597BB
:1023200021111CC012962D913C911397261B370B3F
:102330002C173D0798F4809135028F70806180934F
:102340003502E35CFD4F80818F70806180838FE276
:1023500092E00E94B4030E944B1103C00196877063
:10236000C4CFDF91CF911F910F910895A4E1B0E008
:10237000ECEBF1E10C94A02A8C0186E0F801DE017F
:102380001F9601900D928A95E1F7D80114968C91D1
:1023900014971596EC909FE2A92E92E0B92E909199
:1023A0003302911121C0882309F468C1EE2009F499
:1023B00047C0C8010E942D27F82E882309F440C089
:1023C00087E0F801D50101900D928A95E1F780919F
:1023D0003302813031F480912F02909130020E94BB
:1023E00073260E94551159C1F80190808180C280E6
:1023F000D380F0903402409131025091320220910A
:10240000340130913501FF2009F4E2C0B601641BAC
:10241000750B6217730708F099C0882309F43DC152
:1024200080913502282F207F90913002222361F085
:10243000981509F45CC0C8010E942D2781115FC066
:10244000C8010E94B4031AC1981114C090912F02C0
:10245000991110C0E1100EC08F7080618093350219
:102460008FE292E00E94B40380913502D801169663
:102470008C9312C1E11035C040E0682D892D0E9477
:10248000E40EE82E8111FDC09F86888A8F85988989
:102490000E947326292F22952F70243020F49F70DC
:1024A000223028F009C02A50223080F014C099232D
:1024B00049F0811107C013C0992321F0F8019681DA
:1024C000907F69F0805E883030F409C0803F38F03A
:1024D000815F833020F0C8010E94B403EF2CFE2CF2
:1024E000DCC080913502816080933502D5C0909127
:1024F0002F029911A0CFE1109ECFD8019DC0EE20F0
:1025000009F49ECF20913502822F82958F7090E042
:1025100002978CF080912F029091300299878887E2
:10252000DB86CA86809133028C871D862E87CE017A
:1025300008960E94B40387E0F801AFE2B2E0019090
:102540000D928A95E1F70E94551198C0909135023D
:10255000292F207F51F48FE292E00E94B40387E09C
:10256000F50111928A95E9F797C0882309F495C07F
:102570008091300288110BC080912F02891107C011
:10258000E11005C09683C8010E94B40371C0C80160
:102590000E942D27882309F453CFEE2009F450CF51
:1025A00020913502822F82958F7090E002971CF265
:1025B00080912F02909130029A838983DC82CB82B2
:1025C000809133028D831E822F83CE010196B1CF7D
:1025D000C41AD50AC216D30608F04AC0882309F4E3
:1025E0004DC0FE2CEE2009F42BCF809130028811D3
:1025F00031C080912F0289112DC0FDE7CF16D10483
:1026000000F58091350280FD1CC082958F70482FA7
:1026100050E041155105A9F020913502D8011696D8
:102620002C9316974F30510549F08F5F982F929554
:10263000907F822F8F70892B16968C93C8010E94F1
:10264000B40387E0F801AFE2B2E001900D928A9501
:10265000E1F723C0C8010E942D2781116CCF809122
:102660003502816080933502C8010E94B40315C011
:1026700087E0F50111928A95E9F70FC0FF24F394E2
:102680000CC08FE292E00E94B403EFE2F2E087E038
:10269000DF011D928A95E9F7F12C8F2D6496ECE00D
:1026A0000C94BC2AA0E0B0E0E8E5F3E10C94A42A85
:1026B00080913B0190913C01892BB9F0809195026A
:1026C0008F5F80939502811110C00E94EB1C90E0F7
:1026D00090933C0180933B01892B39F40E94621D49
:1026E00081E080933A010E94B8220DED11E078015B
:1026F000D0E0C0E087E0C82ECC0E8C2F0E94D21D07
:102700008C2D0E94D21D8C2F0E94351E8F73F701D5
:102710009081891721F08083DD24D39401C0D12CCE
:102720008C2D0E94351E8F73F7019781891719F040
:10273000878381E001C080E0D82ADD290E94261E1F
:10274000CF5FFFEFEF1AFF0AC730A1F610929A028F
:10275000C0919902CC2309F47DC00E945B21209195
:10276000970230919802AC01421B530B9A0190934F
:102770009802809397024F3F510509F018F4452BBA
:1027800019F102C02FEF30E01092990210929602D8
:10279000E091D701F091D801AF01425F5F4F90E027
:1027A00030E08081882341F0281718F010829C2F98
:1027B00003C0821B80833C2F3196E417F50789F70D
:1027C0003093990290939602DD23B1F11092960214
:1027D000E091D701F091D80180919A0290919902ED
:1027E000AFEEB1E0AF01425F5F4F6EE1E8012881DB
:1027F0003C91321779F0308131110CC060832C93F9
:1028000098819227282F30E0292B81E0232B09F48F
:1028100080E091E0319611960F5F1F4FE417F507A6
:1028200029F780939A029093990280919A02CDB7EA
:10283000DEB7E8E00C94C02A81E0909196029923DB
:10284000A1F38111C3CF0E945B21909398028093E2
:102850009702BCCFD111F7CF80E0EFCFA6E0B0E078
:10286000E4E3F4E10C94A82A0E945B218C0180919E
:102870009302909194020817190781F019821A8225
:102880000E945B21682F49815A81792F80E090E076
:102890000E94961B10939402009393022696E4E004
:1028A0000C94C42A8091C40287FF11C08091E80073
:1028B00082FD05C08091CE028111F8CF11C08091B8
:1028C000E8008B770BC08091CE02882349F080917D
:1028D000E80080FFF8CF8091E8008E778093E800D1
:1028E0000895982F973068F59093E900981739F07C
:1028F0007091EC002091ED005091F00003C0242F66
:10290000762F50E021FD02C09F5FECCF3091EB00AD
:102910003E7F3093EB003091ED003D7F3093ED0032
:102920003091EB0031603093EB007093EC0020931A
:10293000ED005093F0002091EE0027FDE5CF80E000
:1029400008958F708093E90081E008952091CA0274
:102950003091CB022617370748F06115710539F41D
:102960002091E8002E772093E80001C0B901FC0116
:1029700020E06115710579F18091CE028823F1F193
:102980008530F1F18091E80083FD3CC08091E80042
:1029900082FD2EC08091E80080FFEBCF2091F300F4
:1029A0008091F20090E0922B6115710551F0883012
:1029B000910538F421912093F1006150710901963D
:1029C000F3CF21E0089709F020E08091E8008E77AE
:1029D0008093E800CECF2111CFCF0AC08091CE02E4
:1029E000882361F0853061F08091E80083FD0AC0A2
:1029F0008091E80082FFF2CF80E0089582E00895A0
:102A000083E0089581E0089543E050E0BC0185E053
:102A10000E940221089545E050E0BC0182E00E943E
:102A200002210895CF93DF93EC018091360181114B
:102A300005C048E050E0BE0181E00BC080919B02E0
:102A400087FF03C040E285E002C048E081E050E03B
:102A5000BE010E94022180E2FE01A1EAB2E00190E3
:102A60000D928A95E1F7DF91CF910895AAE2B0E047
:102A7000ECE3F5E10C94A92AE4ECF2E08CEC92E0B2
:102A80002091F10021938E179F07D1F78091C50205
:102A9000833009F463C030F4813071F0823009F47E
:102AA0009FC0B6C08A3009F48BC08B3009F46EC069
:102AB000893009F0ADC020C08091C402813A09F08C
:102AC000A7C08091E800877F8093E8008091C802CA
:102AD0009091C902892B21F460E281EA92E003C05F
:102AE00060E080E090E070E00E94A6148091E80031
:102AF0008B778093E8008CC08091C402813209F00A
:102B000087C08091C8029091C902009719F003977D
:102B100009F07EC08091E800877F8093E800809173
:102B2000E80082FD05C08091CE028111F8CF70C00F
:102B30002091F3008091F20090E0922B029731F403
:102B40008091F100813011F0863021F48091F10004
:102B50008093A0028091E8008B7756C08091C402D8
:102B6000813A09F055C08091C8029091C902892B21
:102B700009F04EC08091E800877F8093E800809143
:102B8000E80080FFFCCF8091360139C08091C402FB
:102B90008132F1F58091C8029091C902892BC1F56B
:102BA0008091E800877F8093E8000E945214809112
:102BB000C6028093360110929E020E94502728C0C0
:102BC0008091C402813221F58091E800877F809353
:102BD000E8000E9452148091C70280939F0218C09F
:102BE0008091C402813AA1F48091E800877F8093AC
:102BF000E8008091E80080FFFCCF80919F028093E5
:102C0000F1008091E8008E778093E8000E945214D2
:102C10008091E80083FFE4C18091C4029091C502D5
:102C2000492F50E04A30510508F0DAC1FA01E9585D
:102C3000FF4F0C94162C803821F0823809F0D0C157
:102C400008C08091C1029091C202992389F08260EC
:102C50000FC08091C8028F70873008F0C1C1809387
:102C6000E9008091EB0085FB882780F91092E9004C
:102C70009091E800977F9093E8008093F100109284
:102C8000F10070C1282F2D7F09F0AAC1882319F007
:102C9000823061F0A5C18091C602813009F0A0C1E7
:102CA000933009F080E08093C2022EC08091C6026A
:102CB00081112AC08091C8028F702FEF280F263013
:102CC00008F08EC18093E9002091EB0020FF1CC02A
:102CD000933021F48091EB00806214C09091EB005E
:102CE00090619093EB0021E030E0A90102C0440F15
:102CF000551F8A95E2F74093EA001092EA0080910E
:102D0000EB0088608093EB001092E9008091E8006E
:102D1000877F8093E8000E94521462C1811160C1D4
:102D20001091C6021F778091E3008078812B8093F9
:102D3000E3008091E800877F8093E8000E945214AE
:102D40008091E80080FFFCCF8091E3008068809351
:102D5000E300111102C082E001C083E08093CE0243
:102D60003FC18058823008F03BC12091C6023091AB
:102D7000C7022C3D53E0350779F583E08A838AE268
:102D800089834FB7F894DE01139620E03EE051E2CC
:102D9000E32FF0E050935700E49120FF03C0E29549
:102DA000EF703F5FEF708E2F90E0EA3010F0C79623
:102DB00001C0C0968D939D932F5F243149F74FBF7B
:102DC0008091E800877F8093E8006AE270E0CE019E
:102DD00001960E94A614B4C08091C8029091C902C5
:102DE000432F552743305105A9F068F44130510570
:102DF00009F405C14230510509F0F2C084E790E0C2
:102E0000EDE4F4E04BC04132510529F14232510565
:102E100089F1E6C0C901992781309105A1F058F0E8
:102E2000029709F0DDC0E3EDF4E0E4918E2F90E02D
:102E3000E3EDF4E030C0E1E2F5E0E4918E2F90E0C4
:102E4000E1E2F5E028C0E7EFF4E0E4918E2F90E0B6
:102E5000E7EFF4E020C08430910508F0C1C0880F8E
:102E6000991FFC01E756FE4F0190F081E02D89E0AB
:102E700090E014C08430910508F0B2C0FC01EE0F60
:102E8000FF1FEF56FE4F0190F081E02DDC01A357AC
:102E9000BE4F8C9190E0009709F4A2C02091E80009
:102EA000277F2093E8002091CA023091CB02281797
:102EB000390708F4C90140E0009789F12091CE025A
:102EC000222309F43DC02530D9F12091E80023FDEB
:102ED00037C02091E80022FD2FC02091E80020FF9C
:102EE000EBCF4091F3002091F20030E0342B0097BB
:102EF00059F02830310540F444914093F100319667
:102F000001972F5F3F4FF3CF41E02830310509F0A3
:102F100040E02091E8002E772093E800CDCF4111CA
:102F2000CDCF0AC08091CE02882351F0853041F088
:102F30008091E80083FD04C08091E80082FFF2CF19
:102F40008091E8008B778093E8004AC0803809F0D0
:102F500047C08091E800877F8093E8008091C3029A
:102F60008093F1008091E8008E77D3CE811138C034
:102F70008091C6029091C702992702978CF58091A3
:102F8000E800877F8093E8001091C6021093C30287
:102F90000E945214111106C08091E30087FD02C007
:102FA00081E001C084E08093CE0242E061EC81E0E8
:102FB0000E94711442E061EC82E00E94711442E2CE
:102FC00061EC85E00E94711442E261EC83E00E94B2
:102FD000711442E260EC84E00E9471148091CE0290
:102FE0008091E80083FF10C08091E800877F809384
:102FF000E8008091EB0080628093EB0005C082E1E5
:1030000090E0E1ECF4E04ACFAA96E3E00C94C52A04
:103010001F920F920FB60F9211242F933F934F934D
:103020005F936F937F938F939F93AF93BF93CF9350
:10303000DF93EF93FF93C091E900CF708091EC0094
:10304000D82FD17080FDD0E81092E9008091F00077
:10305000877F8093F00078940E9436151092E900E3
:103060008091F00088608093F000CD2BCF70C093EA
:10307000E900FF91EF91DF91CF91BF91AF919F91C7
:103080008F917F916F915F914F913F912F910F9011
:103090000FBE0F901F901895E8EDF0E080818E7FB5
:1030A00080831092E2001092DA001092E100A0EE0C
:1030B000B0E08C9181608C9380818F77808319BC84
:1030C000A7EDB0E08C918E7F8C9380818F7E808382
:1030D00010929D020895A0E0B0E0E1E7F8E10C94C1
:1030E000A42AC8EDD0E088818F7E8883E7EDF0E0E8
:1030F00080818160808384E082BF81E080939D0233
:1031000088818E7F888302EE10E0F8011082109291
:10311000DA0081EEC82ED12CF601108288818F77DB
:10312000888388818068888388818F7D888319BCA3
:103130001092CE021092C3021092C2021092C102EB
:1031400090EEE92EF12CF70180818B7F80838881BE
:103150008160888342E060E080E00E947114F601A3
:1031600080818E7F8083F80180818160808380816F
:1031700088608083F70180818E7F80838881806171
:103180008883CDB7DEB7E8E00C94C02A1F920F9277
:103190000FB60F9211242F933F934F935F936F932A
:1031A0007F938F939F93AF93BF93EF93FF93809100
:1031B000E10082FF09C08091E20082FF05C080919A
:1031C000E1008B7F8093E1008091DA0080FF2AC0CC
:1031D0008091D80080FF26C08091DA008E7F809396
:1031E000DA008091D90080FF18C080E189BD82E1BA
:1031F00089BD09B400FEFDCF81E08093CE028091AD
:103200009D0281110FC00E944C180E946B18809182
:10321000E20084608093E20005C019BC1092CE02E7
:1032200010929D028091E10080FF17C08091E20022
:1032300080FF13C08091E2008E7F8093E200809136
:10324000E20080618093E2008091D80080628093E8
:10325000D80019BC85E08093CE028091E10084FF04
:1032600030C08091E20084FF2CC080E189BD82E102
:1032700089BD09B400FEFDCF8091D8008F7D809379
:10328000D8008091E1008F7E8093E1008091E20080
:103290008F7E8093E2008091E20081608093E20063
:1032A0008091C302882311F084E007C08091E3007D
:1032B00087FD02C081E001C083E08093CE0280914F
:1032C000CE028091E10083FF27C08091E20083FF5E
:1032D00023C08091E100877F8093E10082E08093AA
:1032E000CE021092C3028091E1008E7F8093E100B4
:1032F0008091E2008E7F8093E2008091E200806105
:103300008093E20042E060E080E00E9471148091CE
:10331000F00088608093F000FF91EF91BF91AF9132
:103320009F918F917F916F915F914F913F912F91DD
:103330000F900FBE0F901F9018952091E4003091D0
:10334000E50095E64091EC00842F817040FF23C09A
:103350008091E80080FD1DC08091CE02882399F005
:10336000853099F08091EB0085FD11C04091E4001B
:103370005091E5002417350729F3915011F09A0177
:10338000E1CF84E0089582E0089583E0089581E02C
:10339000089580E008954091E80042FFDDCF089550
:1033A000EF92FF920F931F93CF93DF937C018B01DA
:1033B0000E949D19811119C0E70101151105A1F0A5
:1033C0008091E80085FD0AC08091E8008E778093A7
:1033D000E8000E949D19882381F307C0899180939A
:1033E000F10001501109E9CF80E0CDB7DEB7E6E08A
:1033F0000C94C22ACF932091CE02243011F5C091B3
:10340000E900CF703091EC00232F217030FD20E8CF
:10341000C22B23E02093E9002091E80020FF0EC09A
:1034200040E050E060E270E00E94D01981111092FB
:10343000CC028091E8008E778093E800CF70C09333
:10344000E900CF9108959C013A9521153F4130F54F
:10345000BC0166277270AC01442754709C0122277E
:10346000387094FF0FC090FF02C080E101C080E07F
:10347000672B09F08062452B09F08064232B79F0DB
:1034800080680895892F8170672B09F08260452B31
:1034900009F08460232B19F08860089580E0089576
:1034A000FC018281813039F4958192FD12C090FF38
:1034B00010C082E00895823039F4858182FD06C013
:1034C00080FD06C083E0089586E0089585E00895B4
:1034D00084E00895CF93DF93EC010E947728CE011A
:1034E000805E9109089710F0209731F4CE010E9478
:1034F000231A0E948E2705C0CE010E94231A0E9423
:103500007D27DF91CF9108958FE39CE90197F1F733
:1035100000C000008091D202833029F0853031F064
:10352000813041F403C081E990E002C080E990E07D
:103530000E946A1A1092D20208958FE39CE90197C3
:10354000F1F700C000008091D002833029F085306F
:1035500031F0813041F403C08BEA90E002C08EEA82
:1035600090E00E946A1A1092D0020895CF93DF93E0
:10357000EC01805E9109089710F0209731F4CE019C
:103580000E94231A0E94952705C0CE010E94231A8B
:103590000E9484278C2F0E94DB28DF91CF91089511
:1035A0000F931F93CF93DF938C01C99719F0C0E05D
:1035B000D0E002C0C0E5D0E0C8010E94B61A209752
:1035C00041F08FE99FE00197F1F700C000002197DB
:1035D000F6CFC8010E946A1ADF91CF911F910F9117
:1035E0000895CF93DF93EC018A81833061F480E901
:1035F00090E00E94D01A80E990E00E94D01A80E901
:1036000090E00E94D01A8A81843020F080E990E016
:103610000E94D01ADF91CF910895CF93DF93EC01F0
:103620008A81833061F48EEA90E00E94D01A8EEA9B
:1036300090E00E94D01A8EEA90E00E94D01A8A810F
:10364000843020F08EEA90E00E94D01ADF91CF9172
:1036500008950E94501A8093D202833029F0853059
:1036600031F0813061F407C081E990E006C080E963
:1036700090E00E94D01A80E990E00E94B61A089566
:103680000E94501A8093D002833029F0853031F0A7
:10369000813061F407C08BEA90E006C08EEA90E0CA
:1036A0000E94D01A8EEA90E00E94B61A0895982FD0
:1036B00092959F7019F0892F24E001C020E0982F87
:1036C0009695969511F02E5F892F982F969509F073
:1036D0002F5F822F0895A6E0B0E0E1E7FBE10C94B4
:1036E000A92A26E0FC01DE01119601900D922A958F
:1036F000E1F7FC01258189819A81222359F0662313
:1037000049F00E944426182F682F89819A810E94CF
:10371000B42603C00E948026182F69817A81812FE8
:103720000E94040F2696E3E00C94C52AA4E3B0E0BF
:10373000ECE9FBE10C94A92A4FA758AB69AB7AAB33
:103740008BAB9CAB911110926503CE01889627E05C
:10375000DC011D922A95E9F726E0FE01BF96DC0107
:1037600001900D922A95E1F72CA52223C1F061E08A
:103770000E946B1B8091CC02882389F08DA581115A
:1037800002C087E001C086E0898388A58A8389A575
:103790008B838EEF8C83CE0101960E94FA1987E00D
:1037A000FE01B896DE01919601900D928A95E1F79F
:1037B000CE0181960E94B61181112CC087E0FE01D6
:1037C000B196DE01119601900D928A95E1F76DA1F7
:1037D000662301F12091360230E0C901019687701D
:1037E000992740916F0250E08417950761F16D832E
:1037F00097E0929FD001939FB00D1124A95CBD4F1B
:10380000FE01319601900D929A95E1F78093360270
:103810000E944B1117E080916F0290913602891738
:1038200009F1189FC0011124895C9D4F0E94B611B7
:103830008823C1F080916F0290E0019687709927EC
:1038400080936F02E8CF10929E020E945027109240
:10385000360210926F02EFE2F2E087E0DF011D9284
:103860008A95E9F7E496E3E00C94C52A10929E024B
:103870000E9450272FEF84E39CE02150804090402D
:10388000E1F700C000009AE088E10FB6F894A8952F
:10389000809360000FBE90936000FFCF8F929F9245
:1038A000AF92BF92CF92DF92EF92FF920F93CF939E
:1038B000C82F0E94571B56985E9825982D982698D9
:1038C0002E9827982F98482F50E0FA013197E7302B
:1038D000F105B0F4EF57FF4F0C94162C259A2D9A52
:1038E00011C0259A2D9A269A2E9A22C0259A2D9A91
:1038F00004C0259A2D9A269A2E9A279A2F9A18C094
:103900008130B1F48091CE01811159C080915D0365
:10391000816080935D0360E086950E94C12560E030
:1039200081E00E94C12520E04FEF6FEF8CEB42C099
:103930008091CE01811143C088E090E00E94352B38
:103940004B015C0184E290E00E942D2B282F30E097
:1039500040E050E060E070E080E090E000E20E9433
:103960002B2C282939294A295B2920935D03309380
:103970005E0340935F035093600360936103709311
:103980006203809363039093640320FF16C0822F29
:10399000816080935D0386950E94042680915D037B
:1039A00086950E94042621E04091600360915F03A8
:1039B00080915E030E94942402C00E94C9238C2F30
:1039C000CF910F91FF90EF90DF90CF90BF90AF908D
:1039D0009F908F90089580E290E090933C018093B7
:1039E0003B0180917F0381110EC00E94B62981E0C6
:1039F00080937F032FEF83ED90E321508040904030
:103A0000E1F700C0000060E570E080E40E94BC299E
:103A100090933C0180933B01892B09F04EC060E5F7
:103A200070E080E00E942F2A90933C0180933B013C
:103A3000892B09F042C060E570E080E00E942F2AE7
:103A400090933C0180933B01892BB9F560E570E0D0
:103A50008FE30E942F2A90933C0180933B01892B96
:103A600061F50E94822A60E570E080E40E94BC2932
:103A700090933C0180933B01892BF9F460E570E061
:103A80008CE00E942F2A90933C0180933B01892B6C
:103A9000A1F460E570E080E00E942F2A90933C0141
:103AA00080933B01892B49F460E570E08FE30E942D
:103AB0002F2A90933C0180933B010E94822A80919F
:103AC0003B010895CF93DF9356985E9825982D98E3
:103AD00026982E9827982F98C8E8D0E08FEF90E08E
:103AE00099838883AAE8B0E011969C938E93ECE8C2
:103AF000F0E091838083259A2D9A2FEF80E792E062
:103B0000215080409040E1F700C00000269A2E9A94
:103B10002FEF80E792E0215080409040E1F700C015
:103B20000000279A2F9A2FEF80E792E021508040E3
:103B30009040E1F700C0000025982D982FEF80E716
:103B400092E0215080409040E1F700C000002698AC
:103B50002E982FEF80E792E0215080409040E1F7CF
:103B600000C0000027982F988091D90187702FEF0F
:103B7000829FC001112495958795959587959927E2
:103B80009983888311969C938E9391838083569812
:103B90005E9825982D9826982E9827982F98DF9133
:103BA000CF910895CF93E82F873080F580913B0126
:103BB00090913C01892B09F047C0CE2F60E570E061
:103BC00080E40E94BC2990933C0180933B01892BA7
:103BD000D1F460E570E082E10E942F2A90933C01CD
:103BE00080933B01892B79F481E090E001C0880F3C
:103BF000CA95EAF760E570E080950E942F2A9093BD
:103C00003C0180933B010E94822A1EC090E0FC018F
:103C10003797E730F105C0F4E857FF4F0C94162CA6
:103C2000209A289811C0219A29980EC0229A2A9881
:103C30000BC0239A2B9808C0529A5A9805C0539AE1
:103C40005B9802C03E9A4698CF9108952098289894
:103C50002198299822982A9823982B9852985A9814
:103C600053985B983E9846980895CF93873040F5D7
:103C700080913B0190913C01892B59F560E570E002
:103C800081E40E94BC2990933C0180933B01892BE5
:103C900011F0C0E011C080E590E00E945E2A97FF1D
:103CA00005C090933C0180933B01F3CFC82FC09592
:103CB00010923C0110923B010E94822A8C2F0AC074
:103CC0009FB18FB1807F869586959370892B809563
:103CD00001C080E0CF9108958098889A8198899A50
:103CE00084988C9A85988D9A86988E9A87988F9AC0
:103CF00008958091A00208950895A0E0B0E0E3E85F
:103D0000FEE10C949F2AFC018280748081E0848310
:103D1000E5E2F5E09490E4EAF5E0E49100916003D7
:103D20000695015810E0000F111F012F1127C2E165
:103D3000D3E026EDC22E22E0D22EAA24AA94B12CE2
:103D4000E919EE2EF12C22E0281530F080915E0367
:103D5000888380915F038983711003C01B821A825C
:103D60004AC08B818823F9F081508B832FEF829F8B
:103D7000C00111246C8170E00E94862AFB01FF279C
:103D8000EB5DFA4F8491E82FE9192FEFE29FC00114
:103D90001124B7010E94862A80916003689FB001B8
:103DA00011247A8328C00E941D2BB5010E94022C89
:103DB0008017910704F582E0881588F40E941D2B76
:103DC000B5010E94022C88830E941D2B20915F0365
:103DD0002695622F70E00E94022C280F29831A82F8
:103DE00080916003843120F0893C18F088EC01C098
:103DF00084E18C838B8396014A81698188810E944A
:103E0000EF23259624E0C20ED11C83E0CD35D807E0
:103E100009F099CF0E94B822CDB7DEB7EDE00C943F
:103E2000BB2AEF92FF920F931F93CF93DF938C01E6
:103E3000C6EDD2E0E12CF12CF8018481F7E0EF1619
:103E4000F1041CF4882339F002C0811104C09E01E2
:103E50004091600302C09E0140E060915F03809149
:103E60005E030E94EF238FEFE81AF80A24969FE082
:103E7000E916F10409F70E94B822F801848190E064
:103E80000196817099278483CDB7DEB7E6E00C9464
:103E9000C22AA0E0B0E0EFE4FFE10C94A02AEC011C
:103EA0004C81042F10E09801D8010E94D92B9B016E
:103EB000AC010E94A42B6B017C01E0E2F0E0E01B6E
:103EC000F10BA5E5B0E09B01AC010E94A42B4B01D6
:103ED0005C019F01DF010E941C2C9B01AC010E9430
:103EE000AF2B9B01AC012C0D3D1D4E1D5F1DC5016F
:103EF000B4010E94B72B822FF22E99E2921728F07C
:103F000093E0299F900111240DC025E530E0281B86
:103F10003109C901880F991F280F391F37FF02C0C7
:103F20002F5F3F4F35952795122F109596EDC92E8F
:103F300092E0D92E00E085E5E82EEF1801FD02C0E1
:103F40008E2D01C08F2D9601412F60915F030E943D
:103F5000EF230F5F84E0C80ED11C0F3079F70E9469
:103F6000B8228C81811102C091E003C0803219F423
:103F70009FEF9093390190913901890F8C83CDB7D0
:103F8000DEB7ECE00C94BC2A0F931F93CF93DF9322
:103F9000C6EDD2E0FE0111821082128213823496A5
:103FA00083E0E231F807B9F700E010E08091D40235
:103FB000082E000C990B0817190794F0809138010E
:103FC000082E000C990B8017910754F09E01409128
:103FD000600360915F0380915E030E94EF2304C041
:103FE000198218821A821B820F5F1F4F24960F308E
:103FF0001105E1F60E94B822809137019091D40218
:10400000980F9093D40220913801280F2093380103
:10401000121614F49E301CF0819580933701DF91C5
:10402000CF911F910F910895A0E0B0E0EAE1F0E296
:104030000C94A32AFC01828180FF03C0DD24DA9462
:1040400002C0DD24D39406ED12E0C0E0D0E02FE002
:10405000B22EF801118210821282138294E0E92EAE
:10406000F12CC12C8091D3028C0D80312CF06B2D62
:104070000E94F42B892F02C087FD815F082E000C5F
:10408000990BC817D90791F4809160038E9DA00108
:104090008F9D500D1124559547955595479598013D
:1040A00060915F0380915E030E94EF23CD0CF1E0ED
:1040B000EF1AF108B9F621960C5F1F4FCF30D105EA
:1040C00041F60E94B8228091D30291E0D91206C035
:1040D000811102C08EE007C0815005C090E00196BA
:1040E000BE010E94022C8093D302CDB7DEB7E9E077
:1040F0000C94BF2AEF92FF921F93CF93DF93EC01B2
:1041000086EDE82E82E0F82E10E08C819701409138
:10411000600360915F03810F0E94EF231F5E84E0C4
:10412000E80EF11C1F3F89F70E94B8229A818C810A
:1041300090FF02C08F5F01C081508C83DF91CF91CF
:104140001F91FF90EF900895A4E0B0E0EAEAF0E25A
:104150000C94A82A8C018091D50281110AC09E017D
:104160002F5F3F4F4FEF6FEF0E94EF238A818093C5
:10417000D502F8018481813051F028F0823061F459
:104180004091D5020AC08091D50240E007C06091FD
:10419000D50240E080E003C040E080E060E00E94A3
:1041A0004A23F801848190E0019663E070E00E9468
:1041B000022C84832496E4E00C94C42ACF93DF93EA
:1041C000EC01EDE5F3E0438162818C810E947C2467
:1041D0008C818F5F8C83DF91CF910895CF93DF9394
:1041E000EC01EC81F0E0EB5DFA4F4491EDE5F3E09A
:1041F000628181810E947C248C818F5F8C83DF911E
:10420000CF9108959B019091CE029430F1F48F707C
:104210008093E9008FEF9091E800815095FD06C0F2
:1042200095ED9A95F1F700008111F5CF8091E800A6
:1042300085FF0BC0BA01C90140E050E00E94D019CF
:104240008091E8008E778093E800089578941F921B
:104250000F920FB60F9211248F939F93AF93BF933A
:1042600080916F0390917003A0917103B0917203DC
:104270000196A11DB11D80936F0390937003A093CD
:104280007103B0937203BF91AF919F918F910F9083
:104290000FBE0F901F9018959C014FB7F894809116
:1042A0006F0390917003A0917103B09172034FBF9F
:1042B000821B930B08952FB7F89480916F03909110
:1042C0007003A0917103B09172032FBF08951F92E4
:1042D0000F920FB60F9211248F939F93AF93BF93BA
:1042E00080916E03811113C080916F0390917003D0
:1042F000A0917103B09172034196A11DB11D8093ED
:104300006F0390937003A0937103B0937203BF91F6
:10431000AF919F918F910F900FBE0F901F901895A6
:10432000209136012223C9F020919B0227FF15C05E
:10433000262F2695269526952E31C8F4FC01E20FEE
:10434000F11D677081E090E001C0880F6A95EAF77F
:1043500080959281892382830895FC0106962281AB
:10436000621301C012823196E817F907C1F7089568
:10437000209136012223C1F020919B0227FF14C017
:10438000262F2695269526952E3130F5FC01E20F35
:10439000F11D677081E090E001C0880F6A95EAF72F
:1043A0009281892B82830895FC0132962FEF30E0B1
:1043B0004191641789F02F3F19F4411101C0232F57
:1043C0003F5F3630A9F72F3F39F0FC01E20FF11DB6
:1043D00027FDFA95628308950895A3E0B0E0E3EF26
:1043E000F1E20C94AA2A20916C0330916D032817F6
:1043F0003907A1F090936D0380936C03E0916A03F9
:10440000F0916B03309751F024E029839B838A83DA
:104410000680F781E02DCE01019609952396E2E012
:104420000C94C62AA3E0B0E0E8E1F2E20C94AA2AD8
:10443000209168033091690328173907A1F0909300
:10444000690380936803E0916A03F0916B033097EE
:1044500051F023E029839B838A830680F781E02D36
:10446000CE01019609952396E2E00C94C62AE091CC
:104470006A03F0916B03309729F00190F081E02DF1
:104480000995089580E008954115510511F0FA014C
:1044900009950895CF93DF93EC014A855B856E857E
:1044A0007F850E9444228B810E94BA108C810E94D9
:1044B000C1100E94C81086E0FE0111928A95E9F7AA
:1044C000DF91CF910895CF93DF93EC018D8181FD32
:1044D00017C082608D83909165038B81892B8093B7
:1044E000650390919E028C81892B80939E020E948D
:1044F000C810488559856E857F85CE010E9444226B
:1045000010926703109266038D8180FD03C0CE0177
:104510000E944A22DF91CF910895A0E2B0E0E3E942
:10452000F2E20C94AA2A9FEF99838A83CE01019626
:104530000E94FA19A096E2E00C94C62A90915D03BD
:1045400090FF04C09695981748F003C0811106C0EB
:1045500090E0961718F40E94122608950E940426EF
:104560000895882311F0FA0101C0FB01099508950F
:10457000EF92FF920F931F93CF93DF9380915D0390
:1045800080FF08C006ED12E082E1E82E83E0F82EFD
:10459000F8011BC0E6EDF2E082E193E011821082A7
:1045A0001282138234968E179F07C1F7EBCF38170C
:1045B00008F4832F8383381B3183281B2083981BA7
:1045C00092833496EE16FF0641F09281208131816C
:1045D000892F291760F7822FEACF80917F038823E4
:1045E00081F180913B0190913C01892B51F58091A3
:1045F0003A01882331F165E070E084E80E94BC292B
:10460000892B19F010923A011AC0C6EDD2E065E08C
:1046100070E088810E942F2A65E070E089810E9405
:104620002F2A65E070E08A810E942F2A65E070E001
:104630008B810E942F2A2496EC16FD0641F70E94DA
:10464000822A579A8BB18F779BB190682FB7F894D5
:10465000E016F10699F0F80131918F0148E09BB91D
:10466000000000C037FF8BB9330F000000C000C04E
:1046700000C08BB900C04A9591F7EACF2FBF8FE5F4
:1046800094E00197F1F700C00000CDB7DEB7E6E097
:104690000C94C22A90915D0390FF0DC0E6EDF2E00C
:1046A0008183608342831382349693E0E231F90779
:1046B000B9F70E94B822089580915D03282F2695AE
:1046C00030E02115310519F48170826005C02B326C
:1046D000310524F08170846580935D030895A0E026
:1046E000B0E0E5E7F3E20C94A02A49015A016B011E
:1046F0007C010E945C238401A4016A2D7B2D88E04B
:1047000090E00E94632B94014A2D5B2DB601C701F6
:1047100000E20E94462C622F84E290E00E94512B1E
:10472000CDB7DEB7ECE00C94BC2A809161038823FE
:1047300019F081508093610320915D0330915E03F5
:1047400040915F0350916003609161037091620337
:1047500080916303909164030E946F230895809178
:104760006103833018F48F5F8093610320915D03B0
:1047700030915E0340915F0350916003609161034B
:104780007091620380916303909164030E946F2390
:104790000895EDE5F3E020812E7F20833181428171
:1047A000538164817581868197810E946F23109265
:1047B00087030E94B8220895EDE5F3E023E020830B
:1047C00011828FEF828383831482758130E04FEFF3
:1047D0005FEF60E0868197810E946F230895A0E0DB
:1047E000B0E0E5EFF3E20C94A22AE82EF62EE90100
:1047F000E42FF0E0611106C0EB5DF94FE4914E2F1C
:104800002E2F71C0062F10E0EB5DF94F4491F42F6D
:10481000C42ED12C26E0829FC00111242FEF30E05E
:10482000B9010E94862A5BEA5603C001579F900D8A
:1048300011248E0D911D8E0D911D582F550F580F5F
:10484000D901A01BB10BAC9DC001AD9D900DBC9DCD
:10485000900D1124E92FF59ED0011124AB2FBB2719
:104860007901EA1AFB0AEC9CD001ED9CB00DFC9C8E
:10487000B00D11245901A51AB108A09E7001A19E86
:10488000F00CB09EF00C1124EF2CFF242E193F09E0
:104890002C9D80012D9D100D3C9D100D1124212F6C
:1048A0006230710591F048F461157105E1F06130F5
:1048B0007105B9F4242F4B2F16C06430710569F0CF
:1048C00040F06630710579F00CC0242F492FE12F9C
:1048D0000AC0492FEF2F2B2F06C0292FE42F412F7D
:1048E00002C0292FEB2F49832883EA831B82CDB78F
:1048F000DEB7EAE00C94BE2AA4E0B0E0E2E8F4E21D
:104900000C94AA2A90915D0390FF0AC09E012F5F2C
:104910003F4F0E94EF234B8169818A810E944A2385
:104920002496E2E00C94C62AA4E0B0E0EAE9F4E2BE
:104930000C949D2AF82E762EE42E622E90915D0323
:1049400090FF6CC0E92FE695AE2FB0E0AF55BE4F9B
:104950008C91809386039E7F923061F49E012F5F3D
:104960003F4F8F2D0E94EF234B8169818A810E94E6
:104970004A233DC0823019F4E090600338C086308D
:1049800019F4F0905E0333C08930D9F3893179F599
:10499000E9518E2F8170582EE695F0E0EB5DF84FCF
:1049A000E4910E2F10E086EDC82E82E0D82EA12CC7
:1049B000B12C9FE0892E912CC501B4010E94862A5A
:1049C0008F2D511002C0860F01C0861B96014E2DFF
:1049D000672D0E94EF23A00EB11E84E0C80ED11CEB
:1049E00082E1C81683E0D80639F70E94B822F09217
:1049F0005E0370925F03E0926003662079F020917D
:104A00005D0360916103709162033F2D472D5E2D20
:104A100080916303909164030E946F232496EFE0DA
:104A20000C94B92AEDE5F3E043812CE0421B08F435
:104A300040E021E0628181810E9494240895EDE5A7
:104A4000F3E043812CE0420F08F44FEF21E0628154
:104A500081810E9494240895EDE5F3E0628121E1D3
:104A6000621B08F460E021E0438181810E9494246C
:104A70000895EDE5F3E0628121E1620F08F46FEF44
:104A800021E0438181810E9494240895EDE5F3E0C3
:104A9000818121E0438162818C500E949424089599
:104AA000EDE5F3E0818121E043816281845F0E9432
:104AB000942408958091750380FD18C081FD14C071
:104AC00082FD16C080917403882381F08C3380F4BA
:104AD00027E0829FC00111246CE370E00E94022C49
:104AE000862F672B19F005C083E0089581E00895B3
:104AF00087E008958091750380FD17C081FD17C080
:104B000082FD19C080917303882399F08C3398F447
:104B100028E3829FC00111246CE370E00E94022C04
:104B2000862F672B49F481E008958EE008958CE18B
:104B3000089588E0089588E30895282F35EB23032E
:104B4000C001112497FF03C08058910902C080580A
:104B50009F4F892F089560915D03669570E04BE04B
:104B600050E08DE391E00E94832D892B19F481E0C0
:104B7000809387030E945B2190938103809380033D
:104B8000089590915D0390FF3EC09170811102C025
:104B9000926006C08B3210F0946502C0880F982B8B
:104BA00090935D03662391F020915D0330915E0345
:104BB00040915F03509160036091610370916203C3
:104BC00080916303909164030E946F2360915D0361
:104BD000669570E04BE050E08DE391E00E94832DFC
:104BE000892B19F01092870302C00E94AB2581E047
:104BF0008093830320E04091600360915F03809184
:104C00005E030E949424089561E00E94C1250895E6
:104C100080915D038695815009F48AE261E00E94EB
:104C2000C125089580915D0386958F5F8B3208F0D2
:104C300081E061E00E94C12508950E945B212091DE
:104C40007B03211104C020917C03222321F0909347
:104C500079038093780320917D03211104C0209172
:104C60007E03222321F09093770380937603E091D3
:104C70006A03F0916B03309731F00480F581E02DE9
:104C80008AE793E009950895CF92DF92FF920F9300
:104C90001F93CF93DF936C010091EC0180919202FE
:104CA000082BC7E0D0E010E0C8010C2E02C095959B
:104CB00087950A94E2F780FD04C02197A8F7F12CAC
:104CC00009C0FC2EB6018C2F0E94040F0E94210FF8
:104CD000019799F38F2DDF91CF911F910F91FF9045
:104CE000DF90CF900895CF93DF93EC010E9444268C
:104CF000BE010E94040F0E94210FDF91CF91089501
:104D0000292F9E3078F5863068F590E036E0239FB5
:104D1000800D911D1124682F677023E0969587956B
:104D20002A95E1F7FC01EE0FFF1FE80FF91FE85786
:104D3000FC4F40E050E080E0219130E0062E02C0C0
:104D4000369527950A94E2F721703327042E01C087
:104D5000220F0A94EAF7822B4F5F5F4F43305105D1
:104D600059F7089580E00895292F9E3088F5863000
:104D700078F590E036E0239F800D911D1124282FB7
:104D8000277051E001C0550F2A95EAF723E0969568
:104D900087952A95E1F7FC01EE0FFF1FE80FF91F39
:104DA000E857FC4F20E030E070E04081CB01022E5C
:104DB00002C0969587950A94E2F7817081958427C1
:104DC0008523842781932F5F3F4F2330310569F777
:104DD0000895A0E2B0E0EFEEF6E20C94A92A0E945A
:104DE0004E1C182F8091CC028823A9F02FEF80E76A
:104DF00092E0215080409040E1F700C0000085E043
:104E00008983812F0E94571B8A838EEF8B83CE016B
:104E100001960E94FA191093EC01A096E3E00C941D
:104E2000C52A21E030E001C0220F8A95EAF72095DB
:104E30008091EC0182230E94E926089521E030E070
:104E400001C0220F8A95EAF78091EC01822B0E9423
:104E5000E9260895809392020895FC01248122237B
:104E6000D9F0808191810E94732692959F7096302F
:104E700079F010F4925001C09A50923068F4803F5B
:104E800069F018F4883E40F409C0843F29F406C054
:104E9000883E20F0813F11F080E0089581E0089580
:104EA00080913601882331F080919B0287FF02C0F8
:104EB0008EE101C086E0E1E1F2E0DF011D928A951A
:104EC000E9F780E090E00E94122280E090E00E94EA
:104ED000ED21109265030E94C810EAE7F3E085E037
:104EE000DF011D928A95E9F7109273031092740303
:104EF000109275030E941D260895882321F00E94B8
:104F0000BA100E94C8100895882339F09091650363
:104F1000892B809365030E94C8100895882321F08F
:104F20000E94C1100E94C8100895882339F0909102
:104F30009E02892B80939E020E94C81008956623CA
:104F400009F45CC08D3C21F40E947A25819504C04F
:104F50008E3C29F40E947A2580937C03C5C08F3C47
:104F600021F40E947A25819504C0803D29F40E9495
:104F70007A2580937B03B8C0893D19F40E945A2595
:104F800005C08A3D31F40E945A25819580937D03A6
:104F9000ABC08B3D21F40E945A25819504C08C3D05
:104FA00029F40E945A2580937E039EC09FE2980FA9
:104FB000983078F421E030E0A90102C0440F551F79
:104FC0009A95E2F7CA0190917A03892B80937A032C
:104FD0008BC08D3D21F48091750381600CC08E3DA6
:104FE00021F480917503826006C08F3D09F07CC07A
:104FF0008091750384608093750376C08D3C39F48D
:1050000090917C0397FF35C010927C0359C08E3C71
:1050100029F490917C031916BCF32BC090917B036B
:105020008F3C29F497FF25C010927B0349C0803D37
:1050300019F41916CCF31DC090917D03893D29F414
:105040001916BCF410927D033BC08A3D19F497FFFA
:1050500010C0F8CF8B3D39F490917E0397FF09C0C3
:1050600010927E032DC08C3D21F490917E03191681
:10507000BCF39FE2980F983080F421E030E0A90162
:1050800002C0440F551F9A95E2F7CA01809590918E
:105090007A03892380937A0313C08D3D21F4809194
:1050A00075038E7F0BC08E3D21F4809175038D7F3B
:1050B00005C08F3D29F4809175038B7F8093750324
:1050C00080917B03811106C080917C03811102C015
:1050D0001092730380917D03811106C080917E033D
:1050E000811102C0109274030E941D260895882326
:1050F00009F460C0823869F40E94372281FF5AC0E7
:1051000069E38FE092E00E94B8210E94C81069E331
:105110000EC0833899F40E94372280FF4BC063E5AC
:105120008FE092E00E94B8210E94C81063E58FE0F2
:1051300092E00E9490210E94C8100895843869F47A
:105140000E94372282FF36C067E48FE092E00E941F
:10515000B8210E94C81067E4EACF9CEF980F913AFB
:1051600010F4682FE4CF90E2980F983050F48770D5
:1051700091E001C0990F8A95EAF7892F0E94C1102A
:10518000DACF9BE5980F933028F480E090E00E94FE
:105190001222089598E5980F9B3128F480E090E062
:1051A0000E94ED21089593E3980F933118F460E085
:1051B0000E949F270895CF93882309F4BDC0C82F6C
:1051C0008238B1F40E94372281FDB6C069E38FE0D6
:1051D00092E00E94B8210E94C8102FEF87EE93E062
:1051E000215080409040E1F700C0000069E317C003
:1051F0008338E1F40E94372280FD9EC063E58FE092
:1052000092E00E94B8210E94C8102FEF81EE94E036
:10521000215080409040E1F700C0000063E58FE03E
:1052200092E00E9490210E94C81086C08438B1F498
:105230000E94372282FD80C067E48FE092E00E94E6
:10524000B8210E94C8102FEF81EE94E021508040D9
:105250009040E1F700C0000067E4E1CF8CEF8C0FD5
:10526000813AB8F5809136018823E1F080919B0264
:1052700087FF18C0EC2FE695E695E695F0E0E15F34
:10528000FD4F8281282F30E04C2F477081E090E065
:1052900002C0880F991F4A95E2F782239323892B36
:1052A00059F411C0E1E1F2E08191C81729F022E040
:1052B000E731F207C9F707C06C2F8FE092E00E9438
:1052C00090210E94C8106C2F8FE092E00E94B821BC
:1052D000AACF80E28C0F883068F4C77081E090E03C
:1052E00001C0880FCA95EAF790919E02892B80939E
:1052F0009E0299CFEBE5EC0FE33040F4F0E0EC5A7E
:10530000FE4F808190E00E94122216C0E8E5EC0F6B
:10531000EB3150F4F0E0EE0FFF1FE95AFE4F8081B1
:1053200091810E94ED2108C083E38C0F833120F42A
:1053300061E08C2F0E949F27CF9108951F93CF93F8
:10534000DF93182FEB010E94DB28209741F08FE9B3
:105350009FE00197F1F700C000002197F6CF812F61
:105360000E947728DF91CF911F9108951092B90084
:105370008CE08093B8000895A0E0B0E0E2ECF9E2A0
:105380000C94A12AB82EEB010E945B216C01C43160
:10539000D10558F0CF3F8FEFD80759F0CE0164E127
:1053A00070E00E94862A7B0107C0EE24E394F12C72
:1053B00003C025E0E22EF12C84E8A82E94EA992E71
:1053C0001092BC009092BC000E945B218C018091E5
:1053D000BC0087FD07C0C8010E944C21E816F906F1
:1053E000B0F729C08091B900887F883041F0809162
:1053F000B900887F803119F00FEF1FEF1EC0B09207
:10540000BB00A092BC000E945B218C018091BC007B
:1054100087FD07C0C8010E944C21E816F906B0F7C5
:105420000AC08091B900887F883111F0803421F75B
:1054300000E010E00EC00EEF1FEFCF3F8FEFD80758
:1054400009F4BECFC6010E944C21C817D90708F045
:10545000B7CFC801CDB7DEB7EBE00C94BD2A0F93F0
:105460001F93CF93DF93EB018093BB0084E880937D
:10547000BC000E945B218C018091BC0087FD0DC0A7
:10548000CF3F8FEFD807C1F3C8010E944C21C81746
:10549000D90790F78EEF9FEF0CC02091B900287FBD
:1054A00081E090E0283211F480E090E091958195C0
:1054B0009109DF91CF911F910F9108950F931F9341
:1054C000CF93DF93EC0184E88093BC000E945B21C2
:1054D0008C018091BC0087FD0DC0CF3F8FEFD807B6
:1054E000C1F3C8010E944C21C817D90790F78EEF6D
:1054F0009FEF03C08091BB0090E0DF91CF911F919F
:105500000F91089584E98093BC000895AA1BBB1BEA
:1055100051E107C0AA1FBB1FA617B70710F0A61BB3
:10552000B70B881F991F5A95A9F780959095BC01D4
:10553000CD0108952F923F924F925F926F927F928A
:105540008F929F92AF92BF92CF92DF92EF92FF9293
:105550000F931F93CF93DF93CDB7DEB7CA1BDB0B3F
:105560000FB6F894DEBF0FBECDBF09942A883988E4
:1055700048885F846E847D848C849B84AA84B984EB
:10558000C884DF80EE80FD800C811B81AA81B981F7
:10559000CE0FD11D0FB6F894DEBF0FBECDBFED010B
:1055A00008958F929F92AF92BF92CF92DF92EF9227
:1055B000FF92CF93DF93EC01688179818A819B818F
:1055C000611571058105910521F464E279ED8BE5A2
:1055D00097E02DE133EF41E050E00E94852B490137
:1055E0005A019B01AC01A7EAB1E40E94A42B6B0114
:1055F0007C01ACEEB4EFA50194010E94B22BDC015A
:10560000CB018C0D9D1DAE1DBF1DB7FF03C00197C3
:10561000A109B04888839983AA83BB839F77DF91D0
:10562000CF91FF90EF90DF90CF90BF90AF909F9081
:105630008F9008950E94D12A089580E091E00E9401
:10564000D12A0895A0E0B0E0809300019093010179
:10565000A0930201B09303010895F999FECF92BD82
:1056600081BDF89A992780B50895A6E1B0E044E09D
:1056700050E00C94772BA8E1B0E042E050E00C94AD
:10568000772BDC01A40FB51F4150504048F0CB01EF
:10569000840F951F2E910E94522B41505040D0F7FD
:1056A0000895262FF999FECF92BD81BDF89A0197F2
:1056B00000B4021639F01FBA20BD0FB6F894FA9A5A
:1056C000F99A0FBE08950396272F0E94522B0E942D
:1056D000512B252F0E94522B242F0C94522B0196D4
:1056E000272F0E94522B0C94512BDC01CB01FC0183
:1056F000F999FECF06C0F2BDE1BDF89A319600B42B
:105700000D9241505040B8F70895052E97FB1EF4B6
:1057100000940E949C2B57FD07D00E94B72B07FCDA
:1057200003D04EF40C949C2B5095409530952195C8
:105730003F4F4F4F5F4F08959095809570956195BD
:105740007F4F8F4F9F4F08950E94D92BA59F900D9B
:10575000B49F900DA49F800D911D11240895B7FF53
:105760000C94A42B0E94A42B821B930B0895A1E2FE
:105770001A2EAA1BBB1BFD010DC0AA1FBB1FEE1FCB
:10578000FF1FA217B307E407F50720F0A21BB30B16
:10579000E40BF50B661F771F881F991F1A9469F792
:1057A00060957095809590959B01AC01BD01CF01EE
:1057B0000895A29FB001B39FC001A39F700D811DEA
:1057C0001124911DB29F700D811D1124911D08950A
:1057D000991B79E004C0991F961708F0961B881F43
:1057E0007A95C9F78095089587FB082E062687FDD0
:1057F000819567FD61950E94E82B0EF4919507FC59
:105800008195089597FB072E16F4009407D077FD35
:1058100009D00E94862A07FC05D03EF49095819518
:105820009F4F0895709561957F4F0895EE0FFF1F6C
:105830000590F491E02D09940E94D92B332312F4A2
:105840008A1B9B0B0C94262C0E94D92BB7FF089522
:10585000821B930B08950F93083090F0982F872F99
:10586000762F652F542F432F322F22270850F4CF45
:10587000220F331F441F551F661F771F881F991F54
:105880000A95B2F70F91089597FB10F81694000847
:105890000F93083098F00850232F342F452F562FA0
:1058A000672F782F892F902DF4CF059497958795A2
:1058B0007795679557954795379527950A95AAF750
:1058C0000F9108950F931F93CF93DF93823091052B
:1058D00010F482E090E0E091AB03F091AC0320E0A3
:1058E00030E0A0E0B0E0309719F1408151810281B1
:1058F000138148175907C8F08417950769F4109762
:1059000031F012960C93129713961C9327C00093B4
:10591000AB031093AC0322C02115310519F04217D7
:10592000530718F49A01BD01EF01DF01F801DBCF45
:1059300021153105F9F0281B390B2430310580F48D
:105940008A819B816115710521F0FB01938382831C
:1059500004C09093AC038093AB03FE01329644C025
:10596000FE01E20FF31F8193919322503109398395
:1059700028833AC02091A9033091AA03232B41F434
:1059800020910601309107013093AA032093A903C7
:1059900020910401309105012115310541F42DB705
:1059A0003EB74091080150910901241B350BE0914D
:1059B000A903F091AA03E217F307A0F42E1B3F0BF3
:1059C0002817390778F0AC014E5F5F4F2417350771
:1059D00048F04E0F5F1F5093AA034093A903819391
:1059E000919302C0E0E0F0E0CF01DF91CF911F91F1
:1059F0000F910895CF93DF93009709F481C0FC01C4
:105A0000329713821282A091AB03B091AC0310972E
:105A100081F420813181820F931F2091A90330915D
:105A2000AA032817390751F5F093AA03E093A903B5
:105A300067C0ED0120E030E0CE17DF0740F44A8177
:105A40005B819E0141155105F1F0EA01F5CFD38349
:105A5000C28340815181840F951FC817D90759F41B
:105A600088819981840F951F0296918380838A8112
:105A70009B81938382832115310529F4F093AC0334
:105A8000E093AB033DC0E901FB83EA83499159915F
:105A9000C40FD51FEC17FD0761F480819181840F3D
:105AA000951F0296E90199838883828193819B8364
:105AB0008A83E0E0F0E012968D919C911397009715
:105AC00019F0FD01DC01F7CF8D919C9111979D019B
:105AD0002E5F3F4F820F931F2091A9033091AA039D
