:100000000C943D030C945A030C945A030C945A0319
:100010000C945A030C945A030C945A030C945A03EC
:100020000C945A030C945A030C948E0C0C94D00B21
:100030000C94C11F0C945A030C945A030C945A0349
:100040000C945A030C945A030C945A030C945A03BC
:100050000C945A030C94801F0C945A030C945A036A
:100060000C945A030C945A030C945A030C945A039C
:100070000C945A030C945A030C945A030C945A038C
:100080000C945A030C945A030C945A030C945A037C
:100090000C945A030C945A030C945A030C945A036C
:1000A0000C945A030C945A030C945A03E3090A0A59
:1000B000B80B0A0AB80B560A790AB80B6E0B7E0BFE
:1000C00054155B15601565156A156F15741579154E
:1000D0007E1583158815D9148F15921595159815C9
:1000E0009B159E15A015A315A51584168416B31689
:1000F000B3162E174C174E184E185117C517D61792
:10010000D617C81ACD1AD71ACB1AD01AD51AD31A9D
:100110006A1C6D1C701C731C761C791C7C1C1E0FC9
:100120000500047F3F1F643214643214783C1E1EA5
:10013000140A0505010980A101850319012AB700E8
:10014000150126B700950175108100C0050C090145
:10015000A101850419012AA002150126A00295011A
:1001600075108100C005010906A101850605071962
:10017000E029E71500250195087501810205071999
:100180000029EF1500250195F07501810205081978
:10019000012905950575019102950175039101C02D
:1001A00005010902A1010901A10005091901290898
:1001B00015002501950875018102050109300931F5
:1001C0001581257F95027508810609381581257FDF
:1001D000950175088106050C0A38021581257F9561
:1001E0000175088106C0C00660FF0961A1010962AE
:1001F000150026FF00952075088102096315002669
:10020000FF00952075089102C005010906A10105AE
:100210000719E029E7150025019508750181029568
:1002200001750881010507190029FF150026FF0047
:100230009506750881000508190129051500250195
:10024000950575019102950175039101C00902742C
:1002500000040100A0FA09040000010301010009E3
:100260002111010001224400070581030800010952
:1002700004010002030000000921110100012222F3
:10028000000705830320000107050403200001097E
:1002900004020001030102000921110100012247AB
:1002A00000070582030800010904030001030000A0
:1002B00000092111010001226D00070585032000BE
:1002C0000112010002000000089732754901000187
:1002D00002000122034500720067006F0044006FB6
:1002E000007800200045005A002000530068006993
:1002F000006E006500000028035A005300410020F2
:100300000054006500630068006E006F006C006FB1
:10031000006700790020004C00610062007300005B
:10032000000403090429002B00E000E100A90000FB
:10033000001E00140004001D00AA00E2001F001AA5
:100340000016001B00BD00E30020000800070006A7
:1003500000BE002C00210015000900190028784D6E
:1003600000220017000A0005000000C15200572DAE
:100370000000002F0000004A00A8002E00000030FE
:100380000000004B0023001C000B0011000000C106
:1003900052240018000D00100027784E0025000C94
:1003A000000E003600037E2800260012000F0037E2
:1003B00000047E2A0027001300330038000157296B
:1003C00000350031003400E500C152000029000171
:1003D0000001000100010000003A00D100CF00013F
:1003E00000010001003B00CD00CE00D30001000160
:1003F000003C00D200D0000100010001003D00D906
:1004000000DA000100010001003E0001003500019A
:100410000000000100440001000000010000000194
:10042000004500010000000100000001003F000144
:1004300000500001000000010040000100510001D7
:1004400000010001004100490052000100010001CB
:1004500000420046004F000100010001004300017E
:100460000001000100010001000100010001000184
:1004700000010000002223252628292A2C2D2F30B8
:1004800032333536383A3B3D3E4042434547494A90
:100490004C4E5051535557595A5C5E6062646668C1
:1004A000696B6D6F71737577797B7D7F81838587CC
:1004B000898A8C8E90929496989A9C9E9FA1A3A5CF
:1004C000A7A8AAACAEAFB1B3B4B6B8B9BBBCBEBFF7
:1004D000C1C2C3C5C6C7C9CACBCCCDCED0D1D2D27A
:1004E000D3D4D5D6D7D7D8D9D9DADADBDBDBDCDC85
:1004F000DCDCDCDDDDDDDDDCDCDCDCDCDBDBDBDA3D
:10050000DAD9D9D8D7D7D6D5D4D3D2D2D1D0CECDA7
:10051000CCCBCAC9C7C6C5C3C2C1BFBEBCBBB9B8B4
:10052000B6B4B3B1AFAEACAAA8A7A5A3A19F9E9C39
:100530009A98969492908E8C8A89878583817F7D04
:100540007B79777573716F6D6B6968666462605EE5
:100550005C5A5957555351504E4C4A4947454342AE
:10056000403E3D3B3A3836353332302F2D2C2A2948
:1005700028262523220001010101010101010102B8
:100580000202020202020202030303030303030343
:10059000040404040404040505050505060606060E
:1005A00006070707070708080808090909090A0ACA
:1005B0000A0B0B0B0C0C0C0D0D0D0E0E0E0F0F0F6E
:1005C00010101111111212131314141515161617F9
:1005D00017181819191A1A1B1B1C1D1D1E1E1F2067
:1005E00020212222232424252626272829292A2BB4
:1005F0002C2D2D2E2F3031323233343536373839D9
:100600003A3B3C3D3E3F40414243444546474849D2
:100610004A4C4D4E4F50515354555658595A5B5DA4
:100620005E5F616264656668696B6C6D6F70727342
:100630007577787A7B7D7E8082838587888A8C8EA9
:100640008F91939596989A9C9EA0A2A3A5A7A9ABDB
:10065000ADAFB1B3B5B7BABCBEC0C2C4C6C9CBCDCD
:10066000CFD1D4D6D8DBDDDFE2E4E7E9EBEEF0F37F
:10067000F5F8FAFDFFFFAA7F554011241FBECFEF0A
:10068000DAE0DEBFCDBF11E0A0E0B1E0E2ECF7E5DB
:1006900002C005900D92A83CB107D9F723E0A8EC61
:1006A000B1E001C01D92A23AB207E1F70E945C03DB
:1006B0000C94DF2B0C940000A6E4B0E0E2E6F3E03B
:1006C0000C94E02885B7806885BF85B7806885BFB2
:1006D00084B7877F84BF0FB6F894A8958091600097
:1006E000886180936000109260000FBE90E080E807
:1006F0000FB6F89480936100909361000FBE8BEE6B
:100700009DE09093C9018093C8010E94140C0E943F
:10071000330C8091E20084608093E20078948091B1
:1007200035028823A1F01091E9001F709091EC0030
:10073000892F817090FD80E8182B1092E90080913C
:10074000E80083FD0E94FE081F701093E90082E01C
:1007500084BD93E095BD9AEF97BD80936E000E9493
:10076000451B90E090933801809337010E94801CD4
:100770000E94C61CE0EDF1E0A2EEB1E011921D92E4
:1007800021E0EE3DF207D1F78EE090E00E94A42A2E
:100790008093CA019093CB01FC010E9611928E17A3
:1007A0009F07E1F789EA8093800089E080938100C8
:1007B00024982C983F988AB18F7C8AB96E98479A72
:1007C0008BB180638BB9769A8FE090E00E94772995
:1007D0006093CC017093CD018093CE019093CF01B3
:1007E00067708FEF689FB0011124759567957595B7
:1007F00067957727709389006093880070938B00CA
:1008000060938A0070938D0060938C000E94BC1BE3
:1008100080E090E00E947D29863E9E4F11F00E946C
:10082000321082E090E00E946F298093F00184E012
:1008300090E00E947D29909303028093020283E05E
:1008400090E00E946F290E9484258091DF010E9420
:10085000A81A8091DE01811176C080E090E00E94AC
:100860007D29863E9E4F21F00E9432100E94362242
:1008700088E090E00E9477294B015C0184E290E0DF
:100880000E946F29282F30E040E050E060E070E0E7
:1008900080E090E000E20E946D2A282939294A2947
:1008A0005B29209352033093530340935403509396
:1008B00055036093560370935703809358039093A6
:1008C00059032E7F89F50E94362288E090E00E942D
:1008D00077296B017C0184E290E00E946F29282F28
:1008E00030E040E050E060E070E080E090E00E94A6
:1008F0006D2AB22FA32FF42FE52F5B0197018601FC
:10090000BC29A12BF22BE32BB0935203A0935303EA
:10091000F0935403E093550360935603B09257034A
:1009200080935803909359030E94B62110927C0340
:100930008091520380FF04C060E086950E941B24D2
:1009400081E08093DE018091DF010E94A81A8AE095
:1009500091E09093600380935F0388E1E82EF12C8F
:1009600080913502853009F07EC000E4D02ECC2481
:10097000C39400E112E180913502853009F05CC03A
:1009800080913502843009F434C010927C03809148
:10099000E10181110DC0C092E10180915203982FB5
:1009A00091709093E0018E7F809352030E941221F8
:1009B000109263030FB6F894A895E09260000FBE02
:1009C000D092600083B7817F846083BF83B78160EA
:1009D00083BF7894889583B78E7F83BF0FB6F894D2
:1009E000A8958091600088618093600010926000FB
:1009F0000FBE80912902882309F4BDCF0E94451BB8
:100A000090E090933801809337010E94801C0E94EF
:100A1000C61CE2EEF1E0119221E0E03FF207D9F7C7
:100A20000E942913E2EEF1E081918111E2C281E09E
:100A3000E03FF807C9F79FCF109205020E94AA2550
:100A40000E9491201092E1018091E001882349F0F9
:100A50008091520381608093520360E086950E94EA
:100A60001B240E9405240E94291311EFC12E11E0BE
:100A7000D12E2FEF31E0A2EEB1E0F60191918D91F0
:100A800089272E173F0719F08823C1F305C081116C
:100A900003C00E94051454C0B2EE8B2EB1E09B2E11
:100AA00010E0F40171904F01F601A080A724B1F18C
:100AB00000E0BB24B394662463948A2D8B2141F11A
:100AC00022960FAF229723961FAF23970E94B51F40
:100AD00025969FAF8EAF259726966FAE269791E00D
:100AE000872D8B2109F490E027969FAF27972296B8
:100AF0004FAD229723965FAD239724966FAD249731
:100B000025967FAD259726968FAD26970E94F019E2
:100B10000F5FBB0C063089F6F60170821F5FFFEF96
:100B2000CF1ADF0A1E3009F0BCCF8FB7F89440917E
:100B300064035091650360916603709167038FBFF2
:100B400080915B0390915C03892BE9F08091FF0118
:100B5000909100020E94A61F893C9105A0F080910F
:100B60005B0390915C039927A4E0880F991FAA95D5
:100B7000E1F7FC01E95EFE4F208122FD04C08E5E9C
:100B80009E4F0E94BD2080917C03882309F4A5C05C
:100B900080917B03E0915203E695E81BE093770395
:100BA000823059F4F0E0E15DFE4FE4910E2F10E049
:100BB000F8E4CF2EFFE1DF2E6BC0863059F4F0E071
:100BC000E45DFE4FE4910E2F10E0E8E3CE2EEFE15E
:100BD000DE2E5EC0893061F4E695F0E0E75DFE4F01
:100BE000E4910E2F10E074EDC72E7EE1D72E50C099
:100BF0008F3061F4E695F0E0EA5DFE4FE4910E2F50
:100C000010E06EE6C62E6EE1D62E42C0853159F454
:100C1000F0E0ED5DFE4FE4910E2F10E05EE1C52E99
:100C20005EE1D52E35C08831F9F0833249F4E1E236
:100C3000F1E0059114914EEFC42E4EE1D42E28C060
:100C40008432C9F08532F1F48E2F63E00E942A2AA3
:100C5000E92FF0E0E25EFE4FE4910E2F10E037ED59
:100C6000C32E3CE1D32E14C008E210E023EAC22ECA
:100C70002DE1D22E0DC004EF11E09BE6C92E9DE1BF
:100C8000D92E06C000ED17E086EDC82E8CE1D82ED7
:100C900080917803882361F0109278030E94B51F39
:100CA000909376038093750310927A0310927903E0
:100CB0000E94B51FE0917503F09176038E1B9F0B88
:100CC0008F3F9F4750F40E0F1F1F10937603009322
:100CD000750385E793E0F6010995B0906F03C09026
:100CE000700310917103D0907203009173031092FE
:100CF0007003109271031092720310927303C1106B
:100D000003C0112309F447C080916D0390916E03D5
:100D10000E94A61F9C0190916803992309F481C148
:100D200025313105C0F19F3F19F09F5F9093680313
:100D3000CC2061F00E94D4231C1414F491E001C073
:100D40009FEF899F802D112480937003112361F000
:100D50000E94D423111614F09FEF01C091E0899FE7
:100D6000802D11248093710380917003882399F062
:100D7000A0907103AA2079F00E94F723811101C08D
:100D800081E0809370038A2D0E94F723811101C0B6
:100D900081E080937103D11003C0002309F447C0A0
:100DA00080916B0390916C030E94A61F9C0190910F
:100DB0006903992309F439C125313105C0F19F3FF9
:100DC00019F09F5F90936903DD2061F00E94B423C6
:100DD0001D1414F491E001C09FEF899F802D112410
:100DE00080937203002361F00E94B423101614F064
:100DF0009FEF01C091E0899F802D112480937303A0
:100E000080917203882399F0A0907303AA2079F04F
:100E10000E94F723811101C081E0809372038A2D23
:100E20000E94F723811101C081E0809373038091B8
:100E30006F038B111AC080917003882311F08C11FD
:100E400014C080917103882311F018130EC0809193
:100E50007303882311F0081308C09091720399233B
:100E600031F081E0D91204C002C081E001C080E00D
:100E700080FD15C08091700381110FC080917103B6
:100E800081110BC080917203811107C081E09091A4
:100E90007303911103C080E001C081E080FD0E94D6
:100EA0007724B0926F03C092700310937103D092B5
:100EB0007203009373030E9491209091010289179D
:100EC00069F0809301028FB7F894409164035091C8
:100ED000650360916603709167038FBF809135024F
:100EE000843009F03DCD8093E9008091E80082FFD5
:100EF00037CD8091E80085FF22C00E94650D8111E9
:100F00001CC000E210E06E01F1E2CF0ED11C08C05F
:100F10008091F100F60181936F010150110969F090
:100F20008091E80085FDF4CF8091E8008B77809375
:100F3000E8000E94650D882399F391E001C090E0DC
:100F40008091E8008B778093E800992309F408CD1D
:100F500089A1853009F447C048F4813001F190F04F
:100F6000823009F4FDCC843029F13FC08730C9F1CB
:100F7000D0F18830C1F18E3FC1F5898393E09A8327
:100F80008B8313C019828CE0E4E4F1E0DE01129659
:100F900001900D928A95E1F78EEF8D8706C08093C0
:100FA000330284E089838EEF8A83CE0101960E940A
:100FB000C20DD6CC80913302882309F4D1CC8AA10A
:100FC000811104C08BA10E946B25CACC81E090E006
:100FD0000BA002C0880F991F0A94E2F70E944325D4
:100FE000BFCC85E003C084E001C08FEF0E94E72002
:100FF000B7CC09BD19BD09B400FEFDCF8091D80062
:101000008F7D8093D8008091E00082608093E00023
:101010008091E00081FDFCCF109205020E94AA257C
:10102000AACC232B09F081CEB6CE2139314008F06D
:10103000C8CEFDCE80912B0287FF11C08091E800C1
:1010400082FD05C0809135028111F8CF11C08091D9
:10105000E8008B770BC080913502882349F080919E
:10106000E80080FFF8CF8091E8008E778093E80059
:101070000895982F973068F59093E900981739F004
:101080007091EC002091ED005091F00003C0242FEE
:10109000762F50E021FD02C09F5FECCF3091EB0036
:1010A0003E7F3093EB003091ED003D7F3093ED00BB
:1010B0003091EB0031603093EB007093EC002093A3
:1010C000ED005093F0002091EE0027FDE5CF80E089
:1010D00008958F708093E90081E008952091310296
:1010E000309132022617370748F06115710539F43F
:1010F0002091E8002E772093E80001C0B901FC019F
:1011000020E06115710579F1809135028823F1F1B4
:101110008530F1F18091E80083FD3CC08091E800CA
:1011200082FD2EC08091E80080FFEBCF2091F3007C
:101130008091F20090E0922B6115710551F088309A
:10114000910538F421912093F100615071090196C5
:10115000F3CF21E0089709F020E08091E8008E7736
:101160008093E800CECF2111CFCF0AC08091350205
:10117000882361F0853061F08091E80083FD0AC02A
:101180008091E80082FFF2CF80E0089582E0089528
:1011900083E0089581E0089543E050E0BC0185E0DC
:1011A0000E945C1F089545E050E0BC0182E00E946F
:1011B0005C1F0895CF93DF93EC0180913201811180
:1011C00005C048E050E0BE0181E00BC08091020202
:1011D00087FF03C040E285E002C048E081E050E0C4
:1011E000BE010E945C1F80E2FE01A8E0B2E0019017
:1011F0000D928A95E1F7DF91CF910895AAE2B0E0D0
:10120000E4E0F9E00C94EB28EBE2F2E083E392E017
:101210002091F10021938E179F07D1F780912C0226
:10122000833009F463C030F4813071F0823009F406
:101230009FC0B6C08A3009F48BC08B3009F46EC0F1
:10124000893009F0ADC020C080912B02813A09F0AD
:10125000A7C08091E800877F8093E80080912F02EB
:1012600090913002892B21F460E288E092E003C083
:1012700060E080E090E070E00E946E088091E800FD
:101280008B778093E8008CC080912B02813209F02B
:1012900087C080912F0290913002009719F0039738
:1012A00009F07EC08091E800877F8093E8008091FC
:1012B000E80082FD05C0809135028111F8CF70C031
:1012C0002091F3008091F20090E0922B029731F48C
:1012D0008091F100813011F0863021F48091F1008D
:1012E000809307028091E8008B7756C080912B0293
:1012F000813A09F055C080912F0290913002892BDC
:1013000009F04EC08091E800877F8093E8008091CB
:10131000E80080FFFCCF8091320139C080912B0220
:101320008132F1F580912F0290913002892BC1F525
:101330008091E800877F8093E8000E941A088091DE
:101340002D0280933201109205020E94AA2528C026
:1013500080912B02813221F58091E800877F809374
:10136000E8000E941A0880912E028093060218C09D
:1013700080912B02813AA1F48091E800877F8093CD
:10138000E8008091E80080FFFCCF80910602809306
:10139000F1008091E8008E778093E8000E941A089F
:1013A0008091E80083FFE4C180912B0290912C0290
:1013B000492F50E04A30510508F0DAC1FA01EA5AE3
:1013C000FF4F0C94582A803821F0823809F0D0C1A0
:1013D00008C08091280290912902992389F08260A7
:1013E0000FC080912F028F70873008F0C1C18093A9
:1013F000E9008091EB0085FB882780F91092E900D5
:101400009091E800977F9093E8008093F10010920C
:10141000F10070C1282F2D7F09F0AAC1882319F08F
:10142000823061F0A5C180912D02813009F0A0C108
:10143000933009F080E0809329022EC080912D0224
:1014400081112AC080912F028F702FEF280F263034
:1014500008F08EC18093E9002091EB0020FF1CC0B2
:10146000933021F48091EB00806214C09091EB00E6
:1014700090619093EB0021E030E0A90102C0440F9D
:10148000551F8A95E2F74093EA001092EA00809196
:10149000EB0088608093EB001092E9008091E800F7
:1014A000877F8093E8000E941A0862C1811160C1A1
:1014B00010912D021F778091E3008078812B80931B
:1014C000E3008091E800877F8093E8000E941A087B
:1014D0008091E80080FFFCCF8091E30080688093DA
:1014E000E300111102C082E001C083E08093350265
:1014F0003FC18058823008F03BC120912D023091CD
:101500002E022C3D53E0350779F583E08A838AE289
:1015100089834FB7F894DE01139620E03EE051E254
:10152000E32FF0E050935700E49120FF03C0E295D1
:10153000EF703F5FEF708E2F90E0EA3010F0C796AB
:1015400001C0C0968D939D932F5F243149F74FBF03
:101550008091E800877F8093E8006AE270E0CE0126
:1015600001960E946E08B4C080912F0290913002C3
:10157000432F552743305105A9F068F441305105F8
:1015800009F405C14230510509F0F2C084E790E04A
:10159000EDE4F2E04BC04132510529F142325105F0
:1015A00089F1E6C0C901992781309105A1F058F071
:1015B000029709F0DDC0E3EDF2E0E4918E2F90E0B8
:1015C000E3EDF2E030C0E1E2F3E0E4918E2F90E051
:1015D000E1E2F3E028C0E7EFF2E0E4918E2F90E043
:1015E000E7EFF2E020C08430910508F0C1C0880F19
:1015F000991FFC01E45AFE4F0190F081E02D89E033
:1016000090E014C08430910508F0B2C0FC01EE0FE8
:10161000FF1FEC5AFE4F0190F081E02DDC01A05B32
:10162000BE4F8C9190E0009709F4A2C02091E80091
:10163000277F2093E8002091310230913202281751
:10164000390708F4C90140E0009789F1209135027B
:10165000222309F43DC02530D9F12091E80023FD73
:1016600037C02091E80022FD2FC02091E80020FF24
:10167000EBCF4091F3002091F20030E0342B009743
:1016800059F02830310540F444914093F1003196EF
:1016900001972F5F3F4FF3CF41E02830310509F02C
:1016A00040E02091E8002E772093E800CDCF411153
:1016B000CDCF0AC080913502882351F0853041F0AA
:1016C0008091E80083FD04C08091E80082FFF2CFA2
:1016D0008091E8008B778093E8004AC0803809F059
:1016E00047C08091E800877F8093E80080912A02BC
:1016F0008093F1008091E8008E77D3CE811138C0BD
:1017000080912D0290912E02992702978CF580915D
:10171000E800877F8093E80010912D0210932A0241
:101720000E941A08111106C08091E30087FD02C0D3
:1017300081E001C084E08093350242E061EC81E009
:101740000E94390842E061EC82E00E94390842E2DE
:1017500061EC85E00E94390842E261EC83E00E947E
:10176000390842E260EC84E00E9439088091350239
:101770008091E80083FF10C08091E800877F80930C
:10178000E8008091EB0080628093EB0005C082E16D
:1017900090E0E1ECF2E04ACFAA96E3E00C9407294E
:1017A0001F920F920FB60F9211242F933F934F93D6
:1017B0005F936F937F938F939F93AF93BF93CF93D9
:1017C000DF93EF93FF93C091E900CF708091EC001D
:1017D000D82FD17080FDD0E81092E9008091F00000
:1017E000877F8093F00078940E94FE081092E900B1
:1017F0008091F00088608093F000CD2BCF70C09373
:10180000E900FF91EF91DF91CF91BF91AF919F914F
:101810008F917F916F915F914F913F912F910F9099
:101820000FBE0F901F901895E8EDF0E080818E7F3D
:1018300080831092E2001092DA001092E100A0EE94
:10184000B0E08C9181608C9380818F77808319BC0C
:10185000A7EDB0E08C918E7F8C9380818F7E80830A
:10186000109204020895A0E0B0E0E9E3FCE00C94DB
:10187000E628C8EDD0E088818F7E8883E7EDF0E030
:1018800080818160808384E082BF81E08093040254
:1018900088818E7F888302EE10E0F801108210921A
:1018A000DA0081EEC82ED12CF601108288818F7764
:1018B000888388818068888388818F7D888319BC2C
:1018C0001092350210922A021092290210922802D8
:1018D00090EEE92EF12CF70180818B7F8083888147
:1018E0008160888342E060E080E00E943908F60170
:1018F00080818E7F8083F8018081816080838081F8
:1019000088608083F70180818E7F808388818061F9
:101910008883CDB7DEB7E8E00C9402291F920F92BE
:101920000FB60F9211242F933F934F935F936F93B2
:101930007F938F939F93AF93BF93EF93FF93809188
:10194000E10082FF09C08091E20082FF05C0809122
:10195000E1008B7F8093E1008091DA0080FF2AC054
:101960008091D80080FF26C08091DA008E7F80931E
:10197000DA008091D90080FF18C080E189BD82E142
:1019800089BD09B400FEFDCF81E0809335028091CE
:10199000040281110FC00E94140C0E94330C80912C
:1019A000E20084608093E20005C019BC1092350209
:1019B000109204028091E10080FF17C08091E20044
:1019C00080FF13C08091E2008E7F8093E2008091BF
:1019D000E20080618093E2008091D8008062809371
:1019E000D80019BC85E0809335028091E10084FF26
:1019F00030C08091E20084FF2CC080E189BD82E18B
:101A000089BD09B400FEFDCF8091D8008F7D809301
:101A1000D8008091E1008F7E8093E1008091E20008
:101A20008F7E8093E2008091E20081608093E200EB
:101A300080912A02882311F084E007C08091E3009E
:101A400087FD02C081E001C083E080933502809170
:101A500035028091E10083FF27C08091E20083FF7F
:101A600023C08091E100877F8093E10082E0809332
:101A7000350210922A028091E1008E7F8093E1006E
:101A80008091E2008E7F8093E2008091E20080618D
:101A90008093E20042E060E080E00E94390880919B
:101AA000F00088608093F000FF91EF91BF91AF91BB
:101AB0009F918F917F916F915F914F913F912F9166
:101AC0000F900FBE0F901F9018952091E400309159
:101AD000E50095E64091EC00842F817040FF23C023
:101AE0008091E80080FD1DC080913502882399F027
:101AF000853099F08091EB0085FD11C04091E400A4
:101B00005091E5002417350729F3915011F09A01FF
:101B1000E1CF84E0089582E0089583E0089581E0B4
:101B2000089580E008954091E80042FFDDCF0895D8
:101B3000EF92FF920F931F93CF93DF937C018B0162
:101B40000E94650D811119C0E70101151105A1F071
:101B50008091E80085FD0AC08091E8008E7780932F
:101B6000E8000E94650D882381F307C08991809366
:101B7000F10001501109E9CF80E0CDB7DEB7E6E012
:101B80000C940429CF9320913502243011F5C09193
:101B9000E900CF703091EC00232F217030FD20E858
:101BA000C22B23E02093E9002091E80020FF0EC023
:101BB00040E050E060E270E00E94980D81111092C8
:101BC00033028091E8008E778093E800CF70C09355
:101BD000E900CF91089580E008959091020292FF6C
:101BE00010C041E0282F2471243009F040E031E09A
:101BF000282F2871283009F030E0431711F02CE02D
:101C0000822793FF10C041E0282F2471243109F06E
:101C100040E031E0282F2871283109F030E04317E7
:101C200011F02CE082273091030230FF10C051E008
:101C3000282F2171213009F050E041E0282F287130
:101C4000283009F040E0541711F029E0822731FFD5
:101C500010C041E0282F2171213109F040E031E02E
:101C6000282F2871283109F030E0431711F029E0BE
:101C7000822794FD877E08958238910569F1B0F43A
:101C80008133910509F475C048F48932910509F44E
:101C900067C08A32910509F471C0089585339105B2
:101CA00009F459C089339105B9F00895833E91052F
:101CB00089F138F4803E9105D1F0823E910529F1F9
:101CC0000895863E9105C9F1873E9105D9F1843E7C
:101CD000910509F06CC027C02091020220FD57C079
:101CE00021FD55C02091030223FD5BC00895809122
:101CF000020280FD48C08091030280FF48C08091AD
:101D0000020284FD46C083EE51C08091020282FF30
:101D10003CC0F5CF8091020282FD37C08091030262
:101D200080FD35C0ECCF8091030281FF36C08091E9
:101D3000020284FD2EC087EE39C08091020283FF2B
:101D40002AC0F5CF8091020283FD25C08091030255
:101D500081FD23C0ECCF8091020285FD22C01FC00F
:101D60008091020285FD1BC08091030283FF19C090
:101D70000AC08091020286FD16C017C0809102023F
:101D800086FD13C010C089E311C082EE0FC080EE43
:101D90000DC080E00BC086EE09C084EE07C085E36D
:101DA00005C089E203C08AE201C081E390E00895A2
:101DB0002091960290915D0257E02917A9F030E03A
:101DC000529FF001539FF00D1124E25AFD4F718193
:101DD000761306C07081781303C07581741306C032
:101DE0002F5F3F4F2770E9CF80E0089581E008958D
:101DF0007E30B0F46630A0F48230A0F494E5899F80
:101E0000F001112486E0789FE00DF11D1124E60F0A
:101E1000F11DEE0FFF1FEB5DFC4F8591949108952E
:101E200080E001C081E090E008951F93CF93DF939D
:101E30000E943C0EEC01C11580E5D807E8F5C115FC
:101E400090E4D90708F0A8C0C03ED10530F5CD3CDC
:101E5000D10508F094C0C83AD10578F4C53AD10547
:101E600008F083C0C130D10509F47CC008F4F2C089
:101E7000C430D10508F0F1C0EDC0C33CD10508F075
:101E8000E9C0C85AD0E0CC0FDD1FC959DE4F099018
:101E9000D881C02DCE019464E1C0C11580E2D8077D
:101EA00008F0CBC0C11591E0D90708F06BC0C83E5F
:101EB000D10508F4D2C0CEC0C03682E5D80728F5D7
:101EC000C03492E5D90708F079C0C03282E5D8075E
:101ED00008F06CC0C11592E5D90708F481C04C2FF9
:101EE0004695469580E2489FA0011124C37021E0E9
:101EF00030E0C90102C0880F991FCA95E2F7EA01D4
:101F0000C82BD92BCE019D68A9C0C03A82E5D8075D
:101F1000B8F48C2F8F71C03892E5D90708F07BC0D8
:101F20008695869590E2899F90011124C37081E087
:101F300090E002C0880F991FCA95E2F79A6868C0BE
:101F4000C03C82E5D80708F46DC0C03E92E5D907D1
:101F500008F080C0CF71DD27DC2FCC27CE01806F49
:101F6000906A7CC081E090E079C0C55AD0E0CC593D
:101F7000DE4F8881C82FD0E0CE0190646FC0CE01C3
:101F800090656CC08D2F0E94ED0D182FCE01992702
:101F90000E943C0E1F715CC0CE0199270E943C0E2E
:101FA000CC27DF70D06A8C2B9D2B58C0CF71D0E02E
:101FB000DC2FCC27CE01816F906A50C08C2F8F719F
:101FC0008695869590E2899F90011124C37081E0E7
:101FD00090E002C0880F991FCA95E2F79C6818C06C
:101FE0008C2F8F710E94ED0D95E0D695C7959A952F
:101FF000E1F7CF70D0E0DC2FCC27282F30E084FF32
:1020000005C084E0220F331F8A95E1F7D069CE0125
:10201000822B932B23C090E0D82FCC27CE01846F46
:10202000906A1CC08C2F8F710E94ED0D8F7190E013
:10203000D82FCC27CE01906211C08D2F8F710E94B6
:10204000ED0D182FCE0199270E943C0E1F71906252
:10205000912B04C080E090E001C0CE01DF91CF91D0
:102060001F910895A8E0B0E0E8E3F0E10C94EC28BB
:1020700066EE7EEF80E090E00E94B12960E082E0B1
:1020800090E00E94932960E083E090E00E94932911
:102090001092B90260E074E184E090E00E94B129FE
:1020A00060E086E090E00E9493296FEF87E090E087
:1020B0000E94932940E050E0BA0188E090E00E943D
:1020C000A52960E084E290E00E94932960E087E126
:1020D00090E00E94932960E08CE090E00E949329B8
:1020E00060E08DE090E00E94932919821A821B82A1
:1020F0001C821D821E821F82188648E050E068E123
:1021000070E0CE0101960E94832940E050E0BA01C0
:1021100080E290E00E94A5291092CC011092CD019E
:102120001092CE011092CF0184E08093CC014091B7
:10213000CC015091CD016091CE017091CF018FE023
:1021400090E00E94A52940E050E0BA0183E190E0D0
:102150000E94A5292896E2E00C9408298095909188
:102160005A03892380935A0308958095909105021C
:1021700089238093050208959091050280915A0366
:10218000982B909336028091B8028823D9F0892B3E
:102190008093360280913201882331F080910202CF
:1021A00087FF02C08EE101C086E0E8E3F2E090E044
:1021B000815028F021912223D9F39F5FF9CF91110B
:1021C0001092B80240E250E068E972E086E392E0E3
:1021D0000E94D22B892B21F180E2E6E3F2E0A8E90C
:1021E000B2E001900D928A95E1F7E0915F03F091E2
:1021F00060033097A9F080913201882359F08091D3
:10220000020287FF07C0809136028093370286E082
:10221000809336020280F381E02D86E392E00995F7
:102220000895909197028095892380939702282F93
:10223000277069F4981759F09091030292FF07C034
:102240008695869586950E946B2510929702089533
:102250009091030292FB222720F9281779F080FB46
:1022600092F990930302609102027091030284E05C
:1022700090E00E94B12982E00E941111089580919E
:10228000960290915D02891719F08F5F8770FBCFDE
:102290000895CF93DF9380915C0282958F7009F04F
:1022A0004EC080915B02882309F449C08091960258
:1022B00040915D025091570260915602C0915802C0
:1022C000D091590277E08417D1F190E0789FF00126
:1022D000799FF00D1124DF01A25ABD4F14962C9165
:1022E0001497222349F111962C911197251324C09C
:1022F0002C91261321C015962C91159721111CC0E5
:1023000012962D913C9113972C1B3D0B283C3105C7
:1023100098F480915C028F70806180935C02EC592C
:10232000FD4F80818F708061808386E592E00E94FE
:1023300029140E943F1103C001968770C4CFDF911A
:10234000CF910895A4E1B0E0E8EAF1E10C94E2282D
:102350008C0186E0F801DE011F9601900D928A95AE
:10236000E1F7F8018481E58096E5892E92E0992EC7
:1023700090915A02911120C0882309F463C1EE2084
:1023800009F442C0C8010E948725F82E8823E1F194
:1023900087E0F801D40101900D928A95E1F78091D0
:1023A0005A02813031F480915602909157020E9476
:1023B000CD240E94491148C1F801D080C180A2807B
:1023C000B380F0905B022091580230915902FF20B7
:1023D00009F4E7C0A501421B530B483C510508F026
:1023E0009DC0882309F430C180915C02282F207F92
:1023F00090915702222361F09C1509F460C0C80136
:102400000E948725811163C0C8010E9429141AC146
:102410009C1113C0909156029D110FC0E1100DC088
:102420008F70806180935C0286E592E00E9429149F
:1024300080915C02F801868303C1E1103AC040E05C
:102440006C2D8D2D0E94D80E40E06C2D8D2D0E949C
:10245000D80EE82E8111F4C0DF86C88A8F8598894E
:102460000E94CD24292F22952F70243020F49F70B4
:10247000223028F009C02A50223080F014C099235D
:1024800049F0811107C013C0992321F0F80196810A
:10249000907F69F0805E883030F409C0803F38F06A
:1024A000815F833020F0C8010E942914EF2CFE2C9C
:1024B000CBC080915C02816080935C02C1C090912E
:1024C00056029D119CCFE1109ACFF80198C0EE20E2
:1024D00009F49ACF20915C02822F82958F7090E050
:1024E00002978CF0809156029091570299878887C5
:1024F000BB86AA8680915A028C871D862E87CE01C4
:1025000008960E94291487E0F801A6E5B2E0019040
:102510000D928A95E1F70E94491194C090915C0256
:10252000292F207F51F486E592E00E94291487E04C
:10253000F40111928A95E9F783C0882309F484C0D5
:10254000809157028C110CC0809156028D1108C0E9
:10255000E11006C0F8019683C8010E9429146AC0E0
:10256000C8010E948725882309F44ECFEE2009F484
:102570004BCF20915C02822F82958F7090E0029762
:1025800014F280915602909157029A838983BC82FB
:10259000AB8280915A028D831E822F83CE010196D9
:1025A000B0CFA21AB30AF8ECAF16B10408F042C0DB
:1025B000882309F447C0FE2CEE2009F425CF809132
:1025C00057028C1129C0809156028D1125C090911F
:1025D0005C0290FD18C0892F82958F70282F30E003
:1025E0002115310581F0F80196832F30310541F036
:1025F0008F5F982F9295907F86818F70892B86832D
:10260000C8010E94291487E0F801A6E5B2E0019014
:102610000D928A95E1F718C0C8010E9487258111A3
:1026200072CF80915C02816080935C02C8010E943D
:1026300029140AC087E0F40111928A95E9F704C0D1
:10264000F12C02C0FF24F3948F2D6496ECE00C94DF
:10265000FE28A0E0B0E0EFE2F3E10C94E6288091E0
:10266000370190913801892BB9F08091BC028F5FBE
:102670008093BC02811110C00E94451B90E0909392
:10268000380180933701892B39F40E94BC1B81E00B
:10269000809336010E94122100ED11E07801D0E014
:1026A000C0E087E0C82ECC0E8C2F0E942C1C8C2DF5
:1026B0000E942C1C8C2F0E948F1C8F73F70190811D
:1026C000891721F08083DD24D39401C0D12C8C2D77
:1026D0000E948F1C8F73F7019781891719F08783E8
:1026E00081E001C080E0D82ADD290E94801CCF5FF4
:1026F000FFEFEF1AFF0AC730A1F61092C102C09196
:10270000C002CC2309F47DC00E94B51F2091BE02F7
:102710003091BF02AC01421B530B9A019093BF0250
:102720008093BE024F3F510509F018F4452B19F173
:1027300002C02FEF30E01092C0021092BD02E09173
:10274000CA01F091CB01AF01425F5F4F90E030E0F2
:102750008081882341F0281718F010829C2F03C035
:10276000821B80833C2F3196E417F50789F730935D
:10277000C0029093BD02DD23B1F11092BD02E09141
:10278000CA01F091CB018091C1029091C002A2EEEA
:10279000B1E0AF01425F5F4F6EE1E80128813C91FB
:1027A000321779F0308131110CC060832C939881FD
:1027B0009227282F30E0292B81E0232B09F480E099
:1027C00091E0319611960F5F1F4FE417F50729F737
:1027D0008093C1029093C0028091C102CDB7DEB751
:1027E000E8E00C94022981E09091BD029923A1F3C5
:1027F0008111C3CF0E94B51F9093BF028093BE0288
:10280000BCCFD111F7CF80E0EFCFA6E0B0E0EBE096
:10281000F4E10C94EA280E94B51F8C018091BA0261
:102820009091BB020817190781F019821A820E9441
:10283000B51F682F49815A81792F80E090E00E946E
:10284000F0191093BB020093BA022696E4E00C94B0
:102850000629A0E0B0E0EFE2F4E10C94E528FC01E9
:102860002481222309F444C47C0161E00E94C5193B
:10287000EC01F7018581882309F432C480915B0360
:1028800090915C03009709F45EC0C817D90709F45A
:102890005AC0992734E0880F991F3A95E1F7FC0157
:1028A000E95EFE4F2081246020838E5E9E4FFC01F6
:1028B000D183C0830E94BD2010925A0361E0C701FA
:1028C0000E94C519EC0181159E4709F040C0F7012F
:1028D0008581882309F409C49091CC0181E0890F96
:1028E0008770987F853020F4892B8093CC0102C0BB
:1028F0009093CC018091CC018770FFEF8F9FC00136
:10290000112495958795959587959927909389009A
:102910008093880090938B0080938A0090938D0021
:1029200080938C004091CC015091CD016091CE01FB
:102930007091CF018FE090E00E94A5298091DF0186
:102940000E94A81AD2C3C115FEE7DF0729F2F701DA
:102950008581C230FEE7DF07F1F028F4C1304EE791
:10296000D407E9F02FC0C3305EE7D50729F0C430A3
:102970009EE7D90731F026C0882341F08FE992E025
:1029800007C0882319F081E292E002C080E090E065
:102990000E94472052C1882309F44FC10AC08823EE
:1029A00009F44BC19091C20281E089278093C20251
:1029B00044C181E004C081608093520386950E94E7
:1029C0005E243BC19E0137552F3F310511F008F0C1
:1029D00059C06E01DD24960194E0220F331F9A95B1
:1029E000E1F789010E5E1E4FF901E95EFE4F6F01AE
:1029F000908180FB90F99083F7018581882341F1D4
:102A00000E94B51F909300028093FF01F80182811C
:102A10008F5F828390915A0380910502892B838373
:102A20008091B80284834681578166857785C80185
:102A30000E949E20F601808181FF03C090E080E02B
:102A400002C09C2F8D2F90935B0380935C031AC070
:102A5000F8014485558566857785C8010E949E20CA
:102A6000F601808181FF0EC0C8010E94A4208091E0
:102A70005B0390915C038C179D0721F410925C031B
:102A800010925B03F7018581811164C0809105027A
:102A90008272FE01E052F847E531F10508F0DFC02F
:102AA000E05AFF4F0C94582A8091520380FF83CF45
:102AB0000E942322C2C042E654E26CE674E22CC0BB
:102AC0004CE654E262E674E227C040EA53E26AEA66
:102AD00073E222C04AEA53E260EA73E21DC046E8AC
:102AE00053E263E973E218C043E953E266E873E234
:102AF00013C04CE653E269E773E20EC049E753E2C4
:102B00006CE673E209C04FEE51E269E072E204C084
:102B100049E052E26FEE71E20E940B218EC065E047
:102B200082E015C068E086E012C06EE089E00FC068
:102B300064E18FE00CC067E185E109C088E13FCF27
:102B400062E289E104C083E23ACF6AE285E20E9450
:102B5000F82073C0C330FCE7DF0709F459C048F41C
:102B6000C1154CE7D407A9F0C130DC4709F456C0C1
:102B700076C0CB358CE7D80709F45BC0CC359CE731
:102B8000D90709F44EC0CA35DC4709F068C081E0B6
:102B900051C0109205020E94AA25FFEF24E34CE0E9
:102BA000F15020404040E1F700C00000F89481E07F
:102BB0008093E00080E28093D8001092C9008FE1FA
:102BC0009EE40197F1F700C000001DBA1092680062
:102BD0001CBC10BE1FBA10927A0010926E001092A8
:102BE0006F0010927100109272001092C900109242
:102BF000BC0014B817B81AB81DB810BA1092BC00AF
:102C000015B818B81BB81EB811BA0C94003F15C0FF
:102C10006FEF7FEF80E090E00E94B1290E94901A50
:102C20000CC08091030282FB882780F991E08927FC
:102C300001C080E00E94281112C080919702877025
:102C400009F456C2F7018581882309F451C28091A5
:102C5000030282FF4DC282E00E94111149C2F701B6
:102C60008581C081D181882349F0CE010E949E24B4
:102C7000182F682FCE010E940E2504C0CE010E949D
:102C8000DA24182FBE01812F0E94F80E0E94150F22
:102C9000D82FC92FC82EF7011581068102950F7014
:102CA00080919702877001F11123F1F0892F807FC5
:102CB000803469F080E28D0F8830B0F0892F807EFB
:102CC000803229F4F1E0FD1778F4002369F0809157
:102CD000030282FF09C082E00E94111180919702D5
:102CE0008770DD24D3948111D12CBC2EB2948FE057
:102CF000B8228B2D90E08C30910508F0CFC1FC01FB
:102D0000EB58FF4F0C94582A8C2F807FCF7088236C
:102D100011F0C295C07F1123B9F0CC2309F4ACC1E6
:102D200080E28D0F883010F0C11006C0909105022E
:102D3000C92BC093050205C090915A03C92BC093BB
:102D40005A030E94BC1098C18D2F0E94D126CC231B
:102D500009F4A4C1D05E8C2FD83068F1CC2059F191
:102D60000E94AE102AC08C2F807FCF70803211F06D
:102D7000C295C07FCC2029F021E0C21609F44CC0D6
:102D800054C08091030282FD1BC0112369F0CC2343
:102D900039F090910502C92BC09305020E94BC1026
:102DA00080E00E9435277AC180E00E94D126CC23A2
:102DB00009F474C18C2F0E94B5100E94BC106EC122
:102DC000112381F00023A9F1013009F067C190912E
:102DD000B8028C2F8923C81709F460C1C92BC0938E
:102DE000B8025CC101115AC18C2F0E94E825809164
:102DF000B8029C2F982329F09C2F909589238093CB
:102E0000B8028091C3029C2F982309F447C1C09552
:102E10008C238093C30242C1112321F0023008F0B9
:102E20003DC107C001113AC115C0112331F0011194
:102E300023C18C2F0E94EF2531C1002359F0D933D3
:102E400009F029C14FEF57EE83E0415050408040D8
:102E5000E1F71FC18C2F0E94E82520C18C2F869599
:102E60008695837019F0813061F018C1112321F02B
:102E70008D2F9C2F937002C080E090E00E946C2008
:102E800013C1112321F08D2F9C2F937002C080E07D
:102E900090E00E94472008C1612F8D2F0E94F925E4
:102EA00003C18C2F8370A9F51111FCC04D2F4295E1
:102EB00046954770440F440F8D2F8F7090E09C0112
:102EC000042E01C0220F0A94EAF7D4FF08C08FE055
:102ED00090E001C0880F4A95EAF7809501C080E034
:102EE000C695C695C370C23069F088F49091B90256
:102EF000C13019F0822B892302C0922B892B0E94AA
:102F00008425D0C0822B9091B9028927F8CF822BDB
:102F1000F6CF112319F08C2F817001C0869588237C
:102F200009F4C0C04D2F429546954770440F440F99
:102F30008D2F8F7090E09C01042E01C0220F0A9407
:102F4000EAF7D4FF08C08FE090E001C0880F4A95EF
:102F5000EAF7809501C080E0C695C695C370C2307F
:102F600059F078F49091DF01C13019F0822B892358
:102F700009C0922B892B06C0822B9091DF018927F3
:102F800001C0822B0E9443258DC0CF70112339F0E0
:102F90008C2F0E9478258D2F0E94EF2583C08D2FC6
:102FA0000E94E8258C2F0E946B257CC08D2F92EF0C
:102FB000C91661F19C1538F0E0EFCE1659F0F1EF2B
:102FC000CF16F9F055C023EFC21639F144EFC416FD
:102FD000A1F04EC0112369F0011160C0CF7181E0F2
:102FE00090E001C0880FCA95EAF79091DF01892728
:102FF0001EC0023008F052C0F1CF8091030282FD62
:1030000019C0112329F08C2F8F7126C01123D9F3F9
:103010008C2F8F710E946B2541C0112339F0CF7125
:1030200081E001C0880FCA95EAF701C080E00E94E4
:10303000432534C0112399F0CF718C2F0E9478253D
:103040008091030282FF07C058E0C59FC001112490
:103050008360809397028C2F0E9478251FC081E0A7
:103060000E9411110230D0F082E00E94111116C0AE
:10307000112321F0002339F28D2F93CE002341F24A
:10308000893349F48FEF97EEE3E081509040E040C0
:10309000E1F700C000008D2F0E94D12688EF8B0D34
:1030A000843010F40E949120DD20A9F080919702D5
:1030B00080FD11C0F70115828695869586950E9440
:1030C0007825C7010E9429148091970286958695DC
:1030D00086950E946B2560E0C7010E94C51908C053
:1030E000C1152EE7D20709F032CCC0E0DEE7CACC2A
:1030F000CDB7DEB7E9E00C9401299C013A95211582
:103100003F4130F5BC0166277270AC014427547012
:103110009C012227387094FF0FC090FF02C080E10D
:1031200001C080E0672B09F08062452B09F08064C4
:10313000232B79F080680895892F8170672B09F01F
:103140008260452B09F08460232B19F08860089574
:1031500080E00895FC018281813039F4958192FDEF
:1031600012C090FF10C082E00895823039F485814A
:1031700082FD06C080FD06C083E0089586E00895C4
:1031800085E0089584E00895CF93DF93EC010E94D9
:10319000D126CE01805E9109089710F0209731F476
:1031A000CE010E947D180E94E82505C0CE010E9434
:1031B0007D180E94D725DF91CF9108958FE39CE978
:1031C0000197F1F700C000008091C702833029F019
:1031D000853031F0813041F403C081E990E002C0D4
:1031E00080E990E00E94C4181092C70208958FE30E
:1031F0009CE90197F1F700C000008091C50283307F
:1032000029F0853031F0813041F403C08BEA90E041
:1032100002C08EEA90E00E94C4181092C502089580
:10322000CF93DF93EC01805E9109089710F020970F
:1032300031F4CE010E947D180E94EF2505C0CE0119
:103240000E947D180E94DE258C2F0E943527DF9179
:10325000CF9108950F931F93CF93DF938C01C9975C
:1032600019F0C0E0D0E002C0C0E5D0E0C8010E9483
:103270001019209741F08FE99FE00197F1F700C006
:1032800000002197F6CFC8010E94C418DF91CF91AA
:103290001F910F910895CF93DF93EC018A818330C2
:1032A00061F480E990E00E942A1980E990E00E9490
:1032B0002A1980E990E00E942A198A81843020F03E
:1032C00080E990E00E942A19DF91CF910895CF9371
:1032D000DF93EC018A81833061F48EEA90E00E94F2
:1032E0002A198EEA90E00E942A198EEA90E00E9444
:1032F0002A198A81843020F08EEA90E00E942A19EF
:10330000DF91CF9108950E94AA188093C70283305D
:1033100029F0853031F0813061F407C081E990E017
:1033200006C080E990E00E942A1980E990E00E949E
:10333000101908950E94AA188093C502833029F0BD
:10334000853031F0813061F407C08BEA90E006C02F
:103350008EEA90E00E942A198EEA90E00E941019ED
:103360000895982F92959F7019F0892F24E001C03D
:1033700020E0982F9695969511F02E5F892F982F23
:10338000969509F02F5F822F0895A6E0B0E0EBEC50
:10339000F9E10C94EB2826E0FC01DE011196019086
:1033A0000D922A95E1F7FC01258189819A812223DA
:1033B00059F0662349F00E949E24182F682F8981B6
:1033C0009A810E940E2503C00E94DA24182F698179
:1033D0007A81812F0E94F80E2696E3E00C9407294B
:1033E000A4E3B0E0E6EFF9E10C94EB284FA758AB6B
:1033F00069AB7AAB8BAB9CAB911110925A03CE01A7
:10340000889627E0DC011D922A95E9F726E0FE0167
:10341000BF96DC0101900D922A95E1F72CA522239D
:10342000C1F061E00E94C51980913302882389F0C0
:103430008DA5811102C087E001C086E0898388A53F
:103440008A8389A58B838EEF8C83CE0101960E949F
:10345000C20D87E0FE01B896DE01919601900D92B3
:103460008A95E1F7CE0181960E94A21181112CC0AC
:1034700087E0FE01B196DE01119601900D928A95CA
:10348000E1F76DA1662301F120915D0230E0C901F1
:103490000196877099274091960250E0841795070E
:1034A00061F16D8397E0929FD001939FB00D11243D
:1034B000A25ABD4FFE01319601900D929A95E1F707
:1034C00080935D020E943F1117E0809196029091D7
:1034D0005D02891709F1189FC0011124825A9D4F7E
:1034E0000E94A2118823C1F08091960290E001967B
:1034F0008770992780939602E8CF109205020E9468
:10350000AA2510925D0210929602E6E5F2E087E0AD
:10351000DF011D928A95E9F7E496E3E00C94072910
:10352000109205020E94AA252FEF84E39CE021500F
:1035300080409040E1F700C000009AE088E10FB6BB
:10354000F894A895809360000FBE90936000FFCF21
:103550008F929F92AF92BF92CF92DF92EF92FF92A3
:103560000F93CF93C82F0E94B11956985E98259853
:103570002D9826982E9827982F98482F50E0FA01DA
:103580003197E730F105B0F4EF57FF4F0C94582A0C
:10359000259A2D9A11C0259A2D9A269A2E9A22C0E4
:1035A000259A2D9A04C0259A2D9A269A2E9A279A02
:1035B0002F9A18C08130B1F48091C202811159C094
:1035C0008091520381608093520360E086950E944F
:1035D0001B2460E081E00E941B2420E04FEF6FEF8E
:1035E0008CEB42C08091C202811143C088E090E020
:1035F0000E9477294B015C0184E290E00E946F29D0
:10360000282F30E040E050E060E070E080E090E0A3
:1036100000E20E946D2A282939294A295B29209332
:1036200052033093530340935403509355036093D4
:10363000560370935703809358039093590320FFC8
:1036400016C0822F81608093520386950E945E246B
:103650008091520386950E945E2421E0409155039B
:1036600060915403809153030E94EE2202C00E9495
:1036700023228C2FCF910F91FF90EF90DF90CF906E
:10368000BF90AF909F908F90089580E290E09093CC
:103690003801809337018091740381110EC00E941C
:1036A000F82781E0809374032FEF83ED90E321509E
:1036B00080409040E1F700C0000060E570E080E4E9
:1036C0000E94FE279093380180933701892B09F0DF
:1036D0004EC060E570E080E00E9471289093380150
:1036E00080933701892B09F042C060E570E080E0EB
:1036F0000E9471289093380180933701892BB9F586
:1037000060E570E08FE30E94712890933801809308
:103710003701892B61F50E94C42860E570E080E4E0
:103720000E94FE279093380180933701892BF9F48A
:1037300060E570E08CE00E947128909338018093DE
:103740003701892BA1F460E570E080E00E947128C8
:103750009093380180933701892B49F460E570E03C
:103760008FE30E94712890933801809337010E9463
:10377000C428809137010895CF93DF9356985E98BF
:1037800025982D9826982E9827982F98C8E8D0E04D
:103790008FEF90E099838883AAE8B0E011969C931C
:1037A0008E93ECE8F0E091838083259A2D9A2FEF99
:1037B00080E792E0215080409040E1F700C0000097
:1037C000269A2E9A2FEF80E792E021508040904079
:1037D000E1F700C00000279A2F9A2FEF80E792E0D0
:1037E000215080409040E1F700C0000025982D98BE
:1037F0002FEF80E792E0215080409040E1F700C039
:10380000000026982E982FEF80E792E0215080400C
:103810009040E1F700C0000027982F988091CC01DC
:1038200087702FEF829FC0011124959587959595FC
:10383000879599279983888311969C938E9391837A
:10384000808356985E9825982D9826982E982798CC
:103850002F98DF91CF910895CF93E82F873080F58F
:103860008091370190913801892B09F047C0CE2F04
:1038700060E570E080E40E94FE2790933801809319
:103880003701892BD1F460E570E082E10E94712854
:103890009093380180933701892B79F481E090E08F
:1038A00001C0880FCA95EAF760E570E080950E9434
:1038B000712890933801809337010E94C4281EC05C
:1038C00090E0FC013797E730F105C0F4E857FF4F6F
:1038D0000C94582A209A289811C0219A29980EC031
:1038E000229A2A980BC0239A2B9808C0529A5A9869
:1038F00005C0539A5B9802C03E9A4698CF910895AE
:10390000209828982198299822982A9823982B98CB
:1039100052985A9853985B983E9846980895CF933A
:10392000873040F58091370190913801892B59F506
:1039300060E570E081E40E94FE2790933801809357
:103940003701892B11F0C0E011C080E590E00E94A2
:10395000A02897FF05C09093380180933701F3CFDB
:10396000C82FC09510923801109237010E94C428C8
:103970008C2F0AC09FB18FB1807F869586959370FA
:10398000892B809501C080E0CF9108958098889A16
:103990008198899A84988C9A85988D9A86988E9A1F
:1039A00087988F9A08958091070208950895A0E05E
:1039B000B0E0EDEDFCE10C94E128FC018280748024
:1039C00081E08483E5E7F4E09490E4EFF4E0E491AF
:1039D000009155030695015810E0000F111F012FAB
:1039E0001127C7E0D3E02BECC22E22E0D22EAA246E
:1039F000AA94B12CE919EE2EF12C22E0281530F012
:103A0000809153038883809154038983711003C08C
:103A10001B821A824AC08B818823F9F081508B83E4
:103A20002FEF829FC00111246C8170E00E94C82892
:103A3000FB01FF27EB58FB4F8491E82FE9192FEF8B
:103A4000E29FC0011124B7010E94C828809155034C
:103A5000689FB00111247A8328C00E945F29B501B4
:103A60000E94442A8017910704F582E0881588F4A3
:103A70000E945F29B5010E94442A88830E945F2921
:103A8000209154032695622F70E00E94442A280F4B
:103A900029831A8280915503843120F0893C18F0E3
:103AA00088EC01C084E18C838B8396014A81698113
:103AB00088810E944922259624E0C20ED11C83E011
:103AC000C235D80709F099CF0E941221CDB7DEB7D1
:103AD000EDE00C94FD28EF92FF920F931F93CF938C
:103AE000DF938C01CBECD2E0E12CF12CF801848146
:103AF000F7E0EF16F1041CF4882339F002C08111BD
:103B000004C09E014091550302C09E0140E06091B7
:103B10005403809153030E9449228FEFE81AF80A58
:103B200024969FE0E916F10409F70E941221F8019A
:103B3000848190E00196817099278483CDB7DEB7A8
:103B4000E6E00C940429A0E0B0E0E9EAFDE10C9481
:103B5000E228EC014C81042F10E09801D8010E946A
:103B60001B2A9B01AC010E94E6296B017C01E0E26B
:103B7000F0E0E01BF10BA5E5B0E09B01AC010E9479
:103B8000E6294B015C019F01DF010E945E2A9B0137
:103B9000AC010E94F1299B01AC012C0D3D1D4E1D75
:103BA0005F1DC501B4010E94F929822FF22E99E20E
:103BB000921728F093E0299F900111240DC025E56C
:103BC00030E0281B3109C901880F991F280F391FC0
:103BD00037FF02C02F5F3F4F35952795122F109565
:103BE0009BECC92E92E0D92E00E085E5E82EEF1877
:103BF00001FD02C08E2D01C08F2D9601412F6091D5
:103C000054030E9449220F5F84E0C80ED11C0F307C
:103C100079F70E9412218C81811102C091E003C0CA
:103C2000803219F49FEF9093350190913501890FFF
:103C30008C83CDB7DEB7ECE00C94FE280F931F9376
:103C4000CF93DF93CBECD2E0FE011182108212827F
:103C50001382349683E0E730F807B9F700E010E00C
:103C60008091C902082E000C990B0817190794F0CF
:103C700080913401082E000C990B8017910754F0A5
:103C80009E014091550360915403809153030E941B
:103C9000492204C0198218821A821B820F5F1F4FAB
:103CA00024960F301105E1F60E9412218091330114
:103CB0009091C902980F9093C90220913401280F66
:103CC00020933401121614F49E301CF081958093D9
:103CD0003301DF91CF911F910F910895A0E0B0E0E3
:103CE000E4E7FEE10C94E528FC01828180FF03C03B
:103CF000DD24DA9402C0DD24D3940BEC12E0C0E0A2
:103D0000D0E02FE0B22EF8011182108212821382CD
:103D100094E0E92EF12CC12C8091C8028C0D8031E9
:103D20002CF06B2D0E94362A892F02C087FD815FFF
:103D3000082E000C990BC817D90791F480915503F0
:103D40008E9DA0018F9D500D112455954795559539
:103D50004795980160915403809153030E94492232
:103D6000CD0CF1E0EF1AF108B9F621960C5F1F4F68
:103D7000CF30D10541F60E9412218091C80291E016
:103D8000D91206C0811102C08EE007C0815005C063
:103D900090E00196BE010E94442A8093C802CDB7EC
:103DA000DEB7E9E00C940129EF92FF921F93CF93C5
:103DB000DF93EC018BECE82E82E0F82E10E08C8192
:103DC00097014091550360915403810F0E9449224D
:103DD0001F5E84E0E80EF11C1F3F89F70E9412214C
:103DE0009A818C8190FF02C08F5F01C081508C83CB
:103DF000DF91CF911F91FF90EF900895A4E0B0E084
:103E0000E4E0FFE10C94EA288C018091CA02811160
:103E10000AC09E012F5F3F4F4FEF6FEF0E94492274
:103E20008A818093CA02F8018481813051F028F0A0
:103E3000823061F44091CA020AC08091CA0240E017
:103E400007C06091CA0240E080E003C040E080E02B
:103E500060E00E94A421F801848190E0019663E073
:103E600070E00E94442A84832496E4E00C9406299E
:103E7000CF93DF93EC01E2E5F3E0438162818C8133
:103E80000E94D6228C818F5F8C83DF91CF91089521
:103E9000CF93DF93EC01EC81F0E0EB58FB4F4491C2
:103EA000E2E5F3E0628181810E94D6228C818F5FFE
:103EB0008C83DF91CF9108959B01909135029430CE
:103EC000F1F48F708093E9008FEF9091E8008150BA
:103ED00095FD06C095ED9A95F1F700008111F5CF9B
:103EE0008091E80085FF0BC0BA01C90140E050E0B5
:103EF0000E94980D8091E8008E778093E8000895E5
:103F000078941F920F920FB60F9211248F939F9364
:103F1000AF93BF938091640390916503A091660372
:103F2000B09167030196A11DB11D80936403909326
:103F30006503A0936603B0936703BF91AF919F9110
:103F40008F910F900FBE0F901F9018959C014FB747
:103F5000F8948091640390916503A0916603B091F9
:103F600067034FBF821B930B08952FB7F89480917E
:103F7000640390916503A0916603B09167032FBF1E
:103F800008951F920F920FB60F9211248F939F9353
:103F9000AF93BF9380916303811113C08091640339
:103FA00090916503A0916603B09167034196A11DAE
:103FB000B11D8093640390936503A0936603B0934F
:103FC0006703BF91AF919F918F910F900FBE0F909C
:103FD0001F901895209132012223C9F020910202EE
:103FE00027FF15C0262F2695269526952E31C8F435
:103FF000FC01E20FF11D677081E090E001C0880FC5
:104000006A95EAF780959281892382830895FC015D
:1040100006962281621301C012823196E817F907D1
:10402000C1F70895209132012223C1F020910202AC
:1040300027FF14C0262F2695269526952E3130F57C
:10404000FC01E20FF11D677081E090E001C0880F74
:104050006A95EAF79281892B82830895FC01329652
:104060002FEF30E04191641789F02F3F19F441118F
:1040700001C0232F3F5F3630A9F72F3F39F0FC01F5
:10408000E20FF11D27FDFA95628308950895A3E0DC
:10409000B0E0EDE4F0E20C94EC2820916103309163
:1040A000620328173907A1F090936203809361039C
:1040B000E0915F03F0916003309751F024E0298391
:1040C0009B838A830680F781E02DCE0101960995B6
:1040D0002396E2E00C940829A3E0B0E0E2E7F0E2E6
:1040E0000C94EC2820915D0330915E03281739076A
:1040F000A1F090935E0380935D03E0915F03F091E4
:104100006003309751F023E029839B838A830680E4
:10411000F781E02DCE01019609952396E2E00C94FB
:104120000829E0915F03F0916003309729F0019036
:10413000F081E02D0995089580E00895411551051D
:1041400011F0FA0109950895CF93DF93EC014A85A8
:104150005B856E857F850E949E208B810E94AE10BC
:104160008C810E94B5100E94BC1086E0FE01119265
:104170008A95E9F7DF91CF910895CF93DF93EC0112
:104180008D8181FD17C082608D8390915A038B8150
:10419000892B80935A03909105028C81892B8093FF
:1041A00005020E94BC10488559856E857F85CE0129
:1041B0000E949E2010925C0310925B038D8180FD13
:1041C00003C0CE010E94A420DF91CF910895A0E208
:1041D000B0E0EDEEF0E20C94EC289FEF99838A8337
:1041E000CE0101960E94C20DA096E2E00C9408292F
:1041F0009091520390FF04C09695981748F003C021
:10420000811106C090E0961718F40E946C2408955E
:104210000E945E240895882311F0FA0101C0FB0179
:1042200009950895EF92FF920F931F93CF93DF9319
:104230008091520380FF08C00BEC12E087E0E82E6B
:1042400083E0F82EF8011BC0EBECF2E087E093E08E
:10425000118210821282138234968E179F07C1F743
:10426000EBCF381708F4832F8383381B3183281B47
:104270002083981B92833496EE16FF0641F09281BC
:1042800020813181892F291760F7822FEACF809111
:104290007403882381F18091370190913801892B33
:1042A00051F580913601882331F165E070E084E8B2
:1042B0000E94FE27892B19F0109236011AC0CBEC10
:1042C000D2E065E070E088810E94712865E070E0CE
:1042D00089810E94712865E070E08A810E947128BE
:1042E00065E070E08B810E9471282496EC16FD0633
:1042F00041F70E94C428579A8BB18F779BB1906881
:104300002FB7F894E016F10699F0F80131918F017A
:1043100048E09BB9000000C037FF8BB9330F0000A5
:1043200000C000C000C08BB900C04A9591F7EACF29
:104330002FBF8FE594E00197F1F700C00000CDB7E3
:10434000DEB7E6E00C9404299091520390FF0DC073
:10435000EBECF2E08183608342831382349693E036
:10436000E730F907B9F70E941221089580915203AE
:10437000282F269530E02115310519F481708260CF
:1043800005C02B32310524F081708465809352037F
:104390000895A0E0B0E0EFECF1E20C94E2284901CE
:1043A0005A016B017C010E94B6218401A4016A2D8F
:1043B0007B2D88E090E00E94A52994014A2D5B2D79
:1043C000B601C70100E20E94882A622F84E290E0D1
:1043D0000E949329CDB7DEB7ECE00C94FE288091C3
:1043E0005603882319F0815080935603209152037D
:1043F00030915303409154035091550360915603FB
:104400007091570380915803909159030E94C921DC
:10441000089580915603833018F48F5F809356037C
:10442000209152033091530340915403509155030E
:1044300060915603709157038091580390915903EE
:104440000E94C9210895E2E5F3E020812E7F2083B8
:1044500031814281538164817581868197810E9477
:10446000C92110927C030E9412210895E2E5F3E035
:1044700023E0208311828FEF8283838314827581EE
:1044800030E04FEF5FEF60E0868197810E94C921A5
:104490000895A0E0B0E0EFE4F2E20C94E428E82E06
:1044A000F62EE901E42FF0E0611106C0EB58FA4F57
:1044B000E4914E2F2E2F71C0062F10E0EB58FA4FCB
:1044C0004491F42FC42ED12C26E0829FC0011124E8
:1044D0002FEF30E0B9010E94C8285BEA5603C00103
:1044E000579F900D11248E0D911D8E0D911D582FEB
:1044F000550F580FD901A01BB10BAC9DC001AD9D4C
:10450000900DBC9D900D1124E92FF59ED001112432
:10451000AB2FBB277901EA1AFB0AEC9CD001ED9C7A
:10452000B00DFC9CB00D11245901A51AB108A09E34
:104530007001A19EF00CB09EF00C1124EF2CFF2412
:104540002E193F092C9D80012D9D100D3C9D100DB5
:104550001124212F6230710591F048F46115710525
:10456000E1F061307105B9F4242F4B2F16C064308F
:10457000710569F040F06630710579F00CC0242FA8
:10458000492FE12F0AC0492FEF2F2B2F06C0292FCB
:10459000E42F412F02C0292FEB2F49832883EA8380
:1045A0001B82CDB7DEB7EAE00C940029A4E0B0E0AE
:1045B000ECEDF2E20C94EC289091520390FF0AC0CB
:1045C0009E012F5F3F4F0E9449224B8169818A8162
:1045D0000E94A4212496E2E00C940829A4E0B0E013
:1045E000E4EFF2E20C94DF28F82E762EE42E622E11
:1045F0009091520390FF6CC0E92FE695AE2FB0E08A
:10460000A356BE4F8C9180937B039E7F923061F4C2
:104610009E012F5F3F4F8F2D0E9449224B81698160
:104620008A810E94A4213DC0823019F4E090550394
:1046300038C0863019F4F090530333C08930D9F371
:10464000893179F5E9518E2F8170582EE695F0E089
:10465000EB58F94FE4910E2F10E08BECC82E82E05E
:10466000D82EA12CB12C9FE0892E912CC501B4012C
:104670000E94C8288F2D511002C0860F01C0861BD2
:1046800096014E2D672D0E944922A00EB11E84E096
:10469000C80ED11C87E0C81683E0D80639F70E94FF
:1046A0001221F092530370925403E0925503662056
:1046B00079F02091520360915603709157033F2D7A
:1046C000472D5E2D80915803909159030E94C92176
:1046D0002496EFE00C94FB28E2E5F3E043812CE024
:1046E000421B08F440E021E0628181810E94EE22B9
:1046F0000895E2E5F3E043812CE0420F08F44FEF28
:1047000021E0628181810E94EE220895E2E5F3E0DA
:10471000628121E1621B08F460E021E04381818134
:104720000E94EE220895E2E5F3E0628121E1620F4A
:1047300008F46FEF21E0438181810E94EE22089509
:10474000E2E5F3E0818121E0438162818C500E94A7
:10475000EE220895E2E5F3E0818121E04381628168
:10476000845F0E94EE22089580916A0380FD18C044
:1047700081FD14C082FD16C080916903882381F0F9
:104780008C3380F427E0829FC00111246CE370E039
:104790000E94442A862F672B19F005C083E00895F4
:1047A00081E0089587E0089580916A0380FD17C035
:1047B00081FD17C082FD19C080916803882399F09C
:1047C0008C3398F428E3829FC00111246CE370E0DD
:1047D0000E94442A862F672B49F481E008958EE0D9
:1047E00008958CE1089588E0089588E30895282FBE
:1047F00035EB2303C001112497FF03C080589109B2
:1048000002C080589F4F892F08956091520366958A
:1048100070E04BE050E089E391E00E94C52B892BCA
:1048200019F481E080937C030E94B51F9093760376
:104830008093750308959091520390FF3EC091704C
:10484000811102C0926006C08B3210F0946502C0E4
:10485000880F982B90935203662391F02091520376
:104860003091530340915403509155036091560386
:104870007091570380915803909159030E94C92168
:1048800060915203669570E04BE050E089E391E05F
:104890000E94C52B892B19F010927C0302C00E9444
:1048A000052481E08093780320E0409155036091D6
:1048B0005403809153030E94EE22089561E00E9408
:1048C0001B240895809152038695815009F48AE251
:1048D00061E00E941B2408958091520386958F5FAA
:1048E0008B3208F081E061E00E941B2408950E9451
:1048F000B51F20917003211104C020917103222360
:1049000021F090936E0380936D0320917203211127
:1049100004C020917303222321F090936C038093B1
:104920006B03E0915F03F0916003309731F00480F6
:10493000F581E02D8FE693E009950895CF92DF92FF
:10494000FF920F931F93CF93DF936C010091DF01D0
:104950008091B902082BC7E0D0E010E0C8010C2E0E
:1049600002C0959587950A94E2F780FD04C02197CF
:10497000A8F7F12C09C0FC2EB6018C2F0E94F80E6E
:104980000E94150F019799F38F2DDF91CF911F9101
:104990000F91FF90DF90CF900895CF93DF93EC01BC
:1049A0000E949E24BE010E94F80E0E94150FDF9106
:1049B000CF910895292F9E3078F5863068F590E0E4
:1049C00036E0239F800D911D1124682F677023E02E
:1049D000969587952A95E1F7FC01EE0FFF1FE80FEA
:1049E000F91FE358FC4F40E050E080E0219130E0B7
:1049F000062E02C0369527950A94E2F721703327D8
:104A0000042E01C0220F0A94EAF7822B4F5F5F4FFA
:104A10004330510559F7089580E00895292F9E30BD
:104A200088F5863078F590E036E0239F800D911D63
:104A30001124282F277051E001C0550F2A95EAF75D
:104A400023E0969587952A95E1F7FC01EE0FFF1F6D
:104A5000E80FF91FE358FC4F20E030E070E04081A0
:104A6000CB01022E02C0969587950A94E2F78170D9
:104A7000819584278523842781932F5F3F4F23309F
:104A8000310569F70895A0E2B0E0E9E4F5E20C949D
:104A9000EB280E94A81A182F809133028823A9F0CE
:104AA0002FEF80E792E0215080409040E1F700C076
:104AB000000085E08983812F0E94B1198A838EEFDF
:104AC0008B83CE0101960E94C20D1093DF01A09648
:104AD000E3E00C94072921E030E001C0220F8A9521
:104AE000EAF720958091DF0182230E9443250895F3
:104AF00021E030E001C0220F8A95EAF78091DF01C2
:104B0000822B0E94432508958093B9020895FC01E9
:104B100024812223D9F0808191810E94CD24929515
:104B20009F70963079F010F4925001C09A509230F4
:104B300068F4803F69F018F4883E40F409C0843F6F
:104B400029F406C0883E20F0813F11F080E00895EE
:104B500081E0089580913201882331F08091020232
:104B600087FF02C08EE101C086E0E8E3F2E0DF01EA
:104B70001D928A95E9F780E090E00E946C2080E029
:104B800090E00E94472010925A030E94BC10EFE66A
:104B9000F3E085E0DF011D928A95E9F71092680342
:104BA0001092690310926A030E9477240895882363
:104BB00021F00E94AE100E94BC100895882339F0A5
:104BC00090915A03892B80935A030E94BC10089538
:104BD000882321F00E94B5100E94BC1008958823FC
:104BE00039F090910502892B809305020E94BC1038
:104BF0000895662309F45CC08D3C21F40E94D423FF
:104C0000819504C08E3C29F40E94D42380937103C3
:104C1000C5C08F3C21F40E94D423819504C0803DFF
:104C200029F40E94D42380937003B8C0893D19F4FD
:104C30000E94B42305C08A3D31F40E94B4238195BB
:104C400080937203ABC08B3D21F40E94B423819505
:104C500004C08C3D29F40E94B423809373039EC04A
:104C60009FE2980F983078F421E030E0A90102C06B
:104C7000440F551F9A95E2F7CA0190916F03892B53
:104C800080936F038BC08D3D21F480916A03816016
:104C90000CC08E3D21F480916A03826006C08F3D76
:104CA00009F07CC080916A03846080936A0376C0B7
:104CB0008D3C39F49091710397FF35C010927103C8
:104CC00059C08E3C29F4909171031916BCF32BC086
:104CD000909170038F3C29F497FF25C010927003C8
:104CE00049C0803D19F41916CCF31DC09091720390
:104CF000893D29F41916BCF4109272033BC08A3D19
:104D000019F497FF10C0F8CF8B3D39F490917303DD
:104D100097FF09C0109273032DC08C3D21F4909130
:104D200073031916BCF39FE2980F983080F421E0CA
:104D300030E0A90102C0440F551F9A95E2F7CA015D
:104D4000809590916F03892380936F0313C08D3DED
:104D500021F480916A038E7F0BC08E3D21F48091F7
:104D60006A038D7F05C08F3D29F480916A038B7F94
:104D700080936A0380917003811106C08091710352
:104D8000811102C01092680380917203811106C0E4
:104D900080917303811102C0109269030E947724ED
:104DA0000895882309F460C0823869F40E94912034
:104DB00081FF5AC069E386E392E00E9412200E94BC
:104DC000BC1069E30EC0833899F40E94912080FFE3
:104DD0004BC063E586E392E00E9412200E94BC1063
:104DE00063E586E392E00E94EA1F0E94BC100895EA
:104DF000843869F40E94912082FF36C067E486E31C
:104E000092E00E9412200E94BC1067E4EACF9CEF5F
:104E1000980F913A10F4682FE4CF90E2980F9830F1
:104E200050F4877091E001C0990F8A95EAF7892FB5
:104E30000E94B510DACF9BE5980F933028F480E0FC
:104E400090E00E946C20089598E5980F9B3128F41B
:104E500080E090E00E944720089593E3980F9331FB
:104E600018F460E00E94F9250895CF93882309F48F
:104E7000BDC0C82F8238B1F40E94912081FDB6C018
:104E800069E386E392E00E9412200E94BC102FEF9B
:104E900087EE93E0215080409040E1F700C0000091
:104EA00069E317C08338E1F40E94912080FD9EC021
:104EB00063E586E392E00E9412200E94BC102FEF6F
:104EC00081EE94E0215080409040E1F700C0000066
:104ED00063E586E392E00E94EA1F0E94BC1086C050
:104EE0008438B1F40E94912082FD80C067E486E39B
:104EF00092E00E9412200E94BC102FEF81EE94E0FD
:104F0000215080409040E1F700C0000067E4E1CF0D
:104F10008CEF8C0F813AB8F5809132018823E1F053
:104F20008091020287FF18C0EC2FE695E695E69582
:104F3000F0E0EA5CFD4F8281282F30E04C2F477073
:104F400081E090E002C0880F991F4A95E2F7822322
:104F50009323892B59F411C0E8E3F2E08191C8173B
:104F600029F022E0EE33F207C9F707C06C2F86E381
:104F700092E00E94EA1F0E94BC106C2F86E392E030
:104F80000E941220AACF80E28C0F883068F4C7708C
:104F900081E090E001C0880FCA95EAF79091050280
:104FA000892B8093050299CFEBE5EC0FE33040F4B9
:104FB000F0E0EC59FE4F808190E00E946C2016C01A
:104FC000E8E5EC0FEB3150F4F0E0EE0FFF1FE9598C
:104FD000FE4F808191810E94472008C083E38C0F9F
:104FE000833120F461E08C2F0E94F925CF91089540
:104FF0001092B9008CE08093B8000895A0E0B0E072
:10500000E4E0F8E20C94E328B82EEB010E94B51F0F
:105010006C01C431D10558F0CF3F8FEFD80759F05C
:10502000CE0164E170E00E94C8287B0107C0EE2435
:10503000E394F12C03C025E0E22EF12C84E8A82EA5
:1050400094EA992E1092BC009092BC000E94B51F69
:105050008C018091BC0087FD07C0C8010E94A61F7B
:10506000E816F906B0F729C08091B900887F88302A
:1050700041F08091B900887F803119F00FEF1FEF68
:105080001EC0B092BB00A092BC000E94B51F8C0154
:105090008091BC0087FD07C0C8010E94A61FE816CA
:1050A000F906B0F70AC08091B900887F883111F005
:1050B000803421F700E010E00EC00EEF1FEFCF3F6D
:1050C0008FEFD80709F4BECFC6010E94A61FC817EC
:1050D000D90708F0B7CFC801CDB7DEB7EBE00C9425
:1050E000FF280F931F93CF93DF93EB018093BB00B7
:1050F00084E88093BC000E94B51F8C018091BC00A5
:1051000087FD0DC0CF3F8FEFD807C1F3C8010E94C4
:10511000A61FC817D90790F78EEF9FEF0CC02091FC
:10512000B900287F81E090E0283211F480E090E01F
:10513000919581959109DF91CF911F910F910895DC
:105140000F931F93CF93DF93EC0184E88093BC000F
:105150000E94B51F8C018091BC0087FD0DC0CF3F20
:105160008FEFD807C1F3C8010E94A61FC817D9073F
:1051700090F78EEF9FEF03C08091BB0090E0DF912E
:10518000CF911F910F91089584E98093BC000895F9
:10519000AA1BBB1B51E107C0AA1FBB1FA617B7075D
:1051A00010F0A61BB70B881F991F5A95A9F7809579
:1051B0009095BC01CD0108952F923F924F925F923E
:1051C0006F927F928F929F92AF92BF92CF92DF9217
:1051D000EF92FF920F931F93CF93DF93CDB7DEB77C
:1051E000CA1BDB0B0FB6F894DEBF0FBECDBF099410
:1051F0002A88398848885F846E847D848C849B8467
:10520000AA84B984C884DF80EE80FD800C811B8174
:10521000AA81B981CE0FD11D0FB6F894DEBF0FBEA3
:10522000CDBFED0108958F929F92AF92BF92CF9222
:10523000DF92EF92FF92CF93DF93EC016881798147
:105240008A819B81611571058105910521F464E2D4
:1052500079ED8BE597E02DE133EF41E050E00E94DE
:10526000C72949015A019B01AC01A7EAB1E40E9498
:10527000E6296B017C01ACEEB4EFA50194010E941C
:10528000F429DC01CB018C0D9D1DAE1DBF1DB7FFA8
:1052900003C00197A109B04888839983AA83BB837F
:1052A0009F77DF91CF91FF90EF90DF90CF90BF90ED
:1052B000AF909F908F9008950E941329089580E0E9
:1052C00091E00E9413290895A0E0B0E080930001CE
:1052D00090930101A0930201B09303010895F999FD
:1052E000FECF92BD81BDF89A992780B50895A6E1B9
:1052F000B0E044E050E00C94B929A8E1B0E042E00D
:1053000050E00C94B929DC01A40FB51F4150504066
:1053100048F0CB01840F951F2E910E949429415093
:105320005040D0F70895262FF999FECF92BD81BD48
:10533000F89A019700B4021639F01FBA20BD0FB6D3
:10534000F894FA9AF99A0FBE08950396272F0E94AF
:1053500094290E949329252F0E949429242F0C948C
:1053600094290196272F0E9494290C949329DC01FB
:10537000CB01FC01F999FECF06C0F2BDE1BDF89A60
:10538000319600B40D9241505040B8F70895052E63
:1053900097FB1EF400940E94DE2957FD07D00E945F
:1053A000F92907FC03D04EF40C94DE295095409562
:1053B000309521953F4F4F4F5F4F089590958095C1
:1053C000709561957F4F8F4F9F4F08950E941B2AC4
:1053D000A59F900DB49F900DA49F800D911D112449
:1053E0000895B7FF0C94E6290E94E629821B930BCF
:1053F0000895A1E21A2EAA1BBB1BFD010DC0AA1F16
:10540000BB1FEE1FFF1FA217B307E407F50720F02D
:10541000A21BB30BE40BF50B661F771F881F991FA8
:105420001A9469F760957095809590959B01AC01F1
:10543000BD01CF010895A29FB001B39FC001A39FFA
:10544000700D811D1124911DB29F700D811D1124BD
:10545000911D0895991B79E004C0991F961708F0D3
:10546000961B881F7A95C9F78095089587FB082EAB
:10547000062687FD819567FD61950E942A2A0EF414
:10548000919507FC8195089597FB072E16F40094DB
:1054900007D077FD09D00E94C82807FC05D03EF44C
:1054A000909581959F4F0895709561957F4F0895D0
:1054B000EE0FFF1F0590F491E02D09940E941B2A26
:1054C000332312F48A1B9B0B0C94682A0E941B2A1C
:1054D000B7FF0895821B930B08950F93083090F047
:1054E000982F872F762F652F542F432F322F222767
:1054F0000850F4CF220F331F441F551F661F771F1C
:10550000881F991F0A95B2F70F91089597FB10F81D
:10551000169400080F93083098F00850232F342F6A
:10552000452F562F672F782F892F902DF4CF059474
:1055300097958795779567955795479537952795CB
:105540000A95AAF70F9108950F931F93CF93DF93B6
:105550008230910510F482E090E0E091A003F09198
:10556000A10320E030E0A0E0B0E0309719F14081E5
:1055700051810281138148175907C8F08417950794
:1055800069F4109731F012960C93129713961C93AE
:1055900027C00093A0031093A10322C02115310559
:1055A00019F04217530718F49A01BD01EF01DF010A
:1055B000F801DBCF21153105F9F0281B390B243018
:1055C000310580F48A819B816115710521F0FB0111
:1055D0009383828304C09093A1038093A003FE0170
:1055E000329644C0FE01E20FF31F81939193225043
:1055F0003109398328833AC020919E0330919F035B
:10560000232B41F4209106013091070130939F0331
:1056100020939E032091040130910501211531054D
:1056200041F42DB73EB74091080150910901241B68
:10563000350BE0919E03F0919F03E217F307A0F46E
:105640002E1B3F0B2817390778F0AC014E5F5F4FD8
:105650002417350748F04E0F5F1F50939F03409368
:105660009E038193919302C0E0E0F0E0CF01DF91CF
:10567000CF911F910F910895CF93DF93009709F475
:1056800081C0FC01329713821282A091A003B091D5
:10569000A103109781F420813181820F931F209103
:1056A0009E0330919F032817390751F5F0939F030C
:1056B000E0939E0367C0ED0120E030E0CE17DF07E6
:1056C00040F44A815B819E0141155105F1F0EA01E8
:1056D000F5CFD383C28340815181840F951FC817B2
:1056E000D90759F488819981840F951F0296918377
:1056F00080838A819B81938382832115310529F4DC
:10570000F093A103E093A0033DC0E901FB83EA838A
:1057100049915991C40FD51FEC17FD0761F48081A1
:105720009181840F951F0296E90199838883828174
:1057300093819B838A83E0E0F0E012968D919C91A7
:105740001397009719F0FD01DC01F7CF8D919C9123
:1057500011979D012E5F3F4F820F931F20919E0353
:1057600030919F032817390769F4309729F4109274
:10577000A1031092A00302C013821282B0939F0370
:10578000A0939E03DF91CF910895FC0141505040BA
:1057900030F001900616D1F73197CF010895882790
:1057A00099270895FB01DC0104C08D9101908019B7
:1057B00021F441505040C8F7881B990B0895F89484
:0257C000FFCF19
:1057C200010000000000A2032000D31CDA08D30865
:1057D200CC0800000000000067199A19F7180000B1
:1057E20000000000000000004B198319DE180000C1
:1057F20000000101020101200001191A1B1C1D1EDB
:105802001F20212256476D72372F5261773557007C
:105812004422476D0902E701A00133015F027802C9
:105822009802B102818283E200E900EA00B500B683
:1058320000B700CD008301CC008A019201940121BE
:1058420002230224022502260227022A02B300B4FE
:10585200006F0070009F01CB019F02A002000102B5
:105862000202020606060909090909090F0F0F0FAC
:105872000F0F1515151819191919191919191919B7
:085882002324252525252525F9
:00000001FF
